:020000040800F2
:10000000A8060020690500086D0300086F030008BA
:1000100073030008770300087B030008000000005A
:100020000000000000000000000000007F03000846
:100030008103000800000000830300088503000816
:100040008305000883050008830500088305000870
:100050008305000883050008830500088305000860
:100060008305000883050008830500088305000850
:100070008305000883050008830500088305000840
:100080008305000883050008830500088305000830
:100090008305000883050008830500088305000820
:1000A0008305000883050008830500088305000810
:1000B0008305000883050008830500088305000800
:1000C00083050008830500088305000883050008F0
:1000D00083050008931300088305000883050008C2
:1000E00083050008830500088305000883050008D0
:1000F00083050008830500088305000883050008C0
:1001000083050008830500088305000883050008AF
:10011000830500088305000883050008830500089F
:10012000830500088305000883050008830500088F
:1001300000F002F800F090F80AA090E8000C824469
:100140008344AAF10107DA4501D100F085F8AFF246
:10015000090EBAE80F0013F0010F18BFFB1A43F0A5
:1001600001031847BCA20000DCA20000103A24BF23
:1001700078C878C1FAD8520724BF30C830C144BF0C
:1001800004680C607047000000230024002500264E
:10019000103A28BF78C1FBD8520728BF30C148BFEA
:1001A0000B6070476E2906F06387702907F0A58001
:1001B000662908F06F84652908F06C84672908F0C7
:1001C0006984612908F0688403681B0A28BF41F02C
:1001D0008001692906F01087642906F00D877529CA
:1001E00006F00A876F2907F03280782907F07180BE
:1001F000E92906F0CD87E42906F0CA87F52906F03B
:10020000C787EF2907F02F80F82907F0708003686F
:10021000DB0928BF41F08001632907F0738573294A
:1002200007F07885E32907F08385F32907F08885AF
:10023000002070471FB507F0D5FD04000020002105
:1002400008F0D4FA401C60600020002108F0B8FAE1
:10025000E0601FBD10B510BD07F096FD1146FFF719
:10026000E9FF00F009F807F073FE03B4FFF7F2FFAF
:1002700003BC07F0BBFE00001CB501F0E9F800F07C
:10028000B5FF02F09AFC2EA018210B46C822CDE93A
:10029000001028211E2006F00FFD01202C490870B7
:1002A00002204870032088700420C87001F065F8AF
:1002B00028A001F009F841E001F054F801283DD1EF
:1002C00001F0E7F82849087800F0E3FF264948786C
:1002D00000F0DFFF2449887800F0DBFF2249C8786E
:1002E00000F0D7FF01201821CDE900101E48027848
:1002F00002233C211E2006F080FC01201821CDE9BC
:1003000000101948427803235A211E2006F075FC7C
:1003100001201821CDE900101348827802237821AA
:100320001E2006F06AFC01201821CDE900100E48BD
:10033000C278022396211E2006F05FFCBCE7000075
:100340004D696E692053544D3332205E5F5E00006C
:10035000280000205345545F4E554D28302C323034
:100360002C33293B000000002C000020704700BF08
:10037000FEE700BFFEE700BFFEE700BFFEE77047F5
:1003800070477047704700000CB500200190009046
:100390006C48006840F480306A49086000BF6948D2
:1003A000006800F4003000900198401C0190009813
:1003B00018B90198B0F5A06FF1D16248006800F457
:1003C000003010B10120009001E000200090009862
:1003D000012843D15C48006840F010005A49086089
:1003E0000846006820F0030008600846006840F0F6
:1003F0000200086053484068524948600846406817
:1004000048600846406840F480604860084640689C
:1004100020F47C1048600846406840F4E8104860CA
:100420000846006840F08070086000BF45480068DA
:1004300000F000700028F9D04248406820F0030026
:10044000404948600846406840F00200486000BFEC
:100450003C48406800F00C000828F9D10CBD10B5EC
:10046000FFF792FF10BD10B53648006840F001005C
:1004700034490860084640683449084031494860BA
:1004800008460068324908402E490860084600685E
:1004900020F4802008600846406820F4FE00486090
:1004A0004FF41F008860FFF7DAFF4FF00060294922
:1004B000086010BD10B5002100200022214B5B68B0
:1004C00003F00C0121B1042906D0082928D107E046
:1004D000214B224C236027E01F4B204C236023E05C
:1004E000184B5B6803F47010164B5B6803F48032A2
:1004F000022303EB904022B9194B4343174C23606E
:100500000DE0104B5B6803F4003323B1144B4343FD
:10051000124C236003E0104B4343104C236003E074
:100520000D4B0E4C236000BF00BF064B5B68C3F34E
:1005300003130C4CE15C094B1B68CB40074C236058
:1005400010BD000000100240002002400000FFF833
:10055000FFFFF6FE08ED00E000127A000000002028
:1005600000093D0004000020094880470948004771
:10057000FEE7FEE7FEE7FEE7FEE7FEE7FEE7FEE753
:10058000FEE7FEE704480549054A064B70470000B0
:100590006704000831010008A8000020A806002018
:1005A000A8020020A802002031490143314A11600D
:1005B000704770B5002100230F22C47804B32D4C7E
:1005C000246804F4E064C4F5E064210AC1F1040382
:1005D000CA40447804FA03F18478144021430901A5
:1005E000254C0678A155047804F01F050124AC4081
:1005F00005786D11AD0005F1E025C5F8004109E071
:10060000047804F01F050124AC401C4D06787611D7
:1006100045F8264070BD1A4A0A400243154B1B1F7D
:100620001A60704739B1134A121D12680243114B08
:100630001B1D1A6006E00F4A121D126882430D4B03
:100640001B1D1A607047042808D14FF0E02109698A
:1006500041F004014FF0E022116107E04FF0E0218A
:10066000096921F004014FF0E02211617047000098
:100670000000FA050CED00E000E400E080E100E09D
:1006800080FFFF1F10B50446CC48844208D10121E9
:10069000042000F02DFB0021042000F029FB46E09F
:1006A000C748844208D10121082000F021FB002125
:1006B000082000F01DFB3AE0C248844208D1012125
:1006C000102000F015FB0021102000F011FB2EE09F
:1006D000BD48844208D10121202000F009FB0021FF
:1006E000202000F005FB22E0B848844208D1012117
:1006F000402000F0FDFA0021402000F0F9FA16E059
:10070000B348844208D10121802000F0F1FA002191
:10071000802000F0EDFA0AE0AE48844207D10121C2
:10072000801500F0E5FA0021A01500F0E1FA10BDF7
:1007300010B50121084600F0DBFA0021012000F08D
:10074000D7FA10BD2DE9F041024600250026002011
:1007500000230024002791F803C00CF00F0591F846
:1007600003C00CF0100CBCF1000F03D091F802C0D4
:100770004CEA050591F800C0BCF1000F31D01468B7
:1007800000202BE04FF0010C0CFA00F3B1F800C090
:100790000CEA03069E4220D183004FF00F0C0CFAA6
:1007A00003F7BC4305FA03FC4CEA040491F803C0C8
:1007B000BCF1280F06D14FF0010C0CFA00FCC2F876
:1007C00014C00AE091F803C0BCF1480F05D14FF006
:1007D000010C0CFA00FCC2F810C0401C0828D1D350
:1007E0001460B1F800C0BCF1FF0F34DD5468002084
:1007F0002EE000F1080C4FF0010808FA0CF3B1F8F4
:1008000000C00CEA03069E4221D183004FF00F0C7A
:100810000CFA03F7BC4305FA03FC4CEA040491F814
:1008200003C0BCF1280F05D100F1080C08FA0CF840
:10083000C2F8148091F803C0BCF1480F07D100F151
:10084000080C4FF0010808FA0CF8C2F81080401CA0
:100850000828CED35460BDE8F0814FF6FF710180C7
:10086000022181700421C170704702460020936804
:100870000B400BB1012000E0002070470146886862
:1008800080B2704702460020D3680B400BB10120B4
:1008900000E0002070470146C86880B270470161DF
:1008A0007047416170470AB1016100E041617047E2
:1008B000C16070474FF480320A4382618161826176
:1008C00082698269704702460020434B18684FF6E0
:1008D0008073184040EA021008433F4B186070478D
:1008E0003E49C8617047F0B50A4600230024002144
:1008F000002500F00046B6F1004F02D1364EF169F6
:1009000001E0354E7168C0F3034583B200F4401630
:10091000B6F5401F08D121F070612F4E766826F0A1
:1009200070662D4F7E6012E000F48016B6F5801FD1
:1009300006D1032606FA05F4A14341F0706106E0F2
:10094000460D360103FA06F6B14341F0706122B15B
:10095000460D360103FA06F6314300F00046B6F1C3
:10096000004F02D11C4EF16101E01B4E7160F0BDE1
:1009700030B500228B071C0F0F2303FA04F2164B2D
:1009800008338C1053F824309343134C08348D10E3
:1009900044F8253023468C1053F824308C07240F5C
:1009A00000FA04F423430C4C08348D1044F825302D
:1009B00030BD0A49DC310860704700000008014082
:1009C000000C0140001001400014014000180140DB
:1009D000001C0140002001400000014000002042B6
:1009E000DF48006840F00100DD49086008464068C3
:1009F000DC490840DA49486008460068DA4908409E
:100A0000D74908600846006820F48020086008463E
:100A1000406820F4FE0048604FF41F008860704773
:100A2000CF49096821F48031CD4A11601146096827
:100A300021F480211160B0F5803F03D0B0F5802F04
:100A40000ED106E0C649096841F48031C44A1160FC
:100A500007E0C349096841F4A021C14A116000E0E0
:100A600000BF00BF704710B50146002200230020E0
:100A70004A11012A02D1BA4C236806E0022A02D1A7
:100A8000B74C236A01E0B64C636A01F01F020124EF
:100A900094401C400CB1012000E0002010BD38B58E
:100AA000002000900024002500BF3120FFF7DBFF6D
:100AB00005460098401C00900098B0F5A06F01D04A
:100AC000002DF2D03120FFF7CEFF08B1012400E065
:100AD0000024204638BD01460020A14A106820F0BD
:100AE000F80040EAC10010607047A04908607047F4
:100AF000024600209A4B586820F47C1042EA010319
:100B00001843974B586070479849086670470146EC
:100B10000020934A506820F003000843506070475B
:100B20008F48406800F00C007047014600208C4A56
:100B3000506820F0F00008435060704701460020E4
:100B4000874A506820F4E0600843506070470146CF
:100B50000020834A506820F4605040EAC100506091
:100B6000704729B17E4A527A02437D4B5A7204E0A3
:100B70007B4A527A82437A4B5A7270477B49D8310A
:100B80000860704701460020754A506820F44040D4
:100B90000843506070470021714A20321170704A3A
:100BA00082F82010012802D004280AD104E0012193
:100BB0006B4A2032117005E00521694A203211701C
:100BC00000E000BF00BF7047694908607047644992
:100BD000096A0143624A11627047654944390860F5
:100BE000704730B500210022002400235C4D6D6861
:100BF00005F00C0121B1042905D0082923D105E015
:100C00005C4D056022E05B4D05601FE0544D6D6852
:100C100005F47012524D6D6805F48034022505EB21
:100C200092421CB9544D554305600BE04C4D6D6824
:100C300005F400351DB1504D5543056002E04D4DA2
:100C40005543056002E04B4D056000BF00BF444DB9
:100C50006D6805F0F0010909484D6B5C0568DD40E1
:100C600045603F4D6D6805F4E061090A434D6B5CDA
:100C70004568DD4085603A4D6D6805F46051C90AEC
:100C80003E4D6B5C4568DD40C560354D6D6805F4D3
:100C90004041890B3A4D6B5CC568B5FBF3F50561C6
:100CA00030BD29B12E4A526902432D4B5A6104E0EE
:100CB0002B4A526982432A4B5A61704729B1284A0C
:100CC00092690243264B9A6104E0254A9269824365
:100CD000234B9A61704729B1214AD2690243204BC4
:100CE000DA6104E01E4AD26982431D4BDA61704723
:100CF00029B11B4AD2680243194BDA6004E0184A52
:100D0000D2688243164BDA60704729B1144A1269DF
:100D10000243134B1A6104E0114A12698243104BDB
:100D20001A61704712494039086070470F49C8641A
:100D300070470B49C87170470948406A40F080709D
:100D400007494862704701460020054A92680A40F8
:100D50000AB1012000E00020704701498872704705
:100D6000001002400000FFF8FFFFF6FE00004242C4
:100D70008004424200127A0000093D001400002065
:100D80002400002010B50446FB48844209D101210B
:100D90008803FFF7ADFF00214FF48040FFF7A8FF65
:100DA00032E0F648844209D101214804FFF7ADFF43
:100DB00000214FF40030FFF7A8FF25E0F0488442FF
:100DC00009D101218804FFF7A0FF00214FF4802002
:100DD000FFF79BFF18E0EB48844209D10121C804CA
:100DE000FFF793FF00214FF40020FFF78EFF0BE089
:100DF000E548844208D101210805FFF786FF00215C
:100E00004FF48010FFF781FF10BD2DE9F04786B049
:100E100005460E460024A24600BFA1460027B08921
:100E200000B100BF2F462C8A4CF6FF700440F088BA
:100E300004432C82AC894EF6F3100440B08831890B
:100E40000843718908430443AC81AC8A4FF6FF40E4
:100E50000440B0890443AC8201A8FFF7C2FEC64833
:100E6000874202D1DDF810A001E0DDF80CA0A889CE
:100E700000F4004040B10AEBCA0000EB0A103168F0
:100E80004900B0FBF1F807E00AEBCA0000EB0A10DA
:100E900031688900B0FBF1F86420B8FBF0F0040180
:100EA0002009642101FB1089A88900F4004040B1A9
:100EB000322000EBC900B0FBF1F000F00700044362
:100EC00008E0322000EB09106421B0FBF1F000F0E3
:100ED0000F0004432C8106B0BDE8F0874FF4165193
:100EE000016000218180C18001810C2141810021AC
:100EF0008181704710B502460020108A4FF2FF032F
:100F000018400B884C8823438C882343CC88234388
:100F10001843108210BD0021018041808180C18072
:100F2000704721B1828942F40052828104E08289B3
:100F30004DF6FF731A4082817047F0B503460024D6
:100F400000260025002040F66A17B94200D100BFF4
:100F50001846C1F3421401F01F06012707FA06F5EF
:100F6000012C01D10C3004E0022C01D1103000E042
:100F700014301AB107682F43076002E00768AF43D7
:100F80000760F0BD1AB1838A0B43838202E0838A33
:100F90008B4383827047028A4FF6F0731A400282B5
:100FA000028A0A430282704782894FF2FF731A4015
:100FB000828182890A438281704721B1828942F00D
:100FC0000202828104E082894FF6FD731A40828119
:100FD0007047028A4FF6DF731A400282028A0A4380
:100FE0000282704721B1028A42F48042028204E008
:100FF000028A4BF6FF731A4002827047C1F308025F
:101000008280704701468888C0F308007047818954
:1010100041F0010181817047028BD2B20283028BC1
:1010200042EA012202837047028B02F47F4202836C
:10103000028B0A430283704721B1828A42F0200268
:10104000828204E0828A4FF6DF731A408282704700
:1010500021B1828A42F01002828204E0828A4FF635
:10106000EF731A408282704721B1828A42F00802EF
:10107000828204E0828A4FF6F7731A4082827047B8
:1010800021B1828942F40042828103E08289C2F365
:101090000E028281704721B1828A42F4006282820C
:1010A00004E0828A4FF2FF731A4082827047828A7C
:1010B0004FF6FB731A408282828A0A43828270470B
:1010C00021B1828A42F00202828204E0828A4FF6D3
:1010D000FD731A408282704702460020B1F5007FFE
:1010E00000D100BF13880B400BB1012000E00020AD
:1010F000704701F40072B2F5007F00D100BFCA430F
:101100000280704770B502460024002300250020AD
:1011100040F66A16B14200D100BFC1F3421501F09A
:101120001F03012606FA03F3012D02D196893340ED
:1011300006E0022D02D1168A334001E0968A334040
:101140000C12012606FA04F41688344013B10CB1CF
:10115000012000E0002070BD10B50022002340F601
:101160006A14A14200D100BF0A1201249440A3B224
:10117000DC43048010BD0000003801400044004002
:1011800000480040004C004000500040704700EB19
:10119000C001C9004FF0E022516100219161052199
:1011A000116100BF4FF0E021096901F4803100298D
:1011B000F8D004214FF0E0221161704700B50346DA
:1011C00003E04FF47A70FFF7E2FF181EA3F101036A
:1011D000F7D100BD10B5044603E04FF47A70FFF775
:1011E000EDFF201EA4F10104F7D110BD00B587B0BA
:1011F00001210420FFF762FD01218803FFF75EFD56
:101200004FF40070ADF8180003208DF81A00182074
:101210008DF81B0006A98648FFF794FA4FF480600A
:10122000ADF8180004208DF81B0006A98048FFF7D0
:1012300089FA4FF4A060FFF7B7F925208DF8040074
:1012400001208DF805008DF806008DF8070001A833
:10125000FFF7AFF94FF4165002900020ADF80C00E4
:10126000ADF80E00ADF81000ADF814000C20ADF88C
:10127000120002A96F48FFF7C8FD012240F2255174
:101280006C48FFF75AFE01216A48FFF74AFE07B093
:1012900000BD10B5044621466648FFF7AFFE00BF0B
:1012A00080216448FFF718FF0028F9D010BD70B501
:1012B00005460E46002404E0285DFFF7EAFF601CA7
:1012C00084B2B442F8DB70BD70B50446002504E07A
:1012D000605DFFF7DEFF681CC5B2605D0028F7D1D6
:1012E00070BD10B50246012000E050430B1EA1F175
:1012F0000101FAD110BD2DE9F04106460C4600254A
:1013000012E0601E411B0A20FFF7EBFFB6FBF0F076
:101310000A21B0FBF1F201FB120000F13007384660
:10132000FFF7B7FF681CC5B2A542EADBBDE8F08154
:1013300070B504460D46E0B2FFF7ABFF204670BD26
:101340000FB400B59BB01DA8019002A8019A1C998A
:1013500005F0DAFD0020019002A8FFF7B5FF1BB0F1
:101360005DF814FB34480078012804D1002032498C
:101370000870012070470020FCE710B5FF20FFF740
:1013800088FF04212D48FFF792FFFE20FFF781FF21
:1013900010BD10B540F225512648FFF7B3FE0128D5
:1013A00044D12448FFF72EFE2549087008460078EE
:1013B000FFF76FFF23480078012804D002280CD0E3
:1013C00003282DD11EE01E480078FF2804D100F02C
:1013D00060F802201B49087022E0194800781A4979
:1013E0001A4A1278885419480078401C1749087026
:1013F00008460078042804D100F044F8032011497D
:1014000008700DE00E480078FE2808D101200D4933
:1014100008700949087000F056F800F03AF800BF6B
:1014200000BF40F225510348FFF796FE10BD0000B3
:101430000008014000380140300000202800002052
:1014400031000020320000202C000020330000205A
:1014500008B501212420FFF731FC10208DF803008E
:101460000001ADF8000003208DF8020069461F4816
:10147000FFF768F90420ADF8000069461C48FFF743
:1014800061F908BD10B54FF480711848FFF709FAEB
:1014900010BD10B54FF480711448FFF700FA10BD6D
:1014A00010B54FF480711148FFF7ECF910B9FFF750
:1014B000E9FF01E0FFF7EDFF10BD10B504210C4876
:1014C000FFF7EFF910BD10B504210948FFF7E7F960
:1014D00010BD10B504210648FFF7D4F910B9FFF785
:1014E000ECFF01E0FFF7EFFF10BD00000008014036
:1014F000001401404FF48071FD4A5161490051616F
:10150000FC490860802151611161890011617047B7
:101510004FF48071F64A116149005161F549086044
:1015200080215161116189001161704710B54FF040
:101530008830F0490C390860091D08600020ED4929
:1015400008608815EA490861400048614020486108
:10155000E948808848F68911884202D10220FFF7C5
:1015600016FEE448001F006884B24020E04908618C
:10157000C00008614FF03330DE490C390860091DA6
:1015800008604FF6FF70DB490860204610BD10B5BB
:1015900004460B462046FFF7ADFF4FF48070D44958
:1015A000086140004861D3480360802048610861B9
:1015B0008000086110BD10B504462046FFF79AFF71
:1015C000FFF7B4FF10BD00B5CB490889FFF792FFC4
:1015D00000BD4FF48071C64A116149005161C5498F
:1015E000086080215161116189001161704730B537
:1015F000014601F01F04C1F34513CA0AE50205EBD9
:1016000043151544A8B230BD00BF011EA0F1010270
:10161000D0B2FAD1704730B504460D46B64880883E
:1016200049F24131884205D0B348808845F21031F3
:10163000884240D1B0494889FFF75CFF4FF4807081
:10164000AB490861400048612012AA490860802027
:10165000A7494861086180000861401008614000A6
:101660004861E0B2A34908608020A149486108614F
:1016700080000861A0498889FFF73CFF4FF4807023
:101680009B4908614000486128129A4908608020FF
:101690009749486108618000086140100861400076
:1016A0004861E8B293490860802091494861086127
:1016B000800008618CE19048808846F604018842E9
:1016C00049D18D488079012804D18B480088401E7B
:1016D000001B84B288494889FFF70CFF4FF48070E3
:1016E00083490861400048612012824908608020D7
:1016F0007F4948610861800008614010086140002E
:101700004861E0B27B4908608020794948610861FE
:101710008000086178498889FFF7ECFE4FF48070FB
:1017200073490861400048612812724908608020AE
:101730006F494861086180000861401008614000FD
:101740004861E8B26B4908608020694948610861D6
:10175000800008613CE16848808841F66311884256
:101760007ED16548807900283FD163480088401EBB
:10177000001B84B260494889FFF7BCFE4FF48070BB
:101780005B4908614000486100205A490860802098
:1017900057494861086180000861401008614000B5
:1017A0004861002053490860802051494861086120
:1017B00080000861401008614000486120124D49D6
:1017C000086080204A494861086180000861401033
:1017D000086140004861E0B2464908608020444901
:1017E000486108618000086141E043494889FFF78A
:1017F00081FE4FF480703E4908614000486120122C
:101800003C49086080203A494861086180000861CD
:101810004010086140004861E0B23649086080200D
:101820003349486108618000086140100861400048
:10183000486131480088401E00122E49086080200F
:101840002B49486108618000086140100861400030
:10185000486129480078401EC0B22649086000E06F
:101860004CE08020224948610861800008612249DB
:101870008889FFF73FFE4FF480701D4908614000E2
:10188000486128121B490860802019494861086195
:10189000800008614010086140004861E8B21549C5
:1018A000086080201249486108618000086140108A
:1018B00008614000486110484088401E00120D49F0
:1018C000086080200A494861086180000861401072
:1018D00008614000486108488078401EC0B2054950
:1018E00008608020024948610861800008616FE05B
:1018F000001001400C0C014038000020F74880889F
:1019000045F21051884250D1F4494889FFF7F2FD61
:101910004FF48070F2490861400048612012F1499B
:1019200008608020EE494861086180000861EB4949
:101930004989491C88B2FFF7DDFD4FF48070E84902
:10194000086140004861E0B2E64908608020E4494F
:101950004861086180000861E0498889FFF7CAFD95
:101960004FF48070DE490861400048612812DD496B
:1019700008608020DA494861086180000861D74921
:101980008989491C88B2FFF7B5FD4FF48070D449AE
:10199000086140004861E8B2D24908608020D0491F
:1019A000486108618000086112E0CC488079012814
:1019B00004D1CA480088401E001B84B2C749488928
:1019C0002146FFF7E4FDC54988892946FFF7DFFD79
:1019D00030BD2DE9F04105460E46C0480088A842BA
:1019E00003DDBE484088B04202DC0020BDE8F08143
:1019F00031462846FFF70FFEB848808849F241314A
:101A0000884211D0B548808846F6040188420BD040
:101A1000B248808845F21031884205D0AF488088AE
:101A200041F66311884203D12E20FFF763FD0DE0DC
:101A3000AA48808845F21051884204D14FF43850AA
:101A4000FFF758FD02E02220FFF754FD4FF08830E9
:101A5000A4490C390860091D08604FF6FF70A149C0
:101A6000086088159E49086140004861402048612F
:101A70000220FFF7C9FD9B48001F006884B2402088
:101A8000974908619548808841F66311884210D1D2
:101A90004FF40070924908614FF0333091490C398E
:101AA0000860091D08604FF6FF708E4908602046E7
:101AB0009CE740208A4948610220FFF7A5FD89483C
:101AC000001F006884B240208549086183488088EF
:101AD00049F2413188420BD08048808845F210316C
:101AE000884205D07D48808845F21051884213D144
:101AF00040207B4948610220FFF786FD7948001F9E
:101B000000681FFA80F8402075490861E7B24FF677
:101B1000FF7000EA07270DE07048808846F6040150
:101B2000884207D140206E49486108616D48001F16
:101B3000006884B24FF40070694908614FF0333097
:101B400068490C390860091D08604FF6FF70654947
:101B500008606248808849F22531884216D05F4883
:101B6000808844F23551884210D05C488088091F33
:101B700088420BD05948808848F68911884205D0A0
:101B8000564880884BF20551884201D120462DE706
:101B90005248808849F2413188420BD04F488088B2
:101BA00045F21031884205D04C48808845F21051EA
:101BB000884207D1E012C002B91240EA411040EA5F
:101BC000E82013E72046FFF712FD0FE700B5434872
:101BD000808849F24131884211D04048808846F6D9
:101BE000040188420BD03D48808845F2103188427C
:101BF00005D03A48808841F66311884203D12920F4
:101C0000FFF778FC0FE03548808845F21051884294
:101C100004D14FF42450FFF76DFC04E040F273113F
:101C20000720FFF7B4FC00BD00B52C48808849F2BE
:101C30004131884211D02948808846F60401884203
:101C40000BD02648808845F21031884205D02348C1
:101C5000808841F66311884203D12820FFF74AFCAF
:101C60000EE01E48808845F21051884204D14FF49E
:101C70002050FFF73FFC03E000210720FFF787FC1F
:101C800000BDF0B5054600240027144880790128DE
:101C90000BD11248808846F60401884205D00F48CF
:101CA000808841F66311884208D10C48807920BBB6
:101CB0000A48808841F6631188421ED1082D1BD244
:101CC000DFE805F00406080A12141618062513E0CA
:101CD000072511E004250FE005250DE03800002060
:101CE000001001400C0C0140012505E0002503E037
:101CF000032501E0022500BF00BFF848808849F2B3
:101D00004131884217D0F548808846F60401884260
:101D100011D0F248808845F2103188420BD0EF484C
:101D2000808845F21051884205D0EC48808841F601
:101D3000631188427ED1082D1CD2DFE805F004062D
:101D4000090C0F12151800BF14E044F0800411E0D4
:101D500044F040040EE044F0C0040BE044F02004E2
:101D600008E044F0600405E044F0A00402E044F020
:101D7000E00400BF00BFD948808845F21051884276
:101D800002D14FF4585700E03627D448808845F2F6
:101D9000103188420DD0D148808845F210518842D8
:101DA00007D0CE48808841F66311884201D044F0C4
:101DB0000804CA48808846F60401884201D144F0EC
:101DC000020421463846FFF7E2FBC448808841F60A
:101DD000631188421DD004F0200068B1BF4800881C
:101DE000BE494988884214DABC4806884088BB4905
:101DF0000880084646800CE0B8480088B749498802
:101E0000884206DDB54806884088B44908800846FF
:101E10004680B248808845F2105188427ED1AF4951
:101E20004889FFF767FB4FF48070AD4908614000B7
:101E3000486100E029E10020AA4908608020A84903
:101E40004861086180000861A4494989491C88B239
:101E5000FFF750FB4FF48070A149086140004861D2
:101E60000020A049086080209D49486108618000E9
:101E700008619A494989891C88B2FFF73BFB4FF4F6
:101E80008070974908614000486194480088401E6E
:101E900000129449086080209149486108618000DF
:101EA00008618E494989C91C88B2FFF723FB4FF4AA
:101EB00080708B4908614000486188480078401E66
:101EC000C0B2884908608020854948610861800067
:101ED000086182498889FFF70DFB4FF480708049C3
:101EE00008614000486100207E49086080207C49EC
:101EF000486108618000086178498989491C88B275
:101F0000FFF7F8FA4FF480707549086140004861A6
:101F10000020744908608020714900E034E0486185
:101F20000861800008616D498989891C88B2FFF7C2
:101F3000E1FA4FF480706A490861400048616748DF
:101F40004088401E0012674908608020644948614B
:101F500008618000086161498989C91C88B2FFF75E
:101F6000C9FA4FF480705E490861400048615B48DF
:101F70008078401EC0B25B490860802058494861A3
:101F8000086180000861A7E054494889FFF7B2FA68
:101F90004FF4807052490861400048610020514967
:101FA000086080204E494861086180000861401047
:101FB00008614000486100204A4908608020484983
:101FC0004861086180000861401008614000486174
:101FD00042480088401E0012424908608020404963
:101FE0004861086180000861401008614000486154
:101FF0003A480078401EC0B23A490860802038490B
:10200000486108618000086134498889FFF772FAE5
:102010004FF4807032490861400048610020314926
:10202000086080202E4948610861800008614010E6
:1020300008614000486100202A4908608020284942
:1020400048610861800008614010086140004861F3
:1020500022484088401E0012224908608020204902
:1020600048610861800008614010086140004861D3
:102070001A488078401EC0B21A490860802018496A
:10208000486108618000086126E0082D1CD2DFE865
:1020900005F004070A0D0F12151844F0300413E080
:1020A00044F0100410E044F020040DE000BF0BE009
:1020B00044F0380408E044F0280405E044F0180433
:1020C00002E044F0080400BF00BF032744F480543A
:1020D00021463846FFF75BFAF0BD000038000020CB
:1020E000001001400C0C014030B504460D46294655
:1020F0002046FFF790FAFFF766FA4FF48070FE492A
:10210000086140004861FD480088FD490860802062
:10211000F949486108618000086130BD70B5044626
:102120000D461646F748808849F24131884205D06D
:10213000F448808845F21031884240D1F1494889FD
:10214000FFF7D8F94FF48070EB490861400048610F
:102150002012EB4908608020E7494861086180004F
:1021600008614010086140004861E0B2E44908603D
:102170008020E1494861086180000861E14988895F
:10218000FFF7B8F94FF48070DB49086140004861FF
:102190002812DB4908608020D74948610861800027
:1021A00008614010086140004861E8B2D449086005
:1021B0008020D14948610861800008613DE1D14833
:1021C000808845F21051884250D1CE494889FFF7A6
:1021D00091F94FF48070C8490861400048612012AD
:1021E000C74908608020C4494861086180000861CF
:1021F000C4494989491C88B2FFF77CF94FF48070C3
:10220000BD49086140004861E0B2BD4908608020D6
:10221000B9494861086180000861BA498889FFF7B7
:1022200069F94FF48070B449086140004861281290
:10223000B34908608020B0494861086180000861A6
:10224000B0498989491C88B2FFF754F94FF480706E
:10225000A949086140004861E8B2A94908608020A6
:10226000A5494861086180000861E6E0A5488088CA
:1022700041F6631188427DD1A248807920B9A148F6
:102280000088401E001B84B29E494889FFF732F93E
:102290004FF48070984908614000486120129849C5
:1022A00008608020944948610861800008614010FE
:1022B000086140004861E0B29149086080208E4981
:1022C0004861086180000861401008614000486171
:1022D00020128B490860802087494861086180008E
:1022E00008614010086140004861E0B2844908601C
:1022F000802081494861086180000861814988899E
:10230000FFF7F8F84FF480707B490861400048619E
:1023100028127B4908608020774948610861800065
:1023200008614010086140004861E8B274490860E3
:10233000802071494861086180000861401008618F
:102340004000486128126E49086080206A4948614F
:102350000861800008614010086140004861E8B2EF
:10236000674908608020644948610861800008610D
:1023700063E0FFE76348808846F60401884249D15C
:1023800060488079012804D15E480088401E001B07
:1023900084B25C494889FFF7ADF84FF48070564924
:1023A0000861400048612012554908608020524968
:1023B0004861086180000861401008614000486180
:1023C000E0B24F49086080204B49486108618000B5
:1023D00008614C498889FFF78DF84FF480704649B1
:1023E0000861400048612812454908608020424940
:1023F0004861086180000861401008614000486140
:10240000E8B23F49086080203B494861086180008C
:10241000086112E03B488079012804D139480088DE
:10242000401E001B84B2374948892146FFF7AFF8A8
:10243000344988892946FFF7AAF84FF480702E495D
:102440004861400048612F4800892D49086080207C
:102450002949486108618000086140100861400016
:102460004861274806608020486108618000086153
:1024700070BD2DE9F0410446BE20FFF73BF84FF454
:1024800080701D4908614000486105201C490860B2
:102490008020194948610861800008614010086186
:1024A00040004861204606F0E4F905464FF06632E8
:1024B000154B06F0F1F9074606F0AEF91049086031
:1024C00080200D4948610861800008614010086162
:1024D0004000486101200A4908608020064948619F
:1024E0000861800008614010086140004861FF20D9
:1024F00003490860802009E00010014034000020FA
:102500000C0C01403800002066660440FE4948611A
:1025100008618000086140100861400048610020A7
:10252000FA4908608020F849486108618000086124
:1025300040100861400048610020F4490860802094
:10254000F1494861086180000861BDE8F08110B57B
:102550000446002C66D1EE498871F02008804FF4C3
:10256000A07048800846808849F2413188420BD0EB
:10257000E748808846F60401884205D0E448808810
:1025800045F2103188421AD12C20E14908812A20D5
:1025900048812B2088810846808846F604018842BD
:1025A00005D0DB48808845F21031884206D14FF4CF
:1025B000A070D74908804FF4F0704880A1E0D4485B
:1025C000808845F21051884210D14FF43050D049E4
:1025D00008814FF4285048814FF42C5088814FF4E3
:1025E000F07008804FF4487048808AE0C8488088BE
:1025F00041F6631188420DD12C20C54908812B205A
:1026000048812A2088814FF4F07008804FF4487088
:10261000488076E02220BE49088120204881212080
:1026200088816EE00120BA4988714FF4A07008805B
:10263000F02048800846808849F24131884205D020
:10264000B348808845F21031884207D12C20B04928
:1026500008812A2048812B2088813FE0AC4880886F
:1026600046F60401884207D12C20A94908812B2075
:1026700048812A20888131E0A548808845F21051A0
:10268000884210D14FF43050A14908814FF42850AE
:1026900048814FF42C5088814FF4487008804FF4E3
:1026A000F07048801AE09A48808841F663118842A9
:1026B0000DD12C20964908812A2048812B20888121
:1026C0004FF4487008804FF4F070488006E02220F4
:1026D0008F49088121204881202088818C4880886A
:1026E00046F60401884205D08948808845F21031B9
:1026F000884206D14FF4F070854908804FF4A070ED
:1027000048800020FFF7BDFA10BD2DE9F04F86B0DC
:1027100004460D469046994604EB0800401E86B2DA
:1027200005EB0900401E87B27948808849F24131A3
:10273000884215D07648808845F2103188420FD003
:102740007348808846F60401884209D07048807931
:1027500001287BD16E48808841F66311884275D18B
:102760006B494889FEF7C6FE4FF4807066490861E0
:102770004000486120126549086080206249486134
:102780000861800008614010086140004861E0B2C3
:102790005E49086080205C494861086180000861EA
:1027A000401008614000486130125849086080209C
:1027B0005549486108618000086140100861400087
:1027C0004861F0B25149086080204F494861086172
:1027D000800008614E498889FEF78CFE4FF48070B6
:1027E0004949086140004861281248490860802032
:1027F0004549486108618000086140100861400057
:102800004861E8B24149086080203F494861086159
:1028100080000861401008614000486138123B495F
:1028200008608020384948610861800008614010D4
:10283000086140004861F8B234490860802032499C
:10284000486108618000086177E1FFE730488088CF
:1028500041F6631188427DD12D480088A0EB080025
:10286000001B84B205EB0900401E1FFA80F92849BD
:102870004889FEF73FFE4FF480702349086140000D
:10288000486120122149086080201F494861086181
:10289000800008614010086140004861E0B21B49B7
:1028A0000860802018494861086180000861401074
:1028B00008614000486104EB0800401E0012134903
:1028C000086080201049486108618000086140105C
:1028D00008614000486104EB0800401EC0B20B498B
:1028E0000860802008494861086180000861084943
:1028F0008889FEF7FFFD4FF48070034908614000AE
:1029000048612812014905E0001001400C0C01400B
:102910003800002008608020FE494861086180007E
:1029200008614010086140004861E8B2FA49086057
:102930008020F84948610861800008614010086102
:10294000400048614FEA2920F34908608020F1499E
:10295000486100E011E008618000086140100861F2
:102960004000486109F0FF00EB4908608020E94918
:102970004861086180000861DFE0E848808845F22E
:10298000105188427ED1E5494889FEF7B3FD4FF4E6
:102990008070E0490861400048612012DE4908600B
:1029A0008020DC494861086180000861DB49498971
:1029B000491C88B2FEF79EFD4FF48070D54908612E
:1029C00040004861E0B2D44908608020D1494861A4
:1029D000086180000861D1494989891C88B2FEF7E5
:1029E00089FD4FF48070CB49086140004861301286
:1029F000C94908608020C7494861086180000861B2
:102A0000C6494989C91C88B2FEF774FD4FF480702D
:102A1000C049086140004861F0B2BF4908608020A9
:102A2000BC494861086180000861BC498889FEF79B
:102A300061FD4FF48070B749086140004861281279
:102A4000B54908608020B349486108618000086189
:102A5000B2498989491C88B2FEF74CFD4FF4807059
:102A6000AC49086140004861E8B2AB490860802089
:102A7000A8494861086180000861A8498989891CC2
:102A800088B200E026E0FEF735FD4FF48070A149E2
:102A900008614000486138129F49086080209D49C4
:102AA00048610861800008619C498989C91C88B215
:102AB000FEF720FD4FF480709649086140004861A0
:102AC000F8B2954908608020924948610861800009
:102AD000086132E09148807901280ED1AA46BB46B0
:102AE0008E480088801B401E80B201908B48008871
:102AF000001B401E80B2009003E0A246B346019541
:102B000000975020059051200490522003905320AC
:102B1000029051460598FEF73AFD59460498FEF793
:102B200036FD01990398FEF732FD00990298FEF7F1
:102B30002EFD29462046FEF76EFD06B0BDE8F08F5B
:102B400070B504460026754805884088454373489B
:102B5000808846F60401884216D1704880790128A1
:102B600012D100206D4988712A2048812B2088814C
:102B700000210846FEF74FFD0120684988712B208F
:102B800048812A20888103E000210846FEF743FDA2
:102B9000FEF719FD00260DE04FF480705D490861D5
:102BA000400048615C480460802048610861800002
:102BB0000861761CAE42EFD370BD08B50121192023
:102BC000FEF77CF801215648FDF78DFE4FF4F860C2
:102BD000ADF8000010208DF8030003208DF80200EE
:102BE00069464C48FDF7AEFD4FF4F8614948FDF7E2
:102BF00056FE4FF6FF70ADF80000694646480C38A7
:102C0000FDF7A0FD4FF6FF7143480C38FDF747FE76
:102C10003220FEF7D3FA01210020FEF7B8FC322063
:102C2000FEF7CCFA0020FEF7C6FC3C498880084637
:102C30008088FF280ADB084680884FF6FF718842AB
:102C400004D036488088B0F5134F62D1D320FEF708
:102C500051FCFEF76BFCFEF769FCFEF767FC2F49A1
:102C60008880084680884FF6FF7101EA00202B49D2
:102C70008880FEF75BFC29498988084327498880BA
:102C80000846808849F24131884242D0BF20FEF791
:102C900031FCFEF74BFCFEF749FCFEF747FCFEF764
:102CA00045FC1E498880084680884FF6FF7101EA7E
:102CB00000201A498880FEF739FC184989880843A2
:102CC000164988800846808846F6040188427CD0F0
:102CD000D420FEF70FFCFEF729FCFEF727FCFEF7D9
:102CE00025FC0E498880084680884FF6FF7101EA6E
:102CF00000200A498880FEF719FC084989880843A2
:102D0000064988800846808845F2103188425CD0A8
:102D100008E05AE0001001400C0C0140380000208F
:102D2000000230004FF45A40FEF7E4FBFEF7FEFBD2
:102D30004FF45B40FEF7DEFBFEF7F8FBFE498880B0
:102D4000084680884FF6FF7101EA0020FA49888022
:102D50004FF45C40FEF7CEFBFEF7E8FBF6498988AE
:102D60000843F549888008468088B0F5004F02D1B5
:102D700045F210508880F048808845F21051884212
:102D800023D0A120FEF7B6FBFEF7D0FBEA498880EE
:102D9000FEF7CCFBE8498880084680884FF6FF7133
:102DA00001EA0020E4498880FEF7C0FBE2498988F7
:102DB0000843E14988800846808845F2617188426D
:102DC00003D141F66310DC498880DB48808849F2F2
:102DD000413188427ED1CF20FEF78CFB0020FEF7E8
:102DE00097FBC120FEF794FB3020FEF791FBED200E
:102DF000FEF780FB6420FEF78BFB0320FEF788FBC9
:102E00001220FEF785FB8120FEF782FBE820FEF70B
:102E100071FB8520FEF77CFB1020FEF779FB7A2002
:102E2000FEF776FBCB20FEF765FB3920FEF770FB43
:102E30002C20FEF76DFB0020FEF76AFB3420FEF726
:102E400067FB0220FEF764FBF720FEF753FB202010
:102E5000FEF75EFBEA20FEF74DFB0020FEF758FB75
:102E60000020FEF755FBC020FEF744FB1B20FEF7B9
:102E70004FFBC120FEF73EFB0120FEF749FBC520BA
:102E8000FEF738FB3020FEF743FB3020FEF740FB17
:102E9000C720FEF72FFBB720FEF73AFB3620FEF7E0
:102EA00029FB4820FEF734FB3A20FEF723FB552090
:102EB000FEF72EFBB120FEF71DFB0020FEF728FBDE
:102EC0001A20FEF725FBB620FEF714FB0A20FEF7BA
:102ED0001FFB00E097E0A220FEF71AFBF220FEF7AE
:102EE00009FB0020FEF714FB2620FEF703FB012060
:102EF000FEF70EFBE020FEF7FDFA0F20FEF708FBC1
:102F00002A20FEF705FB2820FEF702FB0820FEF72B
:102F1000FFFA0E20FEF7FCFA0820FEF7F9FA54201B
:102F2000FEF7F6FAA920FEF7F3FA4320FEF7F0FACF
:102F30000A20FEF7EDFA0F20FEF7EAFA0020FEF76E
:102F4000E7FA0020FEF7E4FA0020FEF7E1FA00209D
:102F5000FEF7DEFAE120FEF7CDFA0020FEF7D8FA00
:102F60001520FEF7D5FA1720FEF7D2FA0720FEF754
:102F7000CFFA1120FEF7CCFA0620FEF7C9FA2B2073
:102F8000FEF7C6FA5620FEF7C3FA3C20FEF7C0FA59
:102F90000520FEF7BDFA1020FEF7BAFA0F20FEF763
:102FA000B7FA3F20FEF7B4FA3F20FEF7B1FA0F2040
:102FB000FEF7AEFA2B20FEF79DFA0020FEF7A8FAE6
:102FC0000020FEF7A5FA0120FEF7A2FA3F20FEF747
:102FD0009FFA2A20FEF78EFA0020FEF799FA0020C9
:102FE000FEF796FA0020FEF793FAEF20FEF790FA2C
:102FF0001120FEF77FFA7820FEF7E0F82920FEF78F
:1030000079FA03F09CBB4C48808846F6040188425C
:103010007ED11120FEF76EFA1420FEF7CFF8D020F3
:10302000FEF768FA0720FEF773FA4220FEF770FAFF
:103030001D20FEF76DFAD120FEF75CFA0020FEF7A6
:1030400067FA1A20FEF764FA0920FEF761FAD22027
:10305000FEF750FA0120FEF75BFA2220FEF758FA3D
:10306000C020FEF747FA1020FEF752FA3B20FEF789
:103070004FFA0020FEF74CFA0220FEF749FA112021
:10308000FEF746FAC520FEF735FA0320FEF740FAB0
:10309000C820FEF72FFA0020FEF73AFA2520FEF7A7
:1030A00037FA2120FEF734FA0520FEF731FA002026
:1030B000FEF72EFA0A20FEF72BFA6520FEF728FA13
:1030C0002520FEF725FA7720FEF722FA5020FEF79A
:1030D0001FFA0F20FEF71CFA0020FEF719FAF8205D
:1030E000FEF708FA0120FEF713FAFE20FEF702FAB7
:1030F0000020FEF70DFA0220FEF70AFA2020FEF764
:10310000F9F93620FEF7F6F90820FEF701FA00E09B
:103110002DE03A20FEF7EEF95520FEF7F9F92B20C5
:10312000FEF7E8F90020FEF7F3F90020FEF7F0F9CA
:103130000120FEF7EDF901E0380000203F20FEF706
:10314000E7F92A20FEF7D6F90020FEF7E1F9002082
:10315000FEF7DEF90120FEF7DBF9DF20FEF7D8F9F4
:103160007820FEF72BF82920FEF7C4F949E7FE483E
:10317000808845F21031884240F07C87ED20FEF7D0
:10318000B9F90120FEF7C4F9FE20FEF7C1F9EE20DF
:10319000FEF7B0F9DE20FEF7BBF92120FEF7B8F903
:1031A000F120FEF7A7F90120FEF7B2F9DF20FEF7C4
:1031B000A1F91020FEF7ACF9C420FEF79BF98F208F
:1031C000FEF7A6F9C620FEF795F90020FEF7A0F954
:1031D000E220FEF79DF9E220FEF79AF9E220FEF7E1
:1031E00097F9BF20FEF786F9AA20FEF791F9B020E3
:1031F000FEF780F90D20FEF78BF90020FEF788F925
:103200000D20FEF785F90020FEF782F91120FEF768
:103210007FF90020FEF77CF91920FEF779F90020EC
:10322000FEF776F92120FEF773F90020FEF770F91A
:103230002D20FEF76DF90020FEF76AF93D20FEF71C
:1032400067F90020FEF764F95D20FEF761F90020C0
:10325000FEF75EF95D20FEF75BF90020FEF758F9F6
:10326000B120FEF747F98020FEF752F90020FEF763
:103270004FF98B20FEF74CF90020FEF749F9962014
:10328000FEF746F90020FEF743F9B220FEF732F9C7
:103290000020FEF73DF90020FEF73AF90220FEF784
:1032A00037F90020FEF734F90320FEF731F900204A
:1032B000FEF72EF9B320FEF71DF90020FEF728F9DE
:1032C0000020FEF725F90020FEF722F90020FEF786
:1032D0001FF90020FEF71CF90020FEF719F9002065
:1032E000FEF716F90020FEF713F90020FEF710F99B
:1032F0000020FEF70DF90020FEF70AF90020FEF786
:1033000007F90020FEF704F90020FEF701F900207C
:10331000FEF7FEF80020FEF7FBF80020FEF7F8F8B5
:103320000020FEF7F5F80020FEF7F2F80020FEF787
:10333000EFF80020FEF7ECF80020FEF7E9F8002097
:10334000FEF7E6F80020FEF7E3F8B420FEF7D2F827
:103350008B20FEF7DDF80020FEF7DAF89620FEF766
:10336000D7F80020FEF7D4F8A120FEF7D1F800200E
:10337000FEF7CEF8B520FEF7BDF80220FEF7C8F83C
:103380000020FEF7C5F80320FEF7C2F80020FEF784
:10339000BFF80420FEF7BCF80020FEF7B9F8B6200D
:1033A000FEF7A8F80020FEF7B3F80020FEF7B0F80B
:1033B000B720FEF79FF80020FEF7AAF80020FEF7DE
:1033C000A7F83F20FEF7A4F80020FEF7A1F85E2042
:1033D000FEF79EF80020FEF79BF86420FEF798F8B1
:1033E0000020FEF795F88C20FEF792F80020FEF7FB
:1033F0008FF8AC20FEF78CF80020FEF789F8DC206F
:10340000FEF786F80020FEF783F87020FEF780F8BC
:103410000020FEF77DF89020FEF77AF80020FEF7F6
:1034200077F8EB20FEF774F80020FEF771F8DC2047
:10343000FEF76EF80020FEF76BF8B820FEF75AF89A
:103440000020FEF765F80020FEF762F80020FEF786
:103450005FF80020FEF75CF80020FEF759F8002026
:10346000FEF756F80020FEF753F80020FEF750F85C
:10347000BA20FEF73FF82420FEF74AF80020FEF7B6
:1034800047F80020FEF744F80020FEF741F8C1207D
:10349000FEF730F82020FEF73BF80020FEF738F862
:1034A0005420FEF735F80020FEF732F8FF20FEF733
:1034B0002FF80020FEF72CF8C220FEF71BF80A2098
:1034C000FEF726F80020FEF723F80420FEF720F888
:1034D0000020FEF71DF8C320FEF70CF83C20FEF795
:1034E00017F80020FEF714F83A20FEF711F8002034
:1034F000FEF70EF83920FEF70BF80020FEF708F86B
:103500003720FEF705F80020FEF702F83C20FDF713
:10351000FFFF0020FDF7FCFF3620FDF7F9FF00203C
:10352000FDF7F6FF3220FDF7F3FF0020FDF7F0FF77
:103530002F20FDF7EDFF0020FDF7EAFF2C20FDF71F
:10354000E7FF0020FDF7E4FF2920FDF7E1FF002061
:10355000FDF7DEFF2620FDF7DBFF0020FDF7D8FF9B
:103560002420FDF7D5FF01E0380000200020FDF702
:10357000CFFF2420FDF7CCFF0020FDF7C9FF23205B
:10358000FDF7C6FF0020FDF7C3FF3C20FDF7C0FF9D
:103590000020FDF7BDFF3620FDF7BAFF0020FDF744
:1035A000B7FF3220FDF7B4FF0020FDF7B1FF2F2059
:1035B000FDF7AEFF0020FDF7ABFF2C20FDF7A8FFC5
:1035C0000020FDF7A5FF2920FDF7A2FF0020FDF751
:1035D0009FFF2620FDF79CFF0020FDF799FF242088
:1035E000FDF796FF0020FDF793FF2420FDF790FFE5
:1035F0000020FDF78DFF2320FDF78AFF0020FDF757
:1036000087FFC420FDF776FF6220FDF781FF0020D1
:10361000FDF77EFF0520FDF77BFF0020FDF778FF1B
:103620008420FDF775FF0020FDF772FFF020FDF705
:103630006FFF0020FDF76CFF1820FDF769FF0020E9
:10364000FDF766FFA420FDF763FF0020FDF760FF94
:103650001820FDF75DFF0020FDF75AFF5020FDF711
:1036600057FF0020FDF754FF0C20FDF751FF00200D
:10367000FDF74EFF1720FDF74BFF0020FDF748FF39
:103680009520FDF745FF0020FDF742FFF320FDF7F1
:103690003FFF0020FDF73CFFE620FDF739FF00204B
:1036A000FDF736FFC520FDF725FF3220FDF730FF7F
:1036B0000020FDF72DFF4420FDF72AFF0020FDF735
:1036C00027FF6520FDF724FF0020FDF721FF76206E
:1036D000FDF71EFF0020FDF71BFF8820FDF718FFF8
:1036E0000020FDF715FFC620FDF704FF2020FDF7A1
:1036F0000FFF0020FDF70CFF1720FDF709FF00204A
:10370000FDF706FF0120FDF703FF0020FDF700FF96
:10371000C720FDF7EFFE0020FDF7FAFE0020FDF7C1
:10372000F7FE0020FDF7F4FE0020FDF7F1FEC820B3
:10373000FDF7E0FE0020FDF7EBFE0020FDF7E8FEC0
:103740000020FDF7E5FE0020FDF7E2FEC920FDF7B1
:10375000D1FE0020FDF7DCFE0020FDF7D9FE0020A1
:10376000FDF7D6FE0020FDF7D3FE0020FDF7D0FECA
:103770000020FDF7CDFE0020FDF7CAFE0020FDF77A
:10378000C7FE0020FDF7C4FE0020FDF7C1FE0020AB
:10379000FDF7BEFE0020FDF7BBFE0020FDF7B8FEE2
:1037A0000020FDF7B5FE0020FDF7B2FE0020FDF77A
:1037B000AFFEE020FDF79EFE1620FDF7A9FE0020DB
:1037C000FDF7A6FE1C20FDF7A3FE0020FDF7A0FEDE
:1037D0002120FDF79DFE0020FDF79AFE3620FDF723
:1037E00097FE0020FDF794FE4620FDF791FE002095
:1037F000FDF78EFE5220FDF78BFE0020FDF788FEC0
:103800006420FDF785FE0020FDF782FE7A20FDF79B
:103810007FFE0020FDF77CFE8B20FDF779FE002067
:10382000FDF776FE9920FDF773FE0020FDF770FE90
:10383000A820FDF76DFE0020FDF76AFEB920FDF718
:1038400067FE0020FDF764FEC420FDF761FE002046
:10385000FDF75EFECA20FDF75BFE0020FDF758FE77
:10386000D220FDF755FE0020FDF752FED920FDF7CE
:103870004FFE0020FDF74CFEE020FDF749FE002042
:10388000FDF746FEF320FDF743FE0020FDF740FE66
:10389000E120FDF72FFE1620FDF73AFE0020FDF790
:1038A00037FE1C20FDF734FE0020FDF731FE2220FC
:1038B000FDF72EFE0020FDF72BFE3620FDF728FE3B
:1038C0000020FDF725FE4520FDF722FE0020FDF734
:1038D0001FFE5220FDF71CFE0020FDF719FE64209C
:1038E000FDF716FE0020FDF713FE7A20FDF710FE0F
:1038F0000020FDF70DFE8B20FDF70AFE0020FDF7EE
:1039000007FE9920FDF704FE0020FDF701FEA82028
:10391000FDF7FEFD0020FDF7FBFDB920FDF7F8FDEA
:103920000020FDF7F5FDC420FDF7F2FD0020FDF7B6
:10393000EFFDCA20FDF7ECFD0020FDF7E9FDD220E8
:10394000FDF7E6FD0020FDF7E3FDD820FDF7E0FDE3
:103950000020FDF7DDFDE020FDF7DAFD0020FDF79A
:10396000D7FDF320FDF7D4FD0020FDF7D1FDE220C7
:10397000FDF7C0FD0520FDF7CBFD0020FDF7C8FDDC
:103980000B20FDF7C5FD0020FDF7C2FD1B20FDF754
:10399000BFFD0020FDF7BCFD3420FDF7B9FD002080
:1039A000FDF7B6FD4420FDF7B3FD0020FDF7B0FDA7
:1039B0004F20FDF7ADFD0020FDF7AAFD6120FDF7CA
:1039C000A7FD0020FDF7A4FD7920FDF7A1FD002053
:1039D000FDF79EFD8820FDF79BFD0020FDF798FD7B
:1039E0009720FDF795FD0020FDF792FDA620FDF73D
:1039F0008FFD0020FDF78CFDB720FDF789FD00202D
:103A0000FDF786FDC220FDF783FD0020FDF780FD58
:103A1000C720FDF77DFD0020FDF77AFDD120FDF7E1
:103A200077FD0020FDF774FDD620FDF771FD002025
:103A3000FDF76EFDDD20FDF76BFD0020FDF768FD55
:103A4000F320FDF765FD0020FDF762FDE320FDF7A3
:103A500051FD0520FDF75CFD0020FDF759FD0A2012
:103A6000FDF756FD0020FDF753FD1C20FDF750FD2E
:103A70000020FDF74DFD3320FDF74AFD0020FDF746
:103A800047FD4420FDF744FD0020FDF741FD502097
:103A9000FDF73EFD0020FDF73BFD6220FDF738FD00
:103AA0000020FDF735FD7820FDF732FD0020FDF701
:103AB0002FFD8820FDF72CFD0020FDF729FD972024
:103AC000FDF726FD0020FDF723FDA620FDF720FDD4
:103AD0000020FDF71DFDB720FDF71AFD0020FDF7C2
:103AE00017FDC220FDF714FD0020FDF711FDC720D2
:103AF000FDF70EFD0020FDF70BFDD120FDF708FDC1
:103B00000020FDF705FDD520FDF702FD0020FDF7A3
:103B1000FFFCDD20FDF7FCFC0020FDF7F9FCF320A5
:103B2000FDF7F6FC0020FDF7F3FCE420FDF7E2FCD6
:103B30000120FDF7EDFC0020FDF7EAFC0120FDF778
:103B4000E7FC0020FDF7E4FC0220FDF7E1FC00208B
:103B5000FDF7DEFC2A20FDF7DBFC0020FDF7D8FC9A
:103B60003C20FDF7D5FC0020FDF7D2FC4B20FDF7F3
:103B7000CFFC0020FDF7CCFC5D20FDF7C9FC002048
:103B8000FDF7C6FC7420FDF7C3FC0020FDF7C0FC68
:103B90008420FDF7BDFC0020FDF7BAFC9320FDF763
:103BA000B7FC0020FDF7B4FCA220FDF7B1FC00201B
:103BB000FDF7AEFCB320FDF7ABFC0020FDF7A8FC41
:103BC000BE20FDF7A5FC0020FDF7A2FCC420FDF7F8
:103BD0009FFC0020FDF79CFCCD20FDF799FC002008
:103BE000FDF796FCD320FDF793FC0020FDF790FC39
:103BF000DD20FDF78DFC0020FDF78AFCF320FDF7AA
:103C000087FC0020FDF784FCE520FDF773FC002015
:103C1000FDF77EFC0020FDF77BFC0020FDF778FC23
:103C20000020FDF775FC0220FDF772FC0020FDF777
:103C30006FFC2920FDF76CFC0020FDF769FC3C209F
:103C4000FDF766FC0020FDF763FC4B20FDF760FCF0
:103C50000020FDF75DFC5D20FDF75AFC0020FDF71C
:103C600057FC7420FDF754FC0020FDF751FC842024
:103C7000FDF74EFC0020FDF74BFC9320FDF748FCC0
:103C80000020FDF745FCA220FDF742FC0020FDF7D7
:103C90003FFCB320FDF73CFC0020FDF739FCBE20C3
:103CA000FDF736FC0020FDF733FCC420FDF730FCA7
:103CB0000020FDF72DFCCD20FDF72AFC0020FDF7AC
:103CC00027FCD320FDF724FC0020FDF721FCDC209D
:103CD000FDF71EFC0020FDF71BFCF320FDF718FC90
:103CE0000020FDF715FCE620FDF704FC1120FDF790
:103CF0000FFC0020FDF70CFC3420FDF709FC002030
:103D0000FDF706FC5620FDF703FC0020FDF700FC44
:103D10007620FDF7FDFB0020FDF7FAFB7720FDF78D
:103D2000F7FB0020FDF7F4FB6620FDF7F1FB002018
:103D3000FDF7EEFB8820FDF7EBFB0020FDF7E8FB2D
:103D40009920FDF7E5FB0020FDF7E2FBBB20FDF726
:103D5000DFFB0020FDF7DCFB9920FDF7D9FB0020FD
:103D6000FDF7D6FB6620FDF7D3FB0020FDF7D0FB67
:103D70005520FDF7CDFB0020FDF7CAFB5520FDF7D0
:103D8000C7FB0020FDF7C4FB4520FDF7C1FB002069
:103D9000FDF7BEFB4320FDF7BBFB0020FDF7B8FBA2
:103DA0004420FDF7B5FB0020FDF7B2FBE720FDF74F
:103DB000A1FB3220FDF7ACFB0020FDF7A9FB55204D
:103DC000FDF7A6FB0020FDF7A3FB7620FDF7A0FB87
:103DD0000020FDF79DFB6620FDF79AFB0020FDF714
:103DE00097FB6720FDF794FB0020FDF791FB672010
:103DF000FDF78EFB0020FDF78BFB8720FDF788FB8E
:103E00000020FDF785FB9920FDF782FB0020FDF7E0
:103E10007FFBBB20FDF77CFB0020FDF779FB9920A1
:103E2000FDF776FB0020FDF773FB7720FDF770FBB5
:103E30000020FDF76DFB4420FDF76AFB0020FDF735
:103E400067FB5620FDF764FB0020FDF761FB232094
:103E5000FDF75EFB0020FDF75BFB3320FDF758FB11
:103E60000020FDF755FB4520FDF752FB0020FDF734
:103E70004FFBE820FDF73EFB0020FDF749FB00204B
:103E8000FDF746FB9920FDF743FB0020FDF740FBC3
:103E90008720FDF73DFB0020FDF73AFB8820FDF76A
:103EA00037FB0020FDF734FB7720FDF731FB0020C6
:103EB000FDF72EFB6620FDF72BFB0020FDF728FB0E
:103EC0008820FDF725FB0020FDF722FBAA20FDF747
:103ED0001FFB0020FDF71CFBBB20FDF719FB00209A
:103EE000FDF716FB9920FDF713FB0020FDF710FBF3
:103EF0006620FDF70DFB0020FDF70AFB5520FDF7BE
:103F000007FB0020FDF704FB5520FDF701FB002017
:103F1000FDF7FEFA4420FDF7FBFA0020FDF7F8FA62
:103F20004420FDF7F5FA0020FDF7F2FA5520FDF7E1
:103F3000EFFA0020FDF7ECFAE920FDF7DBFAAA2002
:103F4000FDF7E6FA0020FDF7E3FA0020FDF7E0FABE
:103F50000020FDF7DDFA0020FDF7CCFAAA20FDF7DE
:103F6000D7FACF20FDF7C6FA0020FDF7D1FA0020DE
:103F7000FDF7CEFA0020FDF7CBFA0020FDF7C8FAD6
:103F80000020FDF7C5FA0020FDF7C2FA0020FDF77A
:103F9000BFFA0020FDF7BCFA0020FDF7B9FA0020B7
:103FA000FDF7B6FA0020FDF7B3FA0020FDF7B0FAEE
:103FB0000020FDF7ADFA0020FDF7AAFA0020FDF77A
:103FC000A7FA0020FDF7A4FA0020FDF7A1FAF020DF
:103FD000FDF790FA0020FDF79BFA5020FDF798FAC4
:103FE0000020FDF795FA0020FDF792FA0020FDF77A
:103FF0008FFAF320FDF77EFA0020FDF789FAF92009
:10400000FDF778FA0620FDF783FA1020FDF780FA15
:104010002920FDF77DFA0020FDF77AFA3A20FDF716
:1040200069FA5520FDF774FA1120FDF763FA642050
:10403000FDF7C4F82920FDF75DFA3520FDF75AFA9F
:104040000020FDF765FA5120FDF754FAFF20FDF737
:104050005FFA5320FDF74EFA2C20FDF759FA552050
:10406000FDF748FA8220FDF753FA2C20FDF742FABB
:1040700002F065BBFE48808845F2105188427DD130
:1040800055214FF47040FDF782FAAA214FF201004A
:10409000FDF77DFA52214FF20200FDF778FA082170
:1040A0004FF20300FDF773FA01214FF20400FDF710
:1040B0006EFA0D214FF43040FDF769FA0D214BF2F5
:1040C0000100FDF764FA0D214BF20200FDF75FFAE3
:1040D00034214FF43640FDF75AFA34214BF2016097
:1040E000FDF755FA34214BF20260FDF750FA0D212D
:1040F0004FF43140FDF74BFA0D214BF20110FDF763
:1041000046FA0D214BF20210FDF741FA34214FF42B
:104110003740FDF73CFA34214BF20170FDF737FAD6
:1041200034214BF20270FDF732FA00214FF4324095
:10413000FDF72DFA00214BF20120FDF728FA0021AE
:104140004BF20220FDF723FA24214FF43840FDF70B
:104150001EFA24214BF60100FDF719FA24214BF633
:104160000200FDF714FA01214FF43F40FDF70FFA6A
:104170000F214FF43340FDF70AFA00E0FDE30F2171
:104180004BF20130FDF703FA0F214BF20230FDF73D
:10419000FEF934214FF43940FDF7F9F934214BF69B
:1041A0000110FDF7F4F934214BF60210FDF7EFF999
:1041B00008214FF43540FDF7EAF908214BF2015090
:1041C000FDF7E5F908214BF20250FDF7E0F9032174
:1041D0004FF44240FDF7DBF924214FF43A40FDF75C
:1041E000D6F924214BF60120FDF7D1F924214BF615
:1041F0000220FDF7CCF900214FF43C40FDF7C7F950
:1042000078214BF60140FDF7C2F900214BF6024040
:10421000FDF7BDF900214FF43D40FDF7B8F97821D5
:104220004BF60150FDF7B3F900214BF60250FDF7B4
:10423000AEF900214FF43E40FDF7A9F964214BF699
:104240000160FDF7A4F900214FF45140FDF79FF9FB
:1042500033214DF20110FDF79AF900214DF20210C1
:10426000FDF795F934214DF20310FDF790F9002187
:104270004DF20410FDF78BF93A214DF20510FDF7D0
:1042800086F900214DF20610FDF781F94A214DF221
:104290000710FDF77CF900214DF20810FDF777F9C2
:1042A0005C214DF20910FDF772F900214DF20A1060
:1042B000FDF76DF981214DF20B10FDF768F9002132
:1042C0004DF20C10FDF763F9A6214DF20D10FDF72C
:1042D0005EF900214DF20E10FDF759F9E5214DF27E
:1042E0000F10FDF754F901214DF21010FDF74FF9B1
:1042F00013214DF21110FDF74AF901214DF2121070
:10430000FDF745F954214DF21310FDF740F9012155
:104310004DF21410FDF73BF982214DF21510FDF717
:1043200036F901214DF21610FDF731F9CA214DF28F
:104330001710FDF72CF902214DF21810FDF727F99F
:1043400000214DF21910FDF722F902214DF21A1049
:10435000FDF71DF901214DF21B10FDF718F902219F
:104360004DF21C10FDF713F934214DF21D10FDF72D
:104370000EF902214DF21E10FDF709F967214DF2E9
:104380001F10FDF704F902214DF22010FDF7FFF890
:1043900084214DF22110FDF7FAF802214DF222108E
:1043A000FDF7F5F8A4214DF22310FDF7F0F80221F6
:1043B0004DF22410FDF7EBF8B7214DF22510FDF773
:1043C000E6F802214DF22610FDF7E1F8CF214DF27B
:1043D0002710FDF7DCF802214DF22810FDF7D7F881
:1043E000DE214DF22910FDF7D2F802214DF22A10FC
:1043F000FDF7CDF8F2214DF22B10FDF7C8F80221A0
:104400004DF22C10FDF7C3F8FE214DF22D10FDF7F3
:10441000BEF803214DF22E10FDF7B9F810214DF230
:104420002F10FDF7B4F803214DF23010FDF7AFF86F
:1044300033214DF23110FDF7AAF803214DF232106D
:10444000FDF7A5F86D214DF23310FDF7A0F800211E
:104450004FF45240FDF79BF833214DF20120FDF758
:1044600096F800214DF20220FDF791F8342101E089
:10447000380000204DF20320FDF789F800214DF2AD
:104480000420FDF784F83A214DF20520FDF77FF86E
:1044900000214DF20620FDF77AF84A214DF207205F
:1044A000FDF775F800214DF20820FDF770F85C214A
:1044B0004DF20920FDF76BF800214DF20A20FDF7BF
:1044C00066F881214DF20B20FDF761F800214DF2D5
:1044D0000C20FDF75CF8A6214DF20D20FDF757F8F2
:1044E00000214DF20E20FDF752F8E5214DF20F208C
:1044F000FDF74DF801214DF21020FDF748F813218A
:104500004DF21120FDF743F801214DF21220FDF785
:104510003EF854214DF21320FDF739F801214DF2F8
:104520001420FDF734F882214DF21520FDF72FF805
:1045300001214DF21620FDF72AF8CA214DF217206D
:10454000FDF725F802214DF21820FDF720F8002193
:104550004DF21920FDF71BF802214DF21A20FDF74C
:1045600016F801214DF21B20FDF711F802214DF242
:104570001C20FDF70CF834214DF21D20FDF707F843
:1045800002214DF21E20FDF702F867214DF21F2097
:10459000FCF7FDFF02214DF22020FCF7F8FF8421FB
:1045A0004DF22120FCF7F3FF02214DF22220FCF70F
:1045B000EEFFA4214DF22320FCF7E9FF02214DF28A
:1045C0002420FCF7E4FFB7214DF22520FCF7DFFFA4
:1045D00002214DF22620FCF7DAFFCF214DF22720F1
:1045E000FCF7D5FF02214DF22820FCF7D0FFDE2199
:1045F0004DF22920FCF7CBFF02214DF22A20FCF7D7
:10460000C6FFF2214DF22B20FCF7C1FF02214DF233
:104610002C20FCF7BCFFFE214DF22D20FCF7B7FF4C
:1046200003214DF22E20FCF7B2FF10214DF22F2076
:10463000FCF7ADFF03214DF23020FCF7A8FF33213A
:104640004DF23120FCF7A3FF03214DF23220FCF79D
:104650009EFF6D214DF23320FCF799FF00214FF4AE
:104660005340FCF794FF33214DF20130FCF78FFFEC
:1046700000214DF20230FCF78AFF34214DF2033065
:10468000FCF785FF00214DF20430FCF780FF3A2152
:104690004DF20530FCF77BFF00214DF20630FCF7B0
:1046A00076FF4A214DF20730FCF771FF00214DF2F1
:1046B0000830FCF76CFF5C214DF20930FCF767FF16
:1046C00000214DF20A30FCF762FF81214DF20B30E0
:1046D000FCF75DFF00214DF20C30FCF758FFA621DE
:1046E0004DF20D30FCF753FF00214DF20E30FCF778
:1046F0004EFFE5214DF20F30FCF749FF01214DF24D
:104700001030FCF744FF13214DF21130FCF73FFF4E
:1047100001214DF21230FCF73AFF54214DF21330D3
:10472000FCF735FF01214DF21430FCF730FF8221F8
:104730004DF21530FCF72BFF01214DF21630FCF73E
:1047400026FFCA214DF21730FCF721FF02214DF25E
:104750001830FCF71CFF00214DF21930FCF717FF51
:1047600002214DF21A30FCF712FF01214DF21B30ED
:10477000FCF70DFF02214DF21C30FCF708FF34213D
:104780004DF21D30FCF703FF02214DF21E30FCF705
:10479000FEFE67214DF21F30FCF7F9FE02214DF2BB
:1047A0002030FCF7F4FE84214DF22130FCF7EFFEBF
:1047B00002214DF22230FCF7EAFEA4214DF2233013
:1047C000FCF7E5FE02214DF22430FCF7E0FEB721B4
:1047D0004DF22530FCF7DBFE02214DF22630FCF7CE
:1047E000D6FECF214DF22730FCF7D1FE02214DF24B
:1047F0002830FCF7CCFEDE214DF22930FCF7C7FE55
:1048000002214DF22A30FCF7C2FEF2214DF22B308C
:10481000FCF7BDFE02214DF22C30FCF7B8FEFE2164
:104820004DF22D30FCF7B3FE03214DF22E30FCF794
:10483000AEFE10214DF22F30FCF7A9FE03214DF200
:104840003030FCF7A4FE33214DF23130FCF79FFEEF
:1048500003214DF23230FCF79AFE6D214DF23330D8
:10486000FCF795FE00214FF45440FCF790FE3321F5
:104870004DF20140FCF78BFE00214DF20240FCF7A7
:1048800086FE34214DF20340FCF781FE00214DF2FB
:104890000440FCF77CFE3A214DF20540FCF777FE20
:1048A00000214DF20640FCF772FE4A214DF207400E
:1048B000FCF76DFE00214DF20840FCF768FE5C211C
:1048C0004DF20940FCF763FE00214DF20A40FCF76F
:1048D0005EFE81214DF20B40FCF759FE00214DF2A6
:1048E0000C40FCF754FEA6214DF20D40FCF74FFEA4
:1048F00000214DF20E40FCF74AFEE5214DF20F403B
:10490000FCF745FE01214DF21040FCF740FE13215B
:104910004DF21140FCF73BFE01214DF21240FCF735
:1049200036FE54214DF21340FCF731FE01214DF2C9
:104930001440FCF72CFE82214DF21540FCF727FEB7
:1049400001214DF21640FCF722FECA214DF217401C
:10495000FCF71DFE02214DF21840FCF718FE002165
:104960004DF21940FCF713FE02214DF21A40FCF7FC
:104970000EFE01214DF21B4000E006E3FCF707FEAE
:1049800002214DF21C40FCF702FE34214DF21D4085
:10499000FCF7FDFD02214DF21E40FCF7F8FD6721FA
:1049A0004DF21F40FCF7F3FD02214DF22040FCF7D1
:1049B000EEFD84214DF22140FCF7E9FD02214DF28C
:1049C0002240FCF7E4FDA4214DF22340FCF7DFFD7B
:1049D00002214DF22440FCF7DAFDB7214DF22540CB
:1049E000FCF7D5FD02214DF22640FCF7D0FDCF218A
:1049F0004DF22740FCF7CBFD02214DF22840FCF799
:104A0000C6FDDE214DF22940FCF7C1FD02214DF229
:104A10002A40FCF7BCFDF2214DF22B40FCF7B7FD1C
:104A200002214DF22C40FCF7B2FDFE214DF22D404B
:104A3000FCF7ADFD03214DF22E40FCF7A8FD10213F
:104A40004DF22F40FCF7A3FD03214DF23040FCF75F
:104A50009EFD33214DF23140FCF799FD03214DF2CB
:104A60003240FCF794FD6D214DF23340FCF78FFD91
:104A700000214FF45540FCF78AFD33214DF20150DF
:104A8000FCF785FD00214DF20250FCF780FD34213A
:104A90004DF20350FCF77BFD00214DF20450FCF772
:104AA00076FD3A214DF20550FCF771FD00214DF2E3
:104AB0000650FCF76CFD4A214DF20750FCF767FDEC
:104AC00000214DF20850FCF762FD5C214DF20950C7
:104AD000FCF75DFD00214DF20A50FCF758FD8121E5
:104AE0004DF20B50FCF753FD00214DF20C50FCF73A
:104AF0004EFDA6214DF20D50FCF749FD00214DF26F
:104B00000E50FCF744FDE5214DF20F50FCF73FFD40
:104B100001214DF21050FCF73AFD13214DF21150D6
:104B2000FCF735FD01214DF21250FCF730FD542108
:104B30004DF21350FCF72BFD01214DF21450FCF700
:104B400026FD82214DF21550FCF721FD01214DF289
:104B50001650FCF71CFDCA214DF21750FCF717FD4B
:104B600002214DF21850FCF712FD00214DF21950B0
:104B7000FCF70DFD02214DF21A50FCF708FD012152
:104B80004DF21B50FCF703FD02214DF21C50FCF7C7
:104B9000FEFC34214DF21D50FCF7F9FC02214DF2D0
:104BA0001E50FCF7F4FC67214DF21F50FCF7EFFCA0
:104BB00002214DF22050FCF7EAFC84214DF22150F5
:104BC000FCF7E5FC02214DF22250FCF7E0FCA421A9
:104BD0004DF22350FCF7DBFC02214DF22450FCF790
:104BE000D6FCB7214DF22550FCF7D1FC02214DF245
:104BF0002650FCF7CCFCCF214DF22750FCF7C7FC28
:104C000002214DF22850FCF7C2FCDE214DF2295062
:104C1000FCF7BDFC02214DF22A50FCF7B8FCF22152
:104C20004DF22B50FCF7B3FC02214DF22C50FCF757
:104C3000AEFCFE214DF22D50FCF7A9FC03214DF2F4
:104C40002E50FCF7A4FC10214DF22F50FCF79FFCD6
:104C500003214DF23050FCF79AFC33214DF23150D4
:104C6000FCF795FC03214DF23250FCF790FC6D21CE
:104C70004DF23350FCF78BFC00214FF45640FCF70B
:104C800086FC33214DF20160FCF781FC00214DF2DE
:104C90000260FCF77CFC34214DF20360FCF777FCEA
:104CA00000214DF20460FCF772FC3A214DF20560E0
:104CB000FCF76DFC00214DF20660FCF768FC4A2110
:104CC0004DF20760FCF763FC00214DF20860FCF731
:104CD0005EFC5C214DF20960FCF759FC00214DF2AD
:104CE0000A60FCF754FC81214DF20B60FCF74FFC8D
:104CF00000214DF20C60FCF74AFCA6214DF20D603C
:104D0000FCF745FC00214DF20E60FCF740FCE5216C
:104D10004DF20F60FCF73BFC01214DF21060FCF7F7
:104D200036FC13214DF21160FCF731FC01214DF2EC
:104D30001260FCF72CFC54214DF21360FCF727FCA9
:104D400001214DF21460FCF722FC82214DF2156026
:104D5000FCF71DFC01214DF21660FCF718FCCA217E
:104D60004DF21760FCF713FC02214DF21860FCF7BE
:104D70000EFC00214DF21960FCF709FC02214DF2F6
:104D80001A60FCF704FC01214DF21B60FCF7FFFBED
:104D900002214DF21C60FCF7FAFB34214DF21D603C
:104DA000FCF7F5FB02214DF21E60FCF7F0FB6721DA
:104DB0004DF21F60FCF7EBFB02214DF22060FCF787
:104DC000E6FB84214DF22160FCF7E1FB02214DF26C
:104DD0002260FCF7DCFBA4214DF22360FCF7D7FB3B
:104DE00002214DF22460FCF7D2FBB7214DF2256081
:104DF000FCF7CDFB02214DF22660FCF7C8FBCF216A
:104E00004DF22760FCF7C3FB02214DF22860FCF74E
:104E1000BEFBDE214DF22960FCF7B9FB02214DF209
:104E20002A60FCF7B4FBF2214DF22B60FCF7AFFBDC
:104E300002214DF22C60FCF7AAFBFE214DF22D6001
:104E4000FCF7A5FB03214DF22E60FCF7A0FB10211F
:104E50004DF22F60FCF79BFB03214DF23060FCF715
:104E600096FB33214DF23160FCF791FB03214DF2AB
:104E70003260FCF78CFB6D214DF23360FCF787FB51
:104E800055214FF47040FCF782FBAA214FF201003C
:104E9000FCF77DFB52214FF20200FCF778FB082162
:104EA0004FF20300FCF773FB00214FF20400FCF704
:104EB0006EFBCC214FF43140FCF769FB00214BF233
:104EC0000110FCF764FB05214FF43640FCF75FFB53
:104ED00070214FF43740FCF75AFB70214BF2017000
:104EE000FCF755FB01214FF43840FCF750FB032140
:104EF0004BF60100FCF74BFB03214BF60200FCF7DD
:104F000046FB03214BF60300FCF741FB02214FF463
:104F10003C40FCF73CFB00214BF60140FCF737FB23
:104F200000214BF60240FCF732FBD0214FF4494000
:104F3000FCF72DFB02214CF60110FCF728FB502159
:104F40004CF60210FCF723FB50214CF60310FCF743
:104F50001EFB50214CF60410FCF719FB00214FF406
:104F60005450FCF714FB55214FF46850FCF70FFB2D
:104F70004FF48850FCF7BEFA7820FCF708F94FF49C
:104F80002450FCF7B7FA01F0DABBFE48808849F2FA
:104F9000253188427ED147F6F001E520FCF7F7FA8B
:104FA0004FF480710120FCF7F2FA4FF4E061022027
:104FB000FCF7EDFA41F230010320FCF7E8FA00219A
:104FC0000420FCF7E4FA40F202210820FCF7DFFAA3
:104FD00000210920FCF7DBFA00210A20FCF7D7FAB0
:104FE00000210C20FCF7D3FA00210D20FCF7CFFAAA
:104FF00000210F20FCF7CBFA00211020FCF7C7FAA4
:1050000007211120FCF7C3FA00211220FCF7BFFA98
:1050100000211320FCF7BBFA00210720FCF7B7FAA8
:1050200041F290611020FCF7B2FA40F227211120E2
:10503000FCF7ADFA9D211220FCF7A9FA4FF4C851F4
:105040001320FCF7A4FA25212920FCF7A0FA0D2152
:105050002B20FCF79CFA07213020FCF798FA40F24D
:1050600003313120FCF793FA03213220FCF78FFA49
:1050700040F206213520FCF78AFA08213620FCF799
:1050800086FA40F206413720FCF781FA4FF441716D
:10509000382000E057E0FCF77AFA07213920FCF7C6
:1050A00076FA40F202613C20FCF771FA08213D20BB
:1050B000FCF76DFA00215020FCF769FAEF2151202E
:1050C000FCF765FA00215220FCF761FA40F23F112B
:1050D0005320FCF75CFA4FF427416020FCF757FAA5
:1050E00001216120FCF753FA00216A20FCF74FFAF6
:1050F00000218020FCF74BFA00218120FCF747FAC1
:1051000000218220FCF743FA00218320FCF73FFABC
:1051100000218420FCF73BFA00218520FCF737FAB8
:1051200010219020FCF733FA4FF4C0619220FCF775
:105130002EFA40F233110720FCF729FA2221002031
:10514000FCF725FA1FE78F48808849F2283188420A
:105150007ED141F28F01EC20FCF719FA41F23421A3
:10516000EF20FCF714FA4FF480710120FCF70FFADE
:105170004FF4E0610220FCF70AFA41F2300103200B
:10518000FCF705FA00210420FCF701FA40F20221A5
:105190000820FCF7FCF900210920FCF7F8F90021B0
:1051A0000A20FCF7F4F901210C20FCF7F0F90021AA
:1051B0000D20FCF7ECF900210F20FCF7E8F90021A5
:1051C0001020FCF7E4F907211120FCF7E0F9002199
:1051D0001220FCF7DCF900211320FCF7D8F901219B
:1051E0000720FCF7D4F93220FBF7E8FF41F29041A9
:1051F0001020FCF7CCF940F227211120FCF7C7F969
:105200003220FBF7DBFF8A211220FCF7C0F93220A5
:10521000FBF7D4FF4FF4D0511320FCF7B8F9062167
:105220002920FCF7B4F90D212B20FCF7B0F932202E
:10523000FBF7C4FF00212020FCF7A9F90021212061
:10524000FCF7A5F93220FBF7B9FF0021302000E080
:1052500074E0FCF79CF940F204613120FCF797F907
:1052600040F205313220FCF792F900213520FCF79D
:105270008EF940F609413620FCF789F94FF40171A7
:105280003720FCF784F940F201313820FCF77FF930
:1052900040F207713920FCF77AF900213C20FCF735
:1052A00076F940F60A213D20FCF771F93220FBF730
:1052B00085FF00215020FCF76AF9EF215120FCF70F
:1052C00066F900215220FCF762F940F23F115320A9
:1052D000FCF75DF94FF427416020FCF758F90121F4
:1052E0006120FCF754F900216A20FCF750F90021F5
:1052F0008020FCF74CF900218120FCF748F90021BF
:105300008220FCF744F900218320FCF740F90021BA
:105310008420FCF73CF900218520FCF738F91021A6
:105320009020FCF734F94FF4C0619220FCF72FF97C
:1053300040F233110720FCF72AF924E6114880884F
:1053400049F2203188427DD100210846FCF71FF93F
:105350004FF480710120FCF71AF94FF4E06102204C
:10536000FCF715F941F230010320FCF710F9002198
:105370000420FCF70CF940F202210820FCF707F9A1
:10538000002101E0380000200920FCF700F900218D
:105390000A20FCF7FCF801210C20FCF7F8F80021AA
:1053A0000D20FCF7F4F800210F20FCF7F0F8322074
:1053B000FBF704FF40F201110720FCF7E8F8322068
:1053C000FBF7FCFE4FF486511020FCF7E0F80721B4
:1053D0001120FCF7DCF84FF488711220FCF7D7F8A5
:1053E0004FF430611320FCF7D2F800212920FCF79C
:1053F000CEF844F210012B20FCF7C9F80021502010
:10540000FCF7C5F8EF215120FCF7C1F8002152202C
:10541000FCF7BDF840F23F115320FCF7B8F84FF409
:105420001C516020FCF7B3F801216120FCF7AFF8B4
:1054300000216A20FCF7ABF800218020FCF7A7F8D8
:10544000002100E031E08120FCF7A1F8002182205A
:10545000FCF79DF800218320FCF799F800218420B7
:10546000FCF795F800218520FCF791F81021902099
:10547000FCF78DF800219220FCF789F80121932098
:10548000FCF785F84FF488719520FCF780F800212F
:105490009720FCF77CF800219820FCF778F840F280
:1054A00073110720FCF773F86DE5FE48808849F218
:1054B000313188427DD141F21401E720FCF767F8D1
:1054C0004FF480710120FCF762F84FF40071022064
:1054D000FCF75DF841F238010320FCF758F840F280
:1054E00002210820FCF753F800210920FCF74FF8AF
:1054F00000210A20FCF74BF800210C20FCF747F8AC
:1055000000210D20FCF743F800210F20FCF73FF8A5
:1055100000211020FCF73BF807211120FCF737F899
:1055200000211220FCF733F800211320FCF72FF89C
:10553000C820FBF743FE41F290611020FCF727F8EA
:1055400040F227211120FCF722F83220FBF736FE2B
:105550000C211220FCF71BF83220FBF72FFE4FF432
:1055600000611320FCF713F811212920FCF70FF834
:105570000B212B20FCF70BF83220FBF71FFE00213C
:105580002020FCF704F840F23F112120FBF7FFFF39
:1055900000213020FBF7FBFF4FF483713120FBF734
:1055A000F6FF00213220FBF7F2FF4FF401713520A6
:1055B00000E064E0FBF7EBFF41F20A613620FBF705
:1055C000E6FF40F207713720FBF7E1FF4FF48371EC
:1055D0003820FBF7DCFF40F207713920FBF7D7FFDB
:1055E00040F202413C20FBF7D2FF40F60F413D2044
:1055F000FBF7CDFF00215020FBF7C9FFEF21512021
:10560000FBF7C5FF00215220FBF7C1FF40F23F111D
:105610005320FBF7BCFF4FF41C516020FBF7B7FF92
:1056200001216120FBF7B3FF00216A20FBF7AFFFE8
:1056300000218020FBF7ABFF00218120FBF7A7FFB3
:1056400000218220FBF7A3FF00218320FBF79FFFAF
:1056500000218420FBF79BFF00218520FBF797FFAB
:1056600010219020FBF793FF4FF4C0619220FBF7CD
:105670008EFF40F233110720FBF789FF83E489484E
:10568000808845F2084188427ED14FF48071012024
:10569000FBF77DFF4FF4E0610220FBF778FF41F25A
:1056A00030010320FBF773FF00210420FBF76FFF9D
:1056B00040F207210820FBF76AFF00210920FBF7D1
:1056C00066FF00210A20FBF762FF00210C20FBF798
:1056D0005EFF00210D20FBF75AFF00210F20FBF792
:1056E00056FF1420FBF76AFD41F2B0611020FBF772
:1056F0004EFF01211120FBF74AFF01211720FBF784
:1057000046FF4FF49C711220FBF741FF4FF40061FC
:105710001320FBF73CFF09212920FBF738FF092163
:105720002A20FBF734FF0021A420FBF730FF0021E3
:105730005020FBF72CFFEF215120FBF728FF002121
:105740005220FBF724FF40F23F115320FBF71FFFCD
:105750004FF41C516020FBF71AFF01216120FBF779
:1057600016FF00216A20FBF712FF00218020FBF7C3
:105770000EFF00218120FBF70AFF00218220FBF7AA
:1057800006FF0021832000E023E0FBF700FF00215B
:105790008420FBF7FCFE00218520FBF7F8FE132197
:1057A0009020FBF7F4FE00219220FBF7F0FE03218E
:1057B0009320FBF7ECFE4FF488719520FBF7E7FE92
:1057C00040F273110720FBF7E2FE3220FBF7F6FCF4
:1057D000B8E43448808841F2055188427ED10021E6
:1057E0000720FBF7D4FE3220FBF7E8FC4FF48E7164
:1057F0001220FBF7CCFE0121A420FBF7C8FE0F21ED
:105800000820FBF7C4FE08210A20FBF7C0FE082190
:105810000D20FBF7BCFE40F207713020FBF7B7FE0E
:1058200007213120FBF7B3FE40F203613220FBF782
:10583000AEFE4FF4E0613320FBF7A9FE40F20221F7
:105840003420FBF7A4FE02213520FBF7A0FE41F631
:105850000F713620FBF79BFE40F207713720FBF7F4
:1058600096FE00213820FBF792FE00213920FBF73D
:105870008EFE40F207713A20FBF789FE00213B20A3
:10588000FBF785FE07213C20FBF781FE00213D2030
:10589000FBF77DFE3220FBF791FC01210720FBF78F
:1058A00076FE01E03800002001211720FBF76FFE93
:1058B0003220FBF783FC4FF4BD511020FBF767FE4D
:1058C00040F217211120FBF762FE4FF48F71122076
:1058D000FBF75DFE4FF47061132000E097E0FBF7EB
:1058E00056FE00212A20FBF752FE0A212920FBF751
:1058F0004EFE4FF49F711220FBF749FE002150200D
:10590000FBF745FEEF215120FBF741FE002152201D
:10591000FBF73DFE40F23F115320FBF738FE4FF4FA
:105920001C516020FBF733FE01216120FBF72FFEA5
:1059300000216A20FBF72BFE00218020FBF727FEC9
:1059400000218120FBF723FE00218220FBF71FFEB0
:1059500000218320FBF71BFE00218420FBF717FEAC
:1059600000218520FBF713FE13219020FBF70FFE8B
:105970004FF440719220FBF70AFE05219320FBF7BC
:1059800006FE00219520FBF702FE00219720FBF781
:10599000FEFD00219820FBF7FAFD4FF480710120F5
:1059A000FBF7F5FD4FF4E0610220FBF7F0FD41F25B
:1059B00038010320FBF7EBFD00210420FBF7E7FD96
:1059C00000210C20FBF7E3FD00210F20FBF7DFFD9A
:1059D00000212020FBF7DBFD00212120FBF7D7FD74
:1059E00021210720FBF7D3FD1420FBF7E7FB612102
:1059F0000720FBF7CCFD1420FBF7E0FB40F273110E
:105A00000720FBF7C4FD1420FBF7D8FB95E4FE4804
:105A100080884BF2055188427ED100210846FBF771
:105A2000B6FD00210846FBF7B2FD00210846FBF752
:105A3000AEFD00210846FBF7AAFD0121A420FBF7DB
:105A4000A6FD1420FBF7BAFB4FF41C516020FBF7B6
:105A50009EFD40F202210820FBF799FD4FF40571ED
:105A60003020FBF794FD43F215713120FBF78FFDD9
:105A700040F204613220FBF78AFD40F616613320C4
:105A8000FBF785FD42F211213420FBF780FD4FF436
:105A9000A8513520FBF77BFD48F207513620FBF774
:105AA00076FD41F207413720FBF771FD41F20341DA
:105AB0003820FBF76CFD20213920FBF768FD1A2107
:105AC0009020FBF764FD00211020FBF760FD07210B
:105AD0001120FBF75CFD00211220FBF758FD00218F
