:020000040800F2
:10000000B8060020CD010008D30C0008690C0008D8
:10001000D10C0008D3020008B70E00080000000051
:10002000000000000000000000000000D70C0008E5
:10003000D502000800000000D50C0008D90C00080B
:10004000E7010008E7010008E7010008E7010008F0
:10005000E7010008E7010008E7010008E7010008E0
:10006000E7010008E7010008E7010008E7010008D0
:10007000E7010008E7010008E7010008E7010008C0
:10008000E7010008E7010008E7010008E7010008B0
:10009000E7010008E7010008E7010008E7010008A0
:1000A000E7010008E7010008E7010008E701000890
:1000B000E7010008E7010008E7010008E701000880
:1000C000E7010008E7010008E7010008E701000870
:1000D000E7010008E7010008E7010008E701000860
:1000E000E7010008E7010008E7010008E701000850
:1000F000E7010008E7010008E7010008E701000840
:10010000E7010008E7010008E7010008E70100082F
:10011000E7010008E7010008E7010008E70100081F
:10012000E7010008E7010008E7010008E70100080F
:1001300000F002F800F03AF80AA090E8000C8244BF
:100140008344AAF10107DA4501D100F02FF8AFF29C
:10015000090EBAE80F0013F0010F18BFFB1A43F0A5
:1001600001031847F40D0000140E0000103A24BFDC
:1001700078C878C1FAD8520724BF30C830C144BF0C
:1001800004680C607047000000230024002500264E
:10019000103A28BF78C1FBD8520728BF30C148BFEA
:1001A0000B6070471FB51FBD10B510BD00F058F8AB
:1001B0001146FFF7F7FF00F08FFE00F076F803B46A
:1001C000FFF7F2FF03BC00F07DF80000094880470C
:1001D00009480047FEE7FEE7FEE7FEE7FEE7FEE729
:1001E000FEE7FEE7FEE7FEE704480549054A064B41
:1001F000704700003B0D000831010008B8000020E6
:10020000B8060020B8020020B80200204FF000021B
:1002100000B5134694469646203922BFA0E80C50FC
:10022000A0E80C50B1F12001BFF4F7AF090728BFD7
:10023000A0E80C5048BF0CC05DF804EB890028BF53
:1002400040F8042B08BF704748BF20F8022B11F07C
:10025000804F18BF00F8012B7047704770477047F8
:10026000754600F02BF8AE4605006946534620F06F
:100270000700854618B020B5FFF7B6FFBDE820405F
:100280004FF000064FF000074FF000084FF0000B52
:1002900021F00701AC46ACE8C009ACE8C009ACE805
:1002A000C009ACE8C0098D46704710B50446AFF3ED
:1002B00000802046BDE81040FFF781BF004870472E
:1002C0005800002001491820ABBEFEE726000200BE
:1002D0007047FEE7704772B6FEE700002DE9F84F61
:1002E000DFF8C8910024A9F1040B23460F2709F178
:1002F000040AABF1040ED1E00125A54006EA05028F
:10030000AA4276D1DFF8A8C14E68A6EB0C08664574
:100310002BD00DDC032E34D005DC36B3012E19D0E2
:10032000022E2FD11BE0112E16D0122E2AD119E049
:10033000B8F5881F19D006DCB8F5803F15D0B8F5A0
:10034000801F1FD111E0B8F5001F0ED0B8F5041FB3
:1003500018D10AE0CB6815E0CB681B1D12E0CB6812
:1003600008330FE0CB680C330CE08B682BB1012B0A
:100370004FF0080303D0456104E0042302E0056167
:1003800000E00023FF2A01D8064601E000F1040640
:100390004FEA840501D9A5F12005D6F8008007FAB7
:1003A00005FC28EA0C0803FA05F548EA0508C6F832
:1003B00000804D68ED0070D53E4DAE6946F00106F7
:1003C000AE61AD6924F0030605F0010500953A4DD4
:1003D00006EB050CDCF80850A607360F07FA06F8FE
:1003E00025EA0805DFF8D480404503D14FF0000826
:1003F00025E052E0DFF8C880404502D14FF0010807
:100400001DE0DFF8C080404502D14FF0020816E041
:10041000DFF8B480404502D14FF003080FE0DFF869
:10042000AC80404502D14FF0040808E0DFF8A0801E
:10043000404502D14FF0050801E04FF0060808FAE8
:1004400006F848EA0508CCF808804D68D9F800603D
:10045000ED024D4601D5164300E096432E604D68EF
:10046000DAF80060AD02554601D5164300E0964328
:100470002E604D68DBF80060AD035D4601D5164384
:1004800000E096432E604D68DEF80060ED0375468F
:1004900001D5164300E096432E60641C0A68164698
:1004A000E2407FF429AFBDE8F88F00000804014066
:1004B000000011100010024000000140000801403F
:1004C000000C0140001001400014014000180140E0
:1004D000001C0140014880687047000000000020B7
:1004E0000248816802781144816070470000002052
:1004F000074810B5016841F010010160032000F0C9
:1005000067F80F2000F006F800F024F8002010BD76
:100510000020024070B50D4D04464FF47A712878E2
:10052000B1FBF0F00A490968B1FBF0F000F0CEFA37
:1005300048B9102C07D200222146501E00F028F89E
:1005400000206C6070BD012070BD00000000002024
:100550000C0000200C4808B5816941F0010181615F
:10056000816901F001010091C16941F08051C161CF
:10057000C06900F0805000900448416821F0E061BB
:1005800041F00071416008BD0010024000000140D0
:10059000F0B40E4B1B680C46C3F30223C3F10705EE
:1005A000042D00D90425191D072901D2002300E0DC
:1005B000DB1E012606FA05F1491E214099409E40A6
:1005C000761E16403143F0BC00F076BC0CED00E026
:1005D000064900F0070208684FF6FF03184040EA9A
:1005E0000220034A10430860704700000CED00E051
:1005F0000000FA052DE9F0470F46050061D0434E93
:10060000306800F00700B84209D2306820F00700D7
:1006100038433060306800F00700B84251D1286894
:100620003B4C810712D5400703D5606840F4E06079
:1006300060602878000703D5606840F4605060600F
:100640006068A96820F0F000084360602878C0075F
:1006500028D06868012810D02168022810D08907A6
:1006600000292EDA616821F0030101436160FFF780
:1006700031FF804641F288390DE021688903EFE7B8
:100680008901EDE7FFF726FFA0EB0801494502D9F4
:100690000320BDE8F0876068696800F00C00B0EBEB
:1006A000810FEFD1306800F00700B8420BD93068F5
:1006B00020F0070038433060306800F00700B8428F
:1006C00001D00120E5E72878400705D56068E96892
:1006D00020F4E060084360602878000706D5606871
:1006E000296920F4605040EAC100606000F038F8E9
:1006F0006168084AC1F30311515CC84006490860AB
:1007000006480068FFF706FF0020C2E7002002400D
:10071000001002403E0F00080C00002004000020E2
:100720000448054900684968044AC1F30221515C44
:10073000C84070470C000020001002404E0F000817
:100740000448054900684968044AC1F3C221515C64
:10075000C84070470C000020001002404E0F0008F7
:100760000E4A51680E4801F00C03042B11D0082BDF
:100770000FD10C48C1F38343C903C05C0AD551684B
:10078000084AC1F34041921E515C054A5043B0FBF8
:10079000F1F07047044948437047000000100240E0
:1007A00000127A002E0F000800093D002DE9F84FD5
:1007B000040070D02078C04DC00749D06868C0F3ED
:1007C0008100012807D06868C0F38100022809D1A0
:1007D0006868C00306D52868800339D5606800289A
:1007E000E7D035E06068B0F5803F0BD010B1B0F5D0
:1007F000A02F11D0286820F480302860286820F4C9
:10080000802002E0286840F480302860606890B161
:10081000FFF760FE06460AE0286840F48020286062
:10082000F0E700BFFFF756FE801B642873D82868E6
:100830008003F7D50CE0FFF74DFE064605E000BF4C
:10084000FFF748FE801B6428F0D828688003F7D49F
:1008500020789A4E80074FF001094FF0000839D5F3
:10086000686810F00C0F07D06868C0F38100022898
:1008700009D16868C00306D42868800714D52069A8
:10088000012808D110E02069B0B1C6F80090FFF748
:1008900021FE074605E00AE1FFF71CFEC01B022807
:1008A000C4D828688007F7D52868616920F0F80067
:1008B00040EAC10028600DE0C6F80080FFF70AFE9C
:1008C000074604E0FFF706FEC01B022823D828686D
:1008D0008007F7D4207800072CD57948A169D9B1D1
:1008E000C0F80090FFF7F6FD074604E0FFF7F2FDC1
:1008F000C01B02280FD8686A8007F7D571484FF4EB
:10090000FA510068B0FBF1F0009000BF0098411E62
:100910000091FAD20EE080E0C0F80080FFF7DAFD27
:10092000074604E0FFF7D6FDC01B022875D8686AA9
:100930008007F7D42078400760D5E8690027C00019
:1009400008D4E86940F08050E861E869012700F0C8
:10095000805000905C480168C90513D40168834643
:1009600041F480710160FFF7B5FD824606E000BFEB
:10097000FFF7B0FDA0EB0A0064284ED8DBF80000BA
:10098000C005F5D5E06801280AD008B1052813D0C4
:10099000286A20F001002862286A20F0040002E0A2
:1009A000286A40F001002862E06841F2883B98B173
:1009B000FFF790FD82460BE0286A40F004002862B1
:1009C000EEE700BFFFF786FDA0EB0A0159455AD8B4
:1009D000286A8007F6D50CE0FFF77CFD824605E02B
:1009E000FFF778FDA0EB0A0159454CD8286A80072B
:1009F000F6D41FB1E86920F08050E861E06988B35F
:100A00006968C1F38101022944D00228C6F86080D8
:100A100004D0FFF75FFD044638E034E0FFF75AFDED
:100A2000074604E0FFF756FDC01B02282BD82868B4
:100A30008001F7D4206AB0F5803F05D16868A168CD
:100A400020F4003008436860D4E90801084369686D
:100A500021F4741108436860C6F86090FFF73AFD0E
:100A6000044606E025E000BFFFF734FD001B022826
:100A700009D828688001F7D51BE000BFFFF72AFDE1
:100A8000001B022802D90320BDE8F88F28688001E6
:100A9000F4D40EE00128F7D06868226A00F48031AF
:100AA000914204D1616A00F47010884201D00120A3
:100AB000EAE70020E8E700000010024000004242A0
:100AC000800442420C0000200070004010B5401E1F
:100AD000B0F1807F01D3012010BD4FF0E0246061B0
:100AE0000F21601700F0E8F90020A06107202061C5
:100AF000002010BD70B5040004D094F8410000251A
:100B000010B106E0012070BD84F84050204600F08E
:100B100023F8242084F841002068C16821F40051A2
:100B2000C160204600F032F92068016921F490414B
:100B300001612068416921F02A0141612068C16892
:100B400041F40051C1606564202084F8410084F8BC
:100B500042006563002070BD30B585B0002400946C
:100B600001940294039400681449884224D11448E3
:100B7000816941F480418161816901F4804104917E
:100B8000816941F00401816180690E4D00F004002B
:100B900004904FF400700090022001900320039015
:100BA00069462846FFF79AFB2815CDE900046946F7
:100BB00028460294FFF792FB05B030BD0038014093
:100BC00000100240000801402DE9F843044690F867
:100BD0004100984616460D46202802D00220BDE866
:100BE000F88385B17EB100206064212084F8410043
:100BF000FFF770FCA6848146E684A0682027B0F544
:100C0000805F02D003E00120E9E7206910B12E46A1
:100C100000250EE000260CE08021204600F012F9AD
:100C2000A8B9C6B116F8010B21684860E08C401ED7
:100C3000E084E08C4B464FF00002CDF800800028A5
:100C4000EAD14FF04001204600F0FCF840B184F8B2
:100C500041700320C3E735F8020BC0F30800E3E757
:100C600084F841700020BAE7FEE70000094808B5A3
:100C7000816941F010018161816901F010010091E9
:100C8000816941F004018161806900F004000090F5
:100C900008BD0000001002400C4810B50A49016070
:100CA0004FF4E1314160002181600C22C160C0E954
:100CB00004128161C161FFF71DFF002803D0BDE868
:100CC0001040FFF708BB10BD0038014010000020A5
:100CD000FEE7FEE770477047FFF702BC30B58FB004
:100CE00028216846FFF792FA14210AA8FFF78EFA26
:100CF00001210804CDE9001000240294022504918A
:100D0000CDE907504FF4E01009906846FFF74EFD1B
:100D100008B172B6FEE70F20CDE90A054FF48060F6
:100D2000CDE90C4002210AA80E94FFF763FC0028CD
:100D300001D072B6FEE70FB030BD704701680C31CC
:100D400051E8002F22F4907241E80023002BF5D1E6
:100D50000168143151E8002F22F0010241E800231C
:100D6000002BF5D1016B012909D101680C3151E843
:100D7000002F22F0100241E80023002BF5D12021A2
:100D800080F84210002101637047000070B50446EE
:100D900000680169E26821F4405111430161216951
:100DA000A0680843616908432168CA6841F20C637E
:100DB0009A430243CA6020684169A26921F44071E4
:100DC000114341611E492068884202D1FFF7B8FCF7
:100DD00001E0FFF7A5FC00EBC00101EB0012606829
:100DE00064218000B2FBF0F3B3FBF1F36FF018065F
:100DF0007343B2FBF0F5B2FBF0F605EB830532234B
:100E000003EB0515B5FBF1F5B6FBF1F605F0F005C2
:100E100005EB0615B2FBF0F6B2FBF0F0B0FBF1F01B
:100E20006FF01802504306EB800003EB0010B0FB9C
:100E3000F1F0216800F00F002844886070BD0000C8
:100E4000003801402DE9F843984617460D46044600
:100E5000089E24E0701C22D0FFF73CFBA0EB0800AA
:100E6000B0421AD8CEB12068C168490717D5802D85
:100E700015D0402D13D00168C94309070FD401686C
:100E80000025406800902046FFF758FF0820606466
:100E900084F840500120BDE8F8830320FBE7206878
:100EA000006835EA000004D00020B842D2D000200B
:100EB000F1E70120F9E7FEE70907090E002804DB46
:100EC00000F1E02080F80014704700F00F0000F1FE
:100ED000E02080F8141D7047FFF70AFBFFF7FEFEC5
:100EE000FFF7C4FEFFF7D8FE4FF47A7423460F22B3
:100EF00005A10948FFF768FE23460F2207A106480F
:100F0000FFF762FEFEE7000068656C6C6F20776F8C
:100F1000726C64210A0000001000002061616161B0
:100F20006120776F726C64210A00000001020203E5
:100F30000405060708090A0B0C0D0E0F101000001F
:100F40000000000000000102030406070809000079
:100F50000000010203040000780F000800000020D8
:100F6000100000006C010008880F0008100000202D
:100F7000A806000088010008010000001000000021
:080F80000000000000127A00DD
:0400000508000131BD
:00000001FF
