:020000040800F2
:10000000800E00204D05000851030008530300082E
:10001000570300085B0300085F03000800000000AE
:100020000000000000000000000000006303000862
:10003000650300080000000067030008690300086A
:1000400067050008670500086705000867050008E0
:1000500067050008670500086705000867050008D0
:1000600067050008670500086705000867050008C0
:1000700067050008670500086705000867050008B0
:1000800067050008670500086705000867050008A0
:100090006705000867050008670500086705000890
:1000A0006705000867050008670500086705000880
:1000B00067050008B38200086705000867050008A7
:1000C0006705000867050008670500086705000860
:1000D0006705000867050008670500086705000850
:1000E0006705000867050008670500086705000840
:1000F0006705000867050008670500086705000830
:10010000670500086705000867050008670500081F
:10011000670500086705000867050008670500080F
:1001200067050008670500086705000867050008FF
:1001300000F002F800F092F80AA090E8000C824467
:100140008344AAF10107DA4501D100F087F8AFF244
:10015000090EBAE80F0013F0010F18BFFB1A43F0A5
:1001600001031847C8B70000E8B70000103A24BFE1
:1001700078C878C1FAD8520724BF30C830C144BF0C
:1001800004680C607047000000230024002500264E
:10019000103A28BF78C1FBD8520728BF30C148BFEA
:1001A0000B6070476E2908F0E781702908F02983F9
:1001B000662909F0F586652909F0F286672909F0B4
:1001C000EF86612909F0EE8603681B0A28BF41F01B
:1001D0008001692908F09481642908F091817529CA
:1001E00008F08E816F2908F0B682782908F0F58230
:1001F000E92908F05182E42908F04E82F52908F037
:100200004B82EF2908F0B382F82908F0F4820368E2
:10021000DB0928BF41F08001632908F0F7877329C3
:1002200008F0FC87E32909F00780F32909F00C8026
:10023000002070471FB508F0F4F809F057F80400E3
:100240000020002109F058FD401C606000200021C2
:1002500009F03CFDE0601FBD10B510BD09F018F8B5
:100260001146FFF7E7FF00F023F809F0F5F803B4B3
:10027000FFF7F2FF03BC09F03FF900000B49D1F88A
:1002800000C04A685CF8043B1068184442F8040B4C
:100290008C4528BFA1F1DC0C8A4228BFA1F1DC0209
:1002A000C1F800C04A6020F00040704718080020E4
:1002B00001F05AFF01F09AFE03F00BFB08F00CF876
:1002C0004FF4A06000F062F941F61F4141F287301F
:1002D00007F0C2FF07F0E0FC07F03DFD2FE0002033
:1002E00008F023F8164908600846006870B1012834
:1002F00006D0022807D0032809D107F0D5FE06E072
:1003000007F011FF03E007F04EFF00E000BF00BF61
:100310000C480068012812D107F01AFE0020094994
:10032000086009484068401C074948600748006861
:10033000401C0649086007F071FD07F04DFECEE74E
:1003400000000020CC000020E8000020D0000020A9
:10035000704700BFFEE700BFFEE700BFFEE700BF3B
:10036000FEE7704770477047704700000CB50020EB
:10037000019000906C48006840F480306A49086041
:1003800000BF6948006800F4003000900198401CEC
:100390000190009818B90198B0F5A06FF1D16248AA
:1003A000006800F4003010B10120009001E000204E
:1003B00000900098012843D15C48006840F010008C
:1003C0005A4908600846006820F0030008600846A3
:1003D000006840F002000860534840685249486095
:1003E0000846406848600846406840F480604860BD
:1003F0000846406820F47C1048600846406840F495
:10040000E81048600846006840F08070086000BF4F
:100410004548006800F000700028F9D04248406864
:1004200020F00300404948600846406840F0020060
:10043000486000BF3C48406800F00C000828F9D133
:100440000CBD10B5FFF792FF10BD10B5364800681F
:1004500040F00100344908600846406834490840CB
:100460003149486008460068324908402E49086012
:100470000846006820F4802008600846406820F4A0
:10048000FE0048604FF41F008860FFF7DAFF4FF06E
:1004900000602949086010BD10B50021002000222D
:1004A000214B5B6803F00C0121B1042906D0082917
:1004B00028D107E0214B224C236027E01F4B204C22
:1004C000236023E0184B5B6803F47010164B5B68E5
:1004D00003F48032022303EB904022B9194B4343CB
:1004E000174C23600DE0104B5B6803F4003323B11D
:1004F000144B4343124C236003E0104B4343104C16
:10050000236003E00D4B0E4C236000BF00BF064B81
:100510005B68C3F303130C4CE15C094B1B68CB40D5
:10052000074C236010BD0000001002400020024074
:100530000000FFF8FFFFF6FE08ED00E000127A0071
:100540000400002000093D00080000200948804701
:1005500009480047FEE7FEE7FEE7FEE7FEE7FEE7A5
:10056000FEE7FEE7FEE7FEE704480549054A064BBD
:10057000704700004B04000831010008800800208B
:10058000800E0020800A0020800A002031490143AB
:10059000314A1160704770B5002100230F22C478E2
:1005A00004B32D4C246804F4E064C4F5E064210A2B
:1005B000C1F10403CA40447804FA03F1847814407A
:1005C00021430901254C0678A155047804F01F0544
:1005D0000124AC4005786D11AD0005F1E025C5F8AA
:1005E000004109E0047804F01F050124AC401C4DD3
:1005F0000678761145F8264070BD1A4A0A40024333
:10060000154B1B1F1A60704739B1134A121D12682F
:100610000243114B1B1D1A6006E00F4A121D12689F
:1006200082430D4B1B1D1A607047042808D14FF000
:10063000E021096941F004014FF0E022116107E077
:100640004FF0E021096921F004014FF0E02211612F
:10065000704700000000FA050CED00E000E400E047
:1006600080E100E080FFFF1F10B50446CC488442C3
:1006700008D10121042000F02DFB0021042000F00E
:1006800029FB46E0C748844208D10121082000F038
:1006900021FB0021082000F01DFB3AE0C248844203
:1006A00008D10121102000F015FB0021102000F0DE
:1006B00011FB2EE0BD48844208D10121202000F02A
:1006C00009FB0021202000F005FB22E0B84884420D
:1006D00008D10121402000F0FDFA0021402000F067
:1006E000F9FA16E0B348844208D10121802000F0D5
:1006F000F1FA0021802000F0EDFA0AE0AE488442D1
:1007000007D10121801500F0E5FA0021A01500F0C5
:10071000E1FA10BD10B50121084600F0DBFA002116
:10072000012000F0D7FA10BD2DE9F0410246002566
:100730000026002000230024002791F803C00CF0BD
:100740000F0591F803C00CF0100CBCF1000F03D0A2
:1007500091F802C04CEA050591F800C0BCF1000F09
:1007600031D0146800202BE04FF0010C0CFA00F39C
:10077000B1F800C00CEA03069E4220D183004FF07E
:100780000F0C0CFA03F7BC4305FA03FC4CEA040413
:1007900091F803C0BCF1280F06D14FF0010C0CFA00
:1007A00000FCC2F814C00AE091F803C0BCF1480F85
:1007B00005D14FF0010C0CFA00FCC2F810C0401C2F
:1007C0000828D1D31460B1F800C0BCF1FF0F34DDAC
:1007D000546800202EE000F1080C4FF0010808FAE0
:1007E0000CF3B1F800C00CEA03069E4221D183004D
:1007F0004FF00F0C0CFA03F7BC4305FA03FC4CEA6C
:10080000040491F803C0BCF1280F05D100F1080CD5
:1008100008FA0CF8C2F8148091F803C0BCF1480F34
:1008200007D100F1080C4FF0010808FA0CF8C2F8E3
:100830001080401C0828CED35460BDE8F0814FF6EC
:10084000FF710180022181700421C170704702464E
:10085000002093680B400BB1012000E0002070479E
:100860000146886880B2704702460020D3680B407A
:100870000BB1012000E0002070470146C86880B23B
:10088000704701617047416170470AB1016100E042
:1008900041617047C16070474FF480320A43826102
:1008A0008161826182698269704702460020434B00
:1008B00018684FF68073184040EA021008433F4B17
:1008C000186070473E49C8617047F0B50A4600237A
:1008D00000240021002500F00046B6F1004F02D1AF
:1008E000364EF16901E0354E7168C0F3034583B2BD
:1008F00000F44016B6F5401F08D121F070612F4E6C
:10090000766826F070662D4F7E6012E000F4801647
:10091000B6F5801F06D1032606FA05F4A14341F07F
:10092000706106E0460D360103FA06F6B14341F068
:10093000706122B1460D360103FA06F6314300F02C
:100940000046B6F1004F02D11C4EF16101E01B4E92
:100950007160F0BD30B500228B071C0F0F2303FA26
:1009600004F2164B08338C1053F824309343134C85
:1009700008348D1044F8253023468C1053F8243069
:100980008C07240F00FA04F423430C4C08348D1018
:1009900044F8253030BD0A49DC310860704700005A
:1009A00000080140000C014000100140001401400B
:1009B00000180140001C01400020014000000140DF
:1009C00000002042DF48006840F00100DD49086077
:1009D00008464068DC490840DA4948600846006833
:1009E000DA490840D74908600846006820F48020AA
:1009F00008600846406820F4FE0048604FF41F007D
:100A000088607047CF49096821F48031CD4A116070
:100A10001146096821F480211160B0F5803F03D0B0
:100A2000B0F5802F0ED106E0C649096841F4803147
:100A3000C44A116007E0C349096841F4A021C14AD2
:100A4000116000E000BF00BF704710B501460022F2
:100A5000002300204A11012A02D1BA4C236806E083
:100A6000022A02D1B74C236A01E0B64C636A01F056
:100A70001F02012494401C400CB1012000E0002022
:100A800010BD38B5002000900024002500BF3120A3
:100A9000FFF7DBFF05460098401C00900098B0F57A
:100AA000A06F01D0002DF2D03120FFF7CEFF08B1AA
:100AB000012400E00024204638BD01460020A14A60
:100AC000106820F0F80040EAC10010607047A049AB
:100AD00008607047024600209A4B586820F47C104A
:100AE00042EA01031843974B5860704798490866DB
:100AF000704701460020934A506820F003000843E5
:100B0000506070478F48406800F00C007047014605
:100B100000208C4A506820F0F00008435060704775
:100B200001460020874A506820F4E0600843506086
:100B3000704701460020834A506820F4605040EA24
:100B4000C1005060704729B17E4A527A02437D4B02
:100B50005A7204E07B4A527A82437A4B5A72704747
:100B60007B49D8310860704701460020754A5068BB
:100B700020F440400843506070470021714A203201
:100B80001170704A82F82010012802D004280AD17E
:100B900004E001216B4A2032117005E00521694A09
:100BA0002032117000E000BF00BF70476949086043
:100BB00070476449096A0143624A11627047654996
:100BC00044390860704730B500210022002400231A
:100BD0005C4D6D6805F00C0121B1042905D0082990
:100BE00023D105E05C4D056022E05B4D05601FE010
:100BF000544D6D6805F47012524D6D6805F48034E3
:100C0000022505EB92421CB9544D554305600BE09B
:100C10004C4D6D6805F400351DB1504D55430560D0
:100C200002E04D4D5543056002E04B4D056000BFAD
:100C300000BF444D6D6805F0F0010909484D6B5C3B
:100C40000568DD4045603F4D6D6805F4E061090AC7
:100C5000434D6B5C4568DD4085603A4D6D6805F439
:100C60006051C90A3E4D6B5C4568DD40C560354D3D
:100C70006D6805F44041890B3A4D6B5CC568B5FB66
:100C8000F3F5056130BD29B12E4A526902432D4B5F
:100C90005A6104E02B4A526982432A4B5A617047D9
:100CA00029B1284A92690243264B9A6104E0254AF9
:100CB00092698243234B9A61704729B1214AD269D4
:100CC0000243204BDA6104E01E4AD26982431D4B85
:100CD000DA61704729B11B4AD2680243194BDA60C6
:100CE00004E0184AD2688243164BDA60704729B193
:100CF000144A12690243134B1A6104E0114A126943
:100D00008243104B1A61704712494039086070479E
:100D10000F49C86470470B49C87170470948406A59
:100D200040F0807007494862704701460020054A3C
:100D300092680A400AB1012000E000207047014992
:100D400088727047001002400000FFF8FFFFF6FEB7
:100D5000000042428004424200127A0000093D0035
:100D6000180000202800002010B50446FE488442E8
:100D700008D10121C014FFF7ADFF0021E014FFF7F7
:100D8000A9FFC4E0B4F1804F08D101210846FFF764
:100D9000AEFF00210120FFF7AAFFB8E0F34884422C
:100DA00008D101210220FFF7A2FF00210220FFF756
:100DB0009EFFACE0EE48844208D101210420FFF7F9
:100DC00096FF00210420FFF792FFA0E0E94884424B
:100DD00008D101210820FFF78AFF00210820FFF732
:100DE00086FF94E0E448844208D101211020FFF7F7
:100DF0007EFF00211020FFF77AFF88E0DF48844261
:100E000008D101212020FFF772FF00212020FFF7E9
:100E10006EFF7CE0DA48844208D101214014FFF7DC
:100E200059FF00216014FFF755FF70E0D548844258
:100E300009D10121C804FFF74DFF00214FF4002024
:100E4000FFF748FF63E0D048844209D1012108053B
:100E5000FFF740FF00214FF48010FFF73BFF56E003
:100E6000CA48844209D101214805FFF733FF002118
:100E70004FF40010FFF72EFF49E0C548844208D127
:100E800001214020FFF733FF00214020FFF72FFF13
:100E90003DE0C048844208D101218020FFF727FFB0
:100EA00000218020FFF723FF31E0BB48844208D1B6
:100EB00001218015FFF71BFF0021A015FFF717FF89
:100EC00025E0B648844209D101210804FFF702FF5A
:100ED00000214FF48030FFF7FDFE18E0B048844257
:100EE00009D101214804FFF7F5FE00214FF400303D
:100EF000FFF7F0FE0BE0AB48844208D101218804E3
:100F0000FFF7E8FE00214FF48020FFF7E3FE10BD5D
:100F100000220288944B98420ED0994B98420BD0F5
:100F2000B0F1804F08D0914B984205D0904B984239
:100F300002D0904B984204D14FF68F731A404B88E1
:100F40001A438D4B984207D08C4B984204D04FF6F1
:100F5000FF431A40CB881A4302808B8883850B8815
:100F60000385814B98420BD0854B984208D08B4B20
:100F7000984205D08A4B984202D08A4B984201D1C0
:100F80000B7A038601238382704770B50024002208
:100F90000023058C4FF6FE7635400584028C83884D
:100FA000048B4FF68F752C40B51E2C400D882C43BA
:100FB000751E2A400D892A434D882A436A4DA8424E
:100FC0000BD06F4DA84208D0744DA84205D0744D87
:100FD000A84202D0734DA84213D14FF6F7752A40AC
:100FE0004D892A434FF6FB752A408D882A434FF6D8
:100FF000FF652B404FF6FF552B408D892B43CD8944
:101000002B4383800483CD888586028470BD70B5B0
:10101000002400220023058C4FF6EF76354005842E
:10102000028C8388048B48F6FF752C404FF6FF45F1
:101030002C400D884FF6FF7606EA05252C434FF627
:10104000DF752A400D8906EA05152A434D8806EA10
:1010500005152A43444DA84202D0494DA8421DD14E
:101060004FF67F752A404D894FF6FF7606EA051543
:101070002A434FF6BF752A408D8806EA05152A4394
:101080004FF6FF352B404FF2FF752B408D8906EA56
:1010900085052B43CD8906EA85052B438380048390
:1010A000CD880587028470BD70B50024002200231E
:1010B000058C4FF6FF6635400584028C8388848B4F
:1010C0004FF68F752C404FF6FC752C400D882C4345
:1010D0004FF6FF552A400D894FF6FF7606EA0525A3
:1010E0002A434D8806EA05252A431F4DA84202D00F
:1010F000234DA8421DD14FF2FF752A404D894FF66E
:10110000FF7606EA05252A434FF6FF352A408D88EB
:1011100006EA05252A434EF6FF752B404DF6FF756E
:101120002B408D8906EA05152B43CD8906EA051566
:101130002B4383808483CD888587028470BD70B5FE
:10114000002200230024058C4EF6FF7635400584EE
:10115000038C8488828B48F6FF752A404FF6FF4542
:101160002A400D8820E00000002C014000040040CF
:1011700000080040000C0040001000400014004037
:1011800000340140004C0140005001400054014037
:1011900000180040001C00400020004000400140BA
:1011A00000440140004801404FF6FF7606EA05255D
:1011B0002A434DF6FF752B400D8906EA05352B4372
:1011C0004D8806EA05352B43FA4DA84202D0FA4D68
:1011D000A84208D14BF6FF752C408D894FF6FF765B
:1011E00006EA85152C4384808283CD88A0F8405080
:1011F000038470BD828B4FF2FF331A408283828B4F
:101200004FF6FF7303EA01231A4382837047F0B558
:101210000C461546002200210026078C4EF6FF7C66
:1012200007EA0C070784828B018C4FF6FF7707EAE9
:10123000043640F6FF473A404FF6FF7707EA0527A6
:101240003A434FF6FF7707EA03373A43D94FB8429C
:101250000ED0D94FB8420BD0B0F1804F08D0D74F45
:10126000B84205D0D64FB84202D0D64FB84206D1C8
:101270004DF6FF77394046F48057394305E047F68D
:10128000FF57394044F48057394382830184F0BDCD
:10129000828B4FF6F3731A408283828B0A438283D8
:1012A0007047F0B50C461546002200210026078C39
:1012B0004FF6FF6C07EA0C070784828B018C4FF610
:1012C000FF7707EA04264FF60C773A404FF6FF7790
:1012D00007EA03172F433A43B64FB8420ED0B64F32
:1012E000B8420BD0B0F1804F08D0B44FB84205D00F
:1012F000B34FB84202D0B34FB84206D14FF6FF57B2
:10130000394046F48077394305E04FF2FF573940C2
:1013100044F48077394382830184F0BD028B4FF21D
:10132000FF331A400283028B4FF6FF7303EA012357
:101330001A4302837047F0B50C461546002200217F
:101340000026078C4FF6EF7C07EA0C070784028B18
:10135000018C4FF6FF7707EA041640F6FF473A4044
:101360004FF6FF7707EA03373A434FF6FF7707EA6E
:1013700005273A438F4FB8420ED08F4FB8420BD05B
:10138000B0F1804F08D08D4FB84205D08C4FB84295
:1013900002D08C4FB84206D14FF6DF77394046F085
:1013A0001007394305E04FF65F77394044F01007E6
:1013B000394302830184F0BD028B4FF6F3731A4068
:1013C0000283028B0A4302837047F0B50C46154630
:1013D00000220021068C4FF6FE773E400684028BE9
:1013E000018C4FF60C7632407E1C06EA03162E4323
:1013F0003243704EB0420ED06F4EB0420BD0B0F1BF
:10140000804F08D06D4EB04205D06D4EB04202D034
:101410006C4EB04206D14FF6FD76314044F00106E5
:10142000314305E04FF6F576314044F00106314393
:1014300002830184F0BD70B505460C465D488542C7
:101440000ED05D4885420BD0B5F1804F08D05B4887
:10145000854205D05A48854202D05A48854200D17B
:1014600000E000BF208850B92389A28861882846FF
:10147000FFF7ABFFE1882846FFF79EFF25E02088B5
:1014800004280AD12389A28861882846FFF753FFE0
:10149000E1882846FFF742FF17E0208808280AD194
:1014A0002389A28861882846FFF7FBFEE188284649
:1014B000FFF7EEFE09E02389A28861882846FFF73E
:1014C000A6FEE1882846FFF795FE70BD2DE9F041A4
:1014D00005460C4600260127608808B9022600E070
:1014E0000026A088012801D1022700E001272088DA
:1014F000A0B92389A28861882846FFF766FFE188A2
:101500002846FFF759FF23893A4631462846FFF718
:1015100012FFE1882846FFF701FF13E02389A28824
:1015200061882846FFF707FFE1882846FFF7F6FEA7
:1015300023893A4631462846FFF747FFE188284687
:10154000FFF73AFFBDE8F0810A884B881A438B8881
:101550001A43CB881A430B891A434B891A438B8948
:101560001A43A0F8442070474FF6FF718180002194
:101570000180C1804180017270470021018041805B
:101580008180C180018141818181C18170470021B9
:1015900001804180012181800021C180018170474B
:1015A0000021018041808180C18001814181818150
:1015B00070470000002C014000340140000400404E
:1015C00000080040000C004021B1028842F00102F6
:1015D000028004E002884FF6FE731A4002807047D2
:1015E00031B1B0F8442042F40042A0F8442005E0B4
:1015F000B0F84420C2F30E02A0F8442070471AB19C
:1016000083890B43838102E083898B438381704705
:101610008182704741EA0203A0F8483070471AB14E
:1016200083890B43838102E083898B4383817047E5
:1016300001894FF6F8721140018170470A46002176
:1016400001894FF68F73194011430181704730B5FE
:1016500004460D4629462046FFF7F0FF208940F05A
:101660000700208130BD2DE9F04104460D461646A5
:101670001F46602D06D13B46012231462046FFF72A
:101680005AFE05E03B46012231462046FFF79DFE0B
:1016900029462046FFF7D2FF208940F0070020812D
:1016A000BDE8F08130B50C4600210189C9B24FF682
:1016B000FF7505EA0325154325432943018130BD04
:1016C0002DE9F04105460E4617469846002443464C
:1016D0003A4631462846FFF7E5FF2C894FF6F87069
:1016E000044044F007044FF68F70044044F0700447
:1016F0002C81BDE8F081F0B504460D4616461F4624
:101700003B46324629462046FFF7CCFF208940F46D
:1017100080402081F0BD0185828270470A46002109
:1017200001884FF68F731940114301807047F0B55F
:101730000C4615461E460021002200230189028B1B
:10174000038C4FF6F877394021434FF6FC473A4077
:1017500040F201173A434FF6DD773B404FF6FF77F3
:1017600007EA06172F433B43018102830384F0BD40
:101770000A460021018B4FF68F73194011430183F4
:1017800070470A460021018B48F6FF7319404FF657
:10179000FF7303EA02231943018370470A460021BD
:1017A000818B4FF68F7319401143818370470A462E
:1017B0000021818B48F6FF7319404FF6FF7303EA4F
:1017C000022319438183704721B1028842F08002CD
:1017D000028004E002884FF67F731A40028070474F
:1017E00021B1828842F00402828004E082884FF6B0
:1017F000FB731A408280704721B1828842F0080250
:10180000828004E082884FF6F7731A408280704726
:1018100021B1828842F00102828004E082884FF682
:10182000FE731A40828070470A460021018B4FF6F2
:10183000F77319401143018370470A460021018B59
:101840004FF2FF7319404FF6FF7303EA0223194367
:10185000018370470A460021818B4FF6F7731940C8
:101860001143818370470A460021818B4FF2FF7339
:1018700019404FF6FF7303EA02231943818370472F
:101880000A460021018B4FF6FB7319401143018377
:1018900070470A460021018B4FF6FF3319404FF67F
:1018A000FF7303EA02231943018370470A460021AC
:1018B000818B4FF6FB7319401143818370470A46B1
:1018C0000021818B4FF6FF3319404FF6FF7303EA77
:1018D00002231943818370470A460021018B4FF68A
:1018E0007F7319401143018370470A460021018B21
:1018F000C1F30E014FF6FF7303EA0223194301837C
:1019000070470A460021818B4FF67F7319401143BF
:10191000818370470A460021818BC1F30E014FF687
:10192000FF7303EA02231943818370470A460021AB
:10193000018C4FF6FD7319401143018470470A462C
:101940000021018C4FF6F773194011430184704751
:101950000A460021018C4FF6DF7319404FF6FF73E2
:1019600003EA02131943018470470A460021018CDF
:101970004FF67F7319404FF6FF7303EA02131943C2
:10198000018470470A460021018C4FF6FF5319402D
:101990004FF6FF7303EA02231943018470470A4696
:1019A0000021018C4FF2FF7319404FF6FF7303EAD9
:1019B00002231943018470470A460021018C4DF629
:1019C000FF7319404FF6FF7303EA02331943018492
:1019D000704730B5002301248C40A3B2048C9C4393
:1019E0000484048C02FA01F5ADB22C43048430BDAA
:1019F00030B5002304248C40A3B2048C9C4304849F
:101A0000048C02FA01F5ADB22C43048430BD70B5EC
:101A10000346002000241846183001258D40ACB242
:101A20001D8CA5431D8409B1082909D100EB610073
:101A3000056825F0700505600568154305600EE032
:101A40000D1FC5F34E052844056825F4E0450560E3
:101A500005684FF6FF7606EA02263543056070BD3D
:101A600021B1028842F00202028004E002884FF6AF
:101A7000FD731A400280704721B1028842F00402CF
:101A8000028004E002884FF6FB731A400280704720
:101A900021B1828842F08002828004E082884FF681
:101AA0007F731A408280704702884FF6F7731A409E
:101AB000028002880A430280704782884FF68F7343
:101AC0001A40828082880A438280704702894FF6DA
:101AD000F8731A40028102890A4302817047028921
:101AE0004FF67F731A40028102890A4302817047D0
:101AF0008184704781857047818670470187704770
:101B000081877047A0F84010704702884FF6FF4366
:101B10001A40028002880A43028070470146888E7C
:101B200070470146088F70470146888F704701460D
:101B3000B1F8400070470146888C70470146088D17
:101B4000704702460020138A0B400BB1012000E0D1
:101B500000207047CA430282704730B50246002019
:101B600000230024158A05EA0103958905EA01048A
:101B700013B10CB1012000E0002030BDCA43028245
:101B80007047000010B50446FB48844209D101218A
:101B90008803FFF79FF800214FF48040FFF79AF881
:101BA00032E0F648844209D101214804FFF79FF84A
:101BB00000214FF40030FFF79AF825E0F048844206
:101BC00009D101218804FFF792F800214FF4802009
:101BD000FFF78DF818E0EB48844209D10121C804D1
:101BE000FFF785F800214FF40020FFF780F80BE0A5
:101BF000E548844208D101210805FFF778F8002163
:101C00004FF48010FFF773F810BD2DE9F04786B050
:101C100005460E460024A24600BFA1460027B08913
:101C200000B100BF2F462C8A4CF6FF700440F088AC
:101C300004432C82AC894EF6F3100440B0883189FD
:101C40000843718908430443AC81AC8A4FF6FF40D6
:101C50000440B0890443AC8201A8FEF7B4FFC64833
:101C6000874202D1DDF810A001E0DDF80CA0A889C0
:101C700000F4004040B10AEBCA0000EB0A103168E2
:101C80004900B0FBF1F807E00AEBCA0000EB0A10CC
:101C900031688900B0FBF1F86420B8FBF0F0040172
:101CA0002009642101FB1089A88900F4004040B19B
:101CB000322000EBC900B0FBF1F000F00700044354
:101CC00008E0322000EB09106421B0FBF1F000F0D5
:101CD0000F0004432C8106B0BDE8F0874FF4165185
:101CE000016000218180C18001810C21418100219E
:101CF0008181704710B502460020108A4FF2FF0321
:101D000018400B884C8823438C882343CC8823437A
:101D10001843108210BD0021018041808180C18064
:101D2000704721B1828942F40052828104E08289A5
:101D30004DF6FF731A4082817047F0B503460024C8
:101D400000260025002040F66A17B94200D100BFE6
:101D50001846C1F3421401F01F06012707FA06F5E1
:101D6000012C01D10C3004E0022C01D1103000E034
:101D700014301AB107682F43076002E00768AF43C9
:101D80000760F0BD1AB1838A0B43838202E0838A25
:101D90008B4383827047028A4FF6F0731A400282A7
:101DA000028A0A430282704782894FF2FF731A4007
:101DB000828182890A438281704721B1828942F0FF
:101DC0000202828104E082894FF6FD731A4082810B
:101DD0007047028A4FF6DF731A400282028A0A4372
:101DE0000282704721B1028A42F48042028204E0FA
:101DF000028A4BF6FF731A4002827047C1F3080251
:101E00008280704701468888C0F308007047818946
:101E100041F0010181817047028BD2B20283028BB3
:101E200042EA012202837047028B02F47F4202835E
:101E3000028B0A430283704721B1828A42F020025A
:101E4000828204E0828A4FF6DF731A4082827047F2
:101E500021B1828A42F01002828204E0828A4FF627
:101E6000EF731A408282704721B1828A42F00802E1
:101E7000828204E0828A4FF6F7731A4082827047AA
:101E800021B1828942F40042828103E08289C2F357
:101E90000E028281704721B1828A42F400628282FE
:101EA00004E0828A4FF2FF731A4082827047828A6E
:101EB0004FF6FB731A408282828A0A4382827047FD
:101EC00021B1828A42F00202828204E0828A4FF6C5
:101ED000FD731A408282704702460020B1F5007FF0
:101EE00000D100BF13880B400BB1012000E000209F
:101EF000704701F40072B2F5007F00D100BFCA4301
:101F00000280704770B5024600240023002500209F
:101F100040F66A16B14200D100BFC1F3421501F08C
:101F20001F03012606FA03F3012D02D196893340DF
:101F300006E0022D02D1168A334001E0968A334032
:101F40000C12012606FA04F41688344013B10CB1C1
:101F5000012000E0002070BD10B50022002340F6F3
:101F60006A14A14200D100BF0A1201249440A3B216
:101F7000DC43048010BD00000038014000440040F4
:101F800000480040004C004000500040704700EB0B
:101F9000C001C9004FF0E02251610021916105218B
:101FA000116100BF4FF0E021096901F4803100297F
:101FB000F8D004214FF0E0221161704700B50346CC
:101FC00003E04FF47A70FFF7E2FF181EA3F101035C
:101FD000F7D100BD10B5044603E04FF47A70FFF767
:101FE000EDFF201EA4F10104F7D110BD00B587B0AC
:101FF000012144F20400FEF753FE4FF40070ADF8E7
:10200000180003208DF81A0018208DF81B0006A96F
:102010005348FEF789FB4FF48060ADF818000420A8
:102020008DF81B0006A94E48FEF77EFB25208DF893
:10203000040003208DF805008DF8060001208DF8BE
:10204000070001A8FEF7A7FA4FF4165002900020EF
:10205000ADF80C00ADF80E00ADF81000ADF81400AE
:102060000C20ADF8120002A93E48FFF7CEFD012278
:1020700040F225513B48FFF760FE01213948FFF748
:1020800050FE07B000BD10B5044621463548FFF7A5
:10209000B5FE00BF80213348FFF71EFF0128F9D0AD
:1020A0000120FFF78BFF10BD70B505460E460024DA
:1020B00004E0285DFFF7E7FF601C84B2B442F8DB60
:1020C00070BD70B50446002504E0605DFFF7DBFFDE
:1020D000681CC5B2605D0028F7D170BD10B502461E
:1020E000012000E050430B1EA1F10101FAD110BD07
:1020F0002DE9F04106460C46002512E0601E411B0A
:102100000A20FFF7EBFFB6FBF0F00A21B0FBF1F27B
:1021100001FB120000F130073846FFF7B4FF681CDE
:10212000C5B2A542EADBBDE8F08170B504460D46B4
:10213000E0B2FFF7A8FF204670BD0FB400B59BB01A
:102140001DA8019002A8019A1C9906F043F90020ED
:10215000019002A8FFF7B5FF1BB05DF814FB00006B
:10216000000801400038014008B501212420FEF795
:1021700097FD10208DF803000001ADF8000003204A
:102180008DF8020069461F48FEF7CEFA0420ADF82C
:10219000000069461C48FEF7C7FA08BD10B54FF4A9
:1021A00080711848FEF76FFB10BD10B54FF48071B9
:1021B0001448FEF766FB10BD10B54FF4807111484E
:1021C000FEF752FB10B9FFF7E9FF01E0FFF7EDFF63
:1021D00010BD10B504210C48FEF755FB10BD10B51D
:1021E00004210948FEF74DFB10BD10B50421064837
:1021F000FEF73AFB10B9FFF7ECFF01E0FFF7EFFF46
:1022000010BD000000080140001401404FF480712F
:10221000FD4A516149005161FC49086080215161CA
:1022200011618900116170474FF48071F64A1161A4
:1022300049005161F54908608021516111618900AF
:102240001161704710B54FF08830F0490C390860C3
:10225000091D08600020ED4908608815EA490861F9
:102260004000486140204861E948808848F689116B
:10227000884202D10220FFF78AFEE448001F00686E
:1022800084B24020E0490861C00008614FF033305B
:10229000DE490C390860091D08604FF6FF70DB4904
:1022A0000860204610BD10B504460B462046FFF7D7
:1022B000ADFF4FF48070D449086140004861D348B5
:1022C00003608020486108618000086110BD10B57E
:1022D00004462046FFF79AFFFFF7B4FF10BD00B594
:1022E000CB490889FFF792FF00BD4FF48071C64AC1
:1022F000116149005161C549086080215161116136
:1023000089001161704730B5014601F01F04C1F327
:102310004513CA0AE50205EB43151544A8B230BDC2
:1023200000BF011EA0F10102D0B2FAD1704730B552
:1023300004460D46B648808849F24131884205D0AE
:10234000B348808845F21031884240D1B04948896D
:10235000FFF75CFF4FF48070AB49086140004861B3
:102360002012AA4908608020A749486108618000BE
:1023700008614010086140004861E0B2A34908606C
:102380008020A1494861086180000861A0498889CE
:10239000FFF73CFF4FF480709B49086140004861A3
:1023A00028129A4908608020974948610861800096
:1023B00008614010086140004861E8B29349086034
:1023C0008020914948610861800008618CE1904853
:1023D000808846F60401884249D18D4880790128D9
:1023E00004D18B480088401E001B84B2884948896C
:1023F000FFF70CFF4FF4807083490861400048618B
:1024000020128249086080207F494861086180006D
:1024100008614010086140004861E0B27B490860F3
:10242000802079494861086180000861784988897D
:10243000FFF7ECFE4FF4807073490861400048617B
:1024400028127249086080206F4948610861800045
:1024500008614010086140004861E8B26B490860BB
:102460008020694948610861800008613CE1684852
:10247000808841F6631188427ED1654880790028C2
:102480003FD163480088401E001B84B260494889E0
:10249000FFF7BCFE4FF480705B4908614000486163
:1024A00000205A490860802057494861086180002F
:1024B00008614010086140004861002053490860ED
:1024C000802051494861086180000861401008611E
:1024D0004000486120124D49086080204A49486107
:1024E0000861800008614010086140004861E0B266
:1024F00046490860802044494861086180000861BD
:1025000041E043494889FFF781FE4FF480703E491E
:1025100008614000486120123C49086080203A4927
:10252000486108618000086140100861400048610E
:10253000E0B2364908608020334948610861800074
:102540000861401008614000486131480088401E21
:1025500000122E49086080202B49486108618000E4
:102560000861401008614000486129480078401E19
:10257000C0B22649086000E04CE080202249486152
:1025800008618000086122498889FFF73FFE4FF407
:1025900080701D4908614000486128121B4908608D
:1025A0008020194948610861800008614010086175
:1025B00040004861E8B2154908608020124948612E
:1025C00008618000086140100861400048611048BF
:1025D0004088401E00120D49086080200A49486169
:1025E00008618000086140100861400048610848A7
:1025F0008078401EC0B205490860802002494861C9
:102600000861800008616FE0001001400C0C01407F
:10261000D8000020F748808845F21051884250D1F8
:10262000F4494889FFF7F2FD4FF48070F2490861E0
:10263000400048612012F14908608020EE4948615D
:10264000086180000861EB494989491C88B2FFF79D
:10265000DDFD4FF48070E849086140004861E0B258
:10266000E64908608020E44948610861800008610B
:10267000E0498889FFF7CAFD4FF48070DE490861A0
:10268000400048612812DD4908608020DA4948612D
:10269000086180000861D7498989491C88B2FFF721
:1026A000B5FD4FF48070D449086140004861E8B23C
:1026B000D24908608020D0494861086180000861E3
:1026C00012E0CC488079012804D1CA480088401E15
:1026D000001B84B2C74948892146FFF7E4FDC5497C
:1026E00088892946FFF7DFFD30BD2DE9F041054619
:1026F0000E46C0480088A84203DDBE484088B0426C
:1027000002DC0020BDE8F08131462846FFF70FFECD
:10271000B848808849F24131884211D0B548808854
:1027200046F6040188420BD0B248808845F2103149
:10273000884205D0AF48808841F66311884203D1B2
:102740002E20FFF763FD0DE0AA48808845F2105166
:10275000884204D14FF43850FFF758FD02E02220A0
:10276000FFF754FD4FF08830A4490C390860091D6B
:1027700008604FF6FF70A149086088159E490861FE
:1027800040004861402048610220FFF7C9FD9B4896
:10279000001F006884B240209749086195488088EE
:1027A00041F66311884210D14FF4007092490861DC
:1027B0004FF0333091490C390860091D08604FF61D
:1027C000FF708E49086020469CE740208A49486196
:1027D0000220FFF7A5FD8948001F006884B2402051
:1027E000854908618348808849F2413188420BD08D
:1027F0008048808845F21031884205D07D48808825
:1028000045F21051884213D140207B494861022093
:10281000FFF786FD7948001F00681FFA80F8402006
:1028200075490861E7B24FF6FF7000EA07270DE02F
:102830007048808846F60401884207D140206E49DE
:10284000486108616D48001F006884B24FF4007051
:10285000694908614FF0333068490C390860091D37
:1028600008604FF6FF70654908606248808849F249
:102870002531884216D05F48808844F2355188421D
:1028800010D05C488088091F88420BD05948808846
:1028900048F68911884205D0564880884BF2055188
:1028A000884201D120462DE75248808849F24131C3
:1028B00088420BD04F48808845F21031884205D0BD
:1028C0004C48808845F21051884207D1E012C0027E
:1028D000B91240EA411040EAE82013E72046FFF72A
:1028E00012FD0FE700B54348808849F24131884224
:1028F00011D04048808846F6040188420BD03D48FC
:10290000808845F21031884205D03A48808841F6E7
:102910006311884203D12920FFF778FC0FE0354886
:10292000808845F21051884204D14FF42450FFF7BB
:102930006DFC04E040F273110720FFF7B4FC00BD0A
:1029400000B52C48808849F24131884211D029488D
:10295000808846F6040188420BD02648808845F2DC
:102960001031884205D02348808841F6631188429F
:1029700003D12820FFF74AFC0EE01E48808845F26C
:102980001051884204D14FF42050FFF73FFC03E080
:1029900000210720FFF787FC00BDF0B505460024A5
:1029A00000271448807901280BD11248808846F608
:1029B0000401884205D00F48808841F6631188429F
:1029C00008D10C48807920BB0A48808841F6631101
:1029D00088421ED1082D1BD2DFE805F00406080A44
:1029E00012141618062513E0072511E004250FE040
:1029F00005250DE0D8000020001001400C0C01401E
:102A0000012505E0002503E0032501E0022500BFC4
:102A100000BFF848808849F24131884217D0F54814
:102A2000808846F60401884211D0F248808845F239
:102A3000103188420BD0EF48808845F2105188420F
:102A400005D0EC48808841F6631188427ED1082D7C
:102A50001CD2DFE805F00406090C0F12151800BFA0
:102A600014E044F0800411E044F040040EE044F02F
:102A7000C0040BE044F0200408E044F0600405E0EA
:102A800044F0A00402E044F0E00400BF00BFD948D5
:102A9000808845F21051884202D14FF4585700E027
:102AA0003627D448808845F2103188420DD0D1486D
:102AB000808845F21051884207D0CE48808841F680
:102AC0006311884201D044F00804CA48808846F661
:102AD0000401884201D144F0020421463846FFF740
:102AE000E2FBC448808841F6631188421DD004F09F
:102AF000200068B1BF480088BE494988884214DA7E
:102B0000BC4806884088BB490880084646800CE0DF
:102B1000B8480088B7494988884206DDB548068824
:102B20004088B449088008464680B248808845F20B
:102B3000105188427ED1AF494889FFF767FB4FF4B7
:102B40008070AD4908614000486100E029E1002043
:102B5000AA4908608020A84948610861800008618E
:102B6000A4494989491C88B2FFF750FB4FF4807093
:102B7000A1490861400048610020A0490860802008
:102B80009D4948610861800008619A494989891C0A
:102B900088B2FFF73BFB4FF4807097490861400013
:102BA000486194480088401E0012944908608020C3
:102BB000914948610861800008618E494989C91CB2
:102BC00088B2FFF723FB4FF480708B490861400007
:102BD000486188480078401EC0B28849086080205B
:102BE0008549486108618000086182498889FFF74A
:102BF0000DFB4FF48070804908614000486100205F
:102C00007E49086080207C49486108618000086135
:102C100078498989491C88B2FFF7F8FA4FF4807027
:102C200075490861400048610020744908608020AF
:102C3000714900E034E048610861800008616D4935
:102C40008989891C88B2FFF7E1FA4FF480706A49DC
:102C500008614000486167484088401E001267498B
:102C6000086080206449486108618000086161490A
:102C70008989C91C88B2FFF7C9FA4FF480705E4990
:102C80000861400048615B488078401EC0B25B49E3
:102C90000860802058494861086180000861A7E009
:102CA00054494889FFF7B2FA4FF4807052490861DD
:102CB0004000486100205149086080204E49486129
:102CC00008618000086140100861400048610020F0
:102CD0004A490860802048494861086180000861CD
:102CE000401008614000486142480088401E0012C0
:102CF00042490860802040494861086180000861BD
:102D000040100861400048613A480078401EC0B257
:102D10003A490860802038494861086180000861AC
:102D200034498889FFF772FA4FF48070324908619C
:102D30004000486100203149086080202E494861E8
:102D4000086180000861401008614000486100206F
:102D50002A4908608020284948610861800008618C
:102D6000401008614000486122484088401E00121F
:102D7000224908608020204948610861800008617C
:102D800040100861400048611A488078401EC0B277
:102D90001A4908608020184948610861800008616C
:102DA00026E0082D1CD2DFE805F004070A0D0F12FB
:102DB000151844F0300413E044F0100410E044F01F
:102DC00020040DE000BF0BE044F0380408E044F0BC
:102DD000280405E044F0180402E044F0080400BFB1
:102DE00000BF032744F4805421463846FFF75BFABE
:102DF000F0BD0000D8000020001001400C0C014084
:102E000030B504460D4629462046FFF790FAFFF7F5
:102E100066FA4FF48070FE49086140004861FD4841
:102E20000088FD4908608020F949486108618000F8
:102E3000086130BD70B504460D461646F7488088D7
:102E400049F24131884205D0F448808845F210317A
:102E5000884240D1F1494889FFF7D8F94FF4807092
:102E6000EB490861400048612012EB49086080206E
:102E7000E74948610861800008614010086140002E
:102E80004861E0B2E44908608020E1494861086196
:102E900080000861E1498889FFF7B8F94FF4807034
:102EA000DB490861400048612812DB490860802046
:102EB000D7494861086180000861401008614000FE
:102EC0004861E8B2D44908608020D149486108616E
:102ED000800008613DE1D148808845F21051884268
:102EE00050D1CE494889FFF791F94FF48070C84915
:102EF0000861400048612012C74908608020C44929
:102F00004861086180000861C4494989491C88B248
:102F1000FFF77CF94FF48070BD49086140004861BB
:102F2000E0B2BD4908608020B9494861086180006D
:102F30000861BA498889FFF769F94FF48070B4498C
:102F40000861400048612812B34908608020B049F8
:102F50004861086180000861B0498989491C88B2CC
:102F6000FFF754F94FF48070A949086140004861A7
:102F7000E8B2A94908608020A5494861086180003D
:102F80000861E6E0A548808841F6631188427DD15A
:102F9000A248807920B9A1480088401E001B84B255
:102FA0009E494889FFF732F94FF4807098490861CB
:102FB0004000486120129849086080209449486187
:102FC0000861800008614010086140004861E0B27B
:102FD0009149086080208E4948610861800008613D
:102FE000401008614000486120128B490860802031
:102FF000874948610861800008614010086140000D
:103000004861E0B2844908608020814948610861D4
:103010008000086181498889FFF7F8F84FF48070D3
:103020007B4908614000486128127B490860802084
:1030300077494861086180000861401008614000DC
:103040004861E8B2744908608020714948610861AC
:1030500080000861401008614000486128126E49F4
:10306000086080206A49486108618000086140105A
:10307000086140004861E8B26749086080206449FF
:10308000486108618000086163E0FFE76348808869
:1030900046F60401884249D160488079012804D16C
:1030A0005E480088401E001B84B25C494889FFF7D7
:1030B000ADF84FF480705649086140004861201215
:1030C00055490860802052494861086180000861C4
:1030D0004010086140004861E0B24F49086080201C
:1030E0004B4948610861800008614C498889FFF7B5
:1030F0008DF84FF4807046490861400048612812FD
:1031000045490860802042494861086180000861A3
:103110004010086140004861E8B23F4908608020E3
:103120003B49486108618000086112E03B488079B2
:10313000012804D139480088401E001B84B2374959
:1031400048892146FFF7AFF8344988892946FFF7B7
:10315000AAF84FF480702E494861400048612F481A
:1031600000892D4908608020294948610861800054
:1031700008614010086140004861274806608020CF
:10318000486108618000086170BD2DE9F041044686
:10319000BE20FFF73BF84FF480701D4908614000E6
:1031A000486105201C490860802019494861086170
:1031B000800008614010086140004861204606F028
:1031C000DEFD05464FF06632154B06F0EBFD074677
:1031D00006F0A8FD1049086080200D49486108618B
:1031E00080000861401008614000486101200A49E0
:1031F000086080200649486108618000086140102D
:10320000086140004861FF2003490860802009E010
:10321000001001402C0000200C0C0140D8000020C0
:1032200066660440FE4948610861800008614010FC
:103230000861400048610020FA4908608020F84990
:1032400048610861800008614010086140004861E1
:103250000020F44908608020F1494861086180003D
:103260000861BDE8F08110B50446002C66D1EE4936
:103270008871F02008804FF4A0704880084680884C
:1032800049F2413188420BD0E748808846F6040174
:10329000884205D0E448808845F2103188421AD12E
:1032A0002C20E14908812A2048812B20888108466A
:1032B000808846F60401884205D0DB48808845F2C4
:1032C0001031884206D14FF4A070D74908804FF4DE
:1032D000F0704880A1E0D448808845F210518842BF
:1032E00010D14FF43050D04908814FF42850488114
:1032F0004FF42C5088814FF4F07008804FF44870E0
:1033000048808AE0C848808841F6631188420DD120
:103310002C20C54908812B2048812A2088814FF420
:10332000F07008804FF44870488076E02220BE4953
:10333000088120204881212088816EE00120BA493F
:1033400088714FF4A0700880F0204880084680887B
:1033500049F24131884205D0B348808845F21031A6
:10336000884207D12C20B04908812A2048812B208F
:1033700088813FE0AC48808846F60401884207D146
:103380002C20A94908812B2048812A20888131E0FE
:10339000A548808845F21051884210D14FF4305032
:1033A000A14908814FF4285048814FF42C5088815E
:1033B0004FF4487008804FF4F07048801AE09A4843
:1033C000808841F6631188420DD12C2096490881EE
:1033D0002A2048812B2088814FF4487008804FF4C0
:1033E000F070488006E022208F4908812120488122
:1033F000202088818C48808846F60401884205D0C8
:103400008948808845F21031884206D14FF4F07027
:10341000854908804FF4A07048800020FFF7BDFA6E
:1034200010BD2DE9F04F86B004460D4690469946F2
:1034300004EB0800401E86B205EB0900401E87B26F
:103440007948808849F24131884215D07648808891
:1034500045F2103188420FD07348808846F6040147
:10346000884209D07048807901287BD16E488088D5
:1034700041F66311884275D16B494889FEF7C6FE53
:103480004FF4807066490861400048612012654928
:10349000086080206249486108618000086140102E
:1034A000086140004861E0B25E49086080205C49E4
:1034B000486108618000086140100861400048616F
:1034C00030125849086080205549486108618000E1
:1034D00008614010086140004861F0B2514908603D
:1034E00080204F4948610861800008614E49888901
:1034F000FEF78CFE4FF48070494908614000486136
:1035000028124849086080204549486108618000C8
:1035100008614010086140004861E8B24149086014
:1035200080203F49486108618000086140100861BF
:103530004000486138123B490860802038494861A2
:103540000861800008614010086140004861F8B2DD
:103550003449086080203249486108618000086170
:1035600077E1FFE73048808841F6631188427DD1DA
:103570002D480088A0EB0800001B84B205EB090071
:10358000401E1FFA80F928494889FEF73FFE4FF494
:103590008070234908614000486120122149086079
:1035A00080201F494861086180000861401008615F
:1035B00040004861E0B21B4908608020184948611A
:1035C000086180000861401008614000486104EB18
:1035D0000800401E0012134908608020104948610D
:1035E000086180000861401008614000486104EBF8
:1035F0000800401EC0B20B4908608020084948619D
:1036000008618000086108498889FEF7FFFD4FF4D2
:10361000807003490861400048612812014905E0B3
:10362000001001400C0C0140D800002008608020F0
:10363000FE4948610861800008614010086140004F
:103640004861E8B2FA4908608020F8494861086199
:103650008000086140100861400048614FEA29205D
:10366000F34908608020F149486100E011E00861F9
:1036700080000861401008614000486109F0FF00C7
:10368000EB4908608020E9494861086180000861D1
:10369000DFE0E848808845F2105188427ED1E54954
:1036A0004889FEF7B3FD4FF48070E049086140009F
:1036B00048612012DE4908608020DC4948610861C9
:1036C00080000861DB494989491C88B2FEF79EFDEC
:1036D0004FF48070D549086140004861E0B2D44998
:1036E00008608020D1494861086180000861D149A3
:1036F0004989891C88B2FEF789FD4FF48070CB4957
:103700000861400048613012C94908608020C749FB
:103710004861086180000861C6494989C91C88B2AE
:10372000FEF774FD4FF48070C049086140004861A5
:10373000F0B2BF4908608020BC4948610861800040
:103740000861BC498889FEF761FD4FF48070B74974
:103750000861400048612812B54908608020B349DB
:103760004861086180000861B2498989491C88B2B2
:10377000FEF74CFD4FF48070AC4908614000486191
:10378000E8B2AB4908608020A84948610861800020
:103790000861A8498989891C88B200E026E0FEF703
:1037A00035FD4FF48070A14908614000486138122E
:1037B0009F49086080209D49486108618000086138
:1037C0009C498989C91C88B2FEF720FD4FF480709E
:1037D0009649086140004861F8B295490860802028
:1037E0009249486108618000086132E0914880791F
:1037F00001280ED1AA46BB468E480088801B401E79
:1038000080B201908B480088001B401E80B200905F
:1038100003E0A246B3460195009750200590512041
:103820000490522003905320029051460598FEF7D1
:103830003AFD59460498FEF736FD01990398FEF7C4
:1038400032FD00990298FEF72EFD29462046FEF72C
:103850006EFD06B0BDE8F08F70B5044600267548D1
:103860000588408845437348808846F604018842AD
:1038700016D170488079012812D100206D498871D5
:103880002A2048812B20888100210846FEF74FFD21
:103890000120684988712B2048812A20888103E013
:1038A00000210846FEF743FDFEF719FD00260DE056
:1038B0004FF480705D490861400048615C480460D5
:1038C00080204861086180000861761CAE42EFD319
:1038D00070BD08B501211920FDF7E2F90121564814
:1038E000FCF7F3FF4FF4F860ADF8000010208DF8FE
:1038F000030003208DF8020069464C48FCF714FFD2
:103900004FF4F8614948FCF7BCFF4FF6FF70ADF883
:103910000000694646480C38FCF706FF4FF6FF7179
:1039200043480C38FCF7ADFF3220FEF747FB01217E
:103930000020FEF7B8FC3220FEF740FB0020FEF727
:10394000C6FC3C49888008468088FF280ADB084678
:1039500080884FF6FF71884204D036488088B0F5E1
:10396000134F62D1D320FEF751FCFEF76BFCFEF73C
:1039700069FCFEF767FC2F498880084680884FF66F
:10398000FF7101EA00202B498880FEF75BFC294982
:1039900089880843274988800846808849F2413150
:1039A000884242D0BF20FEF731FCFEF74BFCFEF709
:1039B00049FCFEF747FCFEF745FC1E498880084697
:1039C00080884FF6FF7101EA00201A498880FEF7CF
:1039D00039FC184989880843164988800846808838
:1039E00046F6040188427CD0D420FEF70FFCFEF797
:1039F00029FCFEF727FCFEF725FC0E4988800846C7
:103A000080884FF6FF7101EA00200A498880FEF79E
:103A100019FC084989880843064988800846808837
:103A200045F2103188425CD008E05AE000100140B5
:103A30000C0C0140D8000020000230004FF45A4026
:103A4000FEF7E4FBFEF7FEFB4FF45B40FEF7DEFB08
:103A5000FEF7F8FBFE498880084680884FF6FF7124
:103A600001EA0020FA4988804FF45C40FEF7CEFB63
:103A7000FEF7E8FBF64989880843F549888008463F
:103A80008088B0F5004F02D145F210508880F04890
:103A9000808845F21051884223D0A120FEF7B6FB62
:103AA000FEF7D0FBEA498880FEF7CCFBE849888026
:103AB000084680884FF6FF7101EA0020E4498880BB
:103AC000FEF7C0FBE24989880843E149888008463F
:103AD000808845F26171884203D141F66310DC4968
:103AE0008880DB48808849F2413188427ED1CF20EE
:103AF000FEF78CFB0020FEF797FBC120FEF794FB3E
:103B00003020FEF791FBED20FEF780FB6420FEF7EE
:103B10008BFB0320FEF788FB1220FEF785FB81203C
:103B2000FEF782FBE820FEF771FB8520FEF77CFBA9
:103B30001020FEF779FB7A20FEF776FBCB20FEF70C
:103B400065FB3920FEF770FB2C20FEF76DFB002093
:103B5000FEF76AFB3420FEF767FB0220FEF764FBEA
:103B6000F720FEF753FB2020FEF75EFBEA20FEF76E
:103B70004DFB0020FEF758FB0020FEF755FBC02050
:103B8000FEF744FB1B20FEF74FFBC120FEF73EFB78
:103B90000120FEF749FBC520FEF738FB3020FEF779
:103BA00043FB3020FEF740FBC720FEF72FFBB7207A
:103BB000FEF73AFB3620FEF729FB4820FEF734FBE0
:103BC0003A20FEF723FB5520FEF72EFBB120FEF72F
:103BD0001DFB0020FEF728FB1A20FEF725FBB62070
:103BE000FEF714FB0A20FEF71FFB00E097E0A2207F
:103BF000FEF71AFBF220FEF709FB0020FEF714FB8C
:103C00002620FEF703FB0120FEF70EFBE020FEF767
:103C1000FDFA0F20FEF708FB2A20FEF705FB2820FF
:103C2000FEF702FB0820FEF7FFFA0E20FEF7FCFA73
:103C30000820FEF7F9FA5420FEF7F6FAA920FEF75D
:103C4000F3FA4320FEF7F0FA0A20FEF7EDFA0F2010
:103C5000FEF7EAFA0020FEF7E7FA0020FEF7E4FAA2
:103C60000020FEF7E1FA0020FEF7DEFAE120FEF781
:103C7000CDFA0020FEF7D8FA1520FEF7D5FA172066
:103C8000FEF7D2FA0720FEF7CFFA1120FEF7CCFAA2
:103C90000620FEF7C9FA2B20FEF7C6FA5620FEF7DB
:103CA000C3FA3C20FEF7C0FA0520FEF7BDFA10204B
:103CB000FEF7BAFA0F20FEF7B7FA3F20FEF7B4FA84
:103CC0003F20FEF7B1FA0F20FEF7AEFA2B20FEF7E9
:103CD0009DFA0020FEF7A8FA0020FEF7A5FA0120C1
:103CE000FEF7A2FA3F20FEF79FFA2A20FEF78EFA8F
:103CF0000020FEF799FA0020FEF796FA0020FEF762
:103D000093FAEF20FEF790FA1120FEF77FFA782061
:103D1000FEF754F92920FEF779FA03F09CBB4C48D2
:103D2000808846F6040188427ED11120FEF76EFAA3
:103D30001420FEF743F9D020FEF768FA0720FEF7BB
:103D400073FA4220FEF770FA1D20FEF76DFAD120BB
:103D5000FEF75CFA0020FEF767FA1A20FEF764FA15
:103D60000920FEF761FAD220FEF750FA0120FEF793
:103D70005BFA2220FEF758FAC020FEF747FA10201F
:103D8000FEF752FA3B20FEF74FFA0020FEF74CFAFE
:103D90000220FEF749FA1120FEF746FAC520FEF789
:103DA00035FA0320FEF740FAC820FEF72FFA00206C
:103DB000FEF73AFA2520FEF737FA2120FEF734FA0B
:103DC0000520FEF731FA0020FEF72EFA0A20FEF752
:103DD0002BFA6520FEF728FA2520FEF725FA772032
:103DE000FEF722FA5020FEF71FFA0F20FEF71CFA0A
:103DF0000020FEF719FAF820FEF708FA0120FEF776
:103E000013FAFE20FEF702FA0020FEF70DFA022058
:103E1000FEF70AFA2020FEF7F9F93620FEF7F6F948
:103E20000820FEF701FA00E02DE03A20FEF7EEF957
:103E30005520FEF7F9F92B20FEF7E8F90020FEF7F0
:103E4000F3F90020FEF7F0F90120FEF7EDF901E0AB
:103E5000D80000203F20FEF7E7F92A20FEF7D6F928
:103E60000020FEF7E1F90020FEF7DEF90120FEF761
:103E7000DBF9DF20FEF7D8F97820FEF79FF829203C
:103E8000FEF7C4F949E7FE48808845F210318842C0
:103E900040F07C87ED20FEF7B9F90120FEF7C4F968
:103EA000FE20FEF7C1F9EE20FEF7B0F9DE20FEF7A6
:103EB000BBF92120FEF7B8F9F120FEF7A7F90120A0
:103EC000FEF7B2F9DF20FEF7A1F91020FEF7ACF9FA
:103ED000C420FEF79BF98F20FEF7A6F9C620FEF757
:103EE00095F90020FEF7A0F9E220FEF79DF9E22007
:103EF000FEF79AF9E220FEF797F9BF20FEF786F960
:103F0000AA20FEF791F9B020FEF780F90D20FEF708
:103F10008BF90020FEF788F90D20FEF785F90020C7
:103F2000FEF782F91120FEF77FF90020FEF77CF9F9
:103F30001920FEF779F90020FEF776F92120FEF727
:103F400073F90020FEF770F92D20FEF76DF90020BF
:103F5000FEF76AF93D20FEF767F90020FEF764F9E5
:103F60005D20FEF761F90020FEF75EF95D20FEF7A7
:103F70005BF90020FEF758F9B120FEF747F98020E1
:103F8000FEF752F90020FEF74FF98B20FEF74CF9AF
:103F90000020FEF749F99620FEF746F90020FEF7CB
:103FA00043F9B220FEF732F90020FEF73DF9002078
:103FB000FEF73AF90220FEF737F90020FEF734F950
:103FC0000320FEF731F90020FEF72EF9B320FEF7AB
:103FD0001DF90020FEF728F90020FEF725F9002042
:103FE000FEF722F90020FEF71FF90020FEF71CF96A
:103FF0000020FEF719F90020FEF716F90020FEF761
:1040000013F90020FEF710F90020FEF70DF900204B
:10401000FEF70AF90020FEF707F90020FEF704F981
:104020000020FEF701F90020FEF7FEF80020FEF761
:10403000FBF80020FEF7F8F80020FEF7F5F8002066
:10404000FEF7F2F80020FEF7EFF80020FEF7ECF89C
:104050000020FEF7E9F80020FEF7E6F80020FEF762
:10406000E3F8B420FEF7D2F88B20FEF7DDF800204D
:10407000FEF7DAF89620FEF7D7F80020FEF7D4F81E
:10408000A120FEF7D1F80020FEF7CEF8B520FEF70C
:10409000BDF80220FEF7C8F80020FEF7C5F803209F
:1040A000FEF7C2F80020FEF7BFF80420FEF7BCF8C8
:1040B0000020FEF7B9F8B620FEF7A8F80020FEF7BA
:1040C000B3F80020FEF7B0F8B720FEF79FF8002005
:1040D000FEF7AAF80020FEF7A7F83F20FEF7A4F8A5
:1040E0000020FEF7A1F85E20FEF79EF80020FEF704
:1040F0009BF86420FEF798F80020FEF795F88C20D6
:10410000FEF792F80020FEF78FF8AC20FEF78CF84F
:104110000020FEF789F8DC20FEF786F80020FEF785
:1041200083F87020FEF780F80020FEF77DF89020DD
:10413000FEF77AF80020FEF777F8EB20FEF774F828
:104140000020FEF771F8DC20FEF76EF80020FEF785
:104150006BF8B820FEF75AF80020FEF765F800204B
:10416000FEF762F80020FEF75FF80020FEF75CF82B
:104170000020FEF759F80020FEF756F80020FEF761
:1041800053F80020FEF750F8BA20FEF73FF824203D
:10419000FEF74AF80020FEF747F80020FEF744F843
:1041A0000020FEF741F8C120FEF730F82020FEF78E
:1041B0003BF80020FEF738F85420FEF735F80020D1
:1041C000FEF732F8FF20FEF72FF80020FEF72CF85C
:1041D000C220FEF71BF80A20FEF726F80020FEF7A3
:1041E00023F80420FEF720F80020FEF71DF8C32076
:1041F000FEF70CF83C20FEF717F80020FEF714F845
:104200003A20FEF711F80020FEF70EF83920FEF7ED
:104210000BF80020FEF708F83720FEF705F800201D
:10422000FEF702F83C20FDF7FFFF0020FDF7FCFF42
:104230003620FDF7F9FF0020FDF7F6FF3220FDF7ED
:10424000F3FF0020FDF7F0FF2F20FDF7EDFF00202A
:10425000FDF7EAFF2C20FDF7E7FF0020FDF7E4FF64
:104260002920FDF7E1FF0020FDF7DEFF2620FDF706
:10427000DBFF0020FDF7D8FF2420FDF7D5FF01E08C
:10428000D80000200020FDF7CFFF2420FDF7CCFF51
:104290000020FDF7C9FF2320FDF7C6FF0020FDF732
:1042A000C3FF3C20FDF7C0FF0020FDF7BDFF362017
:1042B000FDF7BAFF0020FDF7B7FF3220FDF7B4FF8E
:1042C0000020FDF7B1FF2F20FDF7AEFF0020FDF726
:1042D000ABFF2C20FDF7A8FF0020FDF7A5FF29204C
:1042E000FDF7A2FF0020FDF79FFF2620FDF79CFFB2
:1042F0000020FDF799FF2420FDF796FF0020FDF731
:1043000093FF2420FDF790FF0020FDF78DFF232071
:10431000FDF78AFF0020FDF787FFC420FDF776FF39
:104320006220FDF781FF0020FDF77EFF0520FDF7ED
:104330007BFF0020FDF778FF8420FDF775FF00204C
:10434000FDF772FFF020FDF76FFF0020FDF76CFF17
:104350001820FDF769FF0020FDF766FFA420FDF798
:1043600063FF0020FDF760FF1820FDF75DFF0020D0
:10437000FDF75AFF5020FDF757FF0020FDF754FFCF
:104380000C20FDF751FF0020FDF74EFF1720FDF731
:104390004BFF0020FDF748FF9520FDF745FF00206B
:1043A000FDF742FFF320FDF73FFF0020FDF73CFF44
:1043B000E620FDF739FF0020FDF736FFC520FDF7A9
:1043C00025FF3220FDF730FF0020FDF72DFF4420B0
:1043D000FDF72AFF0020FDF727FF6520FDF724FFEA
:1043E0000020FDF721FF7620FDF71EFF0020FDF7DE
:1043F0001BFF8820FDF718FF0020FDF715FFC620E2
:10440000FDF704FF2020FDF70FFF0020FDF70CFF54
:104410001720FDF709FF0020FDF706FF0120FDF73B
:1044200003FF0020FDF700FFC720FDF7EFFE00208F
:10443000FDF7FAFE0020FDF7F7FE0020FDF7F4FE81
:104440000020FDF7F1FEC820FDF7E0FE0020FDF79B
:10445000EBFE0020FDF7E8FE0020FDF7E5FE002062
:10446000FDF7E2FEC920FDF7D1FE0020FDF7DCFEDE
:104470000020FDF7D9FE0020FDF7D6FE0020FDF755
:10448000D3FE0020FDF7D0FE0020FDF7CDFE00207A
:10449000FDF7CAFE0020FDF7C7FE0020FDF7C4FEB1
:1044A0000020FDF7C1FE0020FDF7BEFE0020FDF755
:1044B000BBFE0020FDF7B8FE0020FDF7B5FE002092
:1044C000FDF7B2FE0020FDF7AFFEE020FDF79EFEF7
:1044D0001620FDF7A9FE0020FDF7A6FE1C20FDF723
:1044E000A3FE0020FDF7A0FE2120FDF79DFE002089
:1044F000FDF79AFE3620FDF797FE0020FDF794FEAB
:104500004620FDF791FE0020FDF78EFE5220FDF7BC
:104510008BFE0020FDF788FE6420FDF785FE00205D
:10452000FDF782FE7A20FDF77FFE0020FDF77CFE7E
:104530008B20FDF779FE0020FDF776FE9920FDF730
:1045400073FE0020FDF770FEA820FDF76DFE002031
:10455000FDF76AFEB920FDF767FE0020FDF764FE57
:10456000C420FDF761FE0020FDF75EFECA20FDF7C6
:104570005BFE0020FDF758FED220FDF755FE00201F
:10458000FDF752FED920FDF74FFE0020FDF74CFE4F
:10459000E020FDF749FE0020FDF746FEF320FDF781
:1045A00043FE0020FDF740FEE120FDF72FFE162020
:1045B000FDF73AFE0020FDF737FE1C20FDF734FE24
:1045C0000020FDF731FE2220FDF72EFE0020FDF732
:1045D0002BFE3620FDF728FE0020FDF725FE4520A6
:1045E000FDF722FE0020FDF71FFE5220FDF71CFE06
:1045F0000020FDF719FE6420FDF716FE0020FDF7F0
:1046000013FE7A20FDF710FE0020FDF70DFE8B2033
:10461000FDF70AFE0020FDF707FE9920FDF704FED6
:104620000020FDF701FEA820FDF7FEFD0020FDF7AC
:10463000FBFDB920FDF7F8FD0020FDF7F5FDC420D6
:10464000FDF7F2FD0020FDF7EFFDCA20FDF7ECFDC0
:104650000020FDF7E9FDD220FDF7E6FD0020FDF783
:10466000E3FDD820FDF7E0FD0020FDF7DDFDE020B3
:10467000FDF7DAFD0020FDF7D7FDF320FDF7D4FDAF
:104680000020FDF7D1FDE220FDF7C0FD0520FDF77C
:10469000CBFD0020FDF7C8FD0B20FDF7C5FD002078
:1046A000FDF7C2FD1B20FDF7BFFD0020FDF7BCFD9F
:1046B0003420FDF7B9FD0020FDF7B6FD4420FDF7DD
:1046C000B3FD0020FDF7B0FD4F20FDF7ADFD00204C
:1046D000FDF7AAFD6120FDF7A7FD0020FDF7A4FD71
:1046E0007920FDF7A1FD0020FDF79EFD8820FDF754
:1046F0009BFD0020FDF798FD9720FDF795FD00201C
:10470000FDF792FDA620FDF78FFD0020FDF78CFD43
:10471000B720FDF789FD0020FDF786FDC220FDF7DB
:1047200083FD0020FDF780FDC720FDF77DFD002003
:10473000FDF77AFDD120FDF777FD0020FDF774FD30
:10474000D620FDF771FD0020FDF76EFDDD20FDF7A1
:104750006BFD0020FDF768FDF320FDF765FD0020EF
:10476000FDF762FDE320FDF751FD0520FDF75CFD3F
:104770000020FDF759FD0A20FDF756FD0020FDF74A
:1047800053FD1C20FDF750FD0020FDF74DFD3320AB
:10479000FDF74AFD0020FDF747FD4420FDF744FDED
:1047A0000020FDF741FD5020FDF73EFD0020FDF704
:1047B0003BFD6220FDF738FD0020FDF735FD782038
:1047C000FDF732FD0020FDF72FFD8820FDF72CFDC1
:1047D0000020FDF729FD9720FDF726FD0020FDF7BD
:1047E00023FDA620FDF720FD0020FDF71DFDB720CD
:1047F000FDF71AFD0020FDF717FDC220FDF714FD9F
:104800000020FDF711FDC720FDF70EFD0020FDF78C
:104810000BFDD120FDF708FD0020FDF705FDD5209B
:10482000FDF702FD0020FDF7FFFCDD20FDF7FCFC9D
:104830000020FDF7F9FCF320FDF7F6FC0020FDF762
:10484000F3FCE420FDF7E2FC0120FDF7EDFC002085
:10485000FDF7EAFC0120FDF7E7FC0020FDF7E4FC92
:104860000220FDF7E1FC0020FDF7DEFC2A20FDF729
:10487000DBFC0020FDF7D8FC3C20FDF7D5FC002038
:10488000FDF7D2FC4B20FDF7CFFC0020FDF7CCFC60
:104890005D20FDF7C9FC0020FDF7C6FC7420FDF784
:1048A000C3FC0020FDF7C0FC8420FDF7BDFC002008
:1048B000FDF7BAFC9320FDF7B7FC0020FDF7B4FC30
:1048C000A220FDF7B1FC0020FDF7AEFCB320FDF700
:1048D000ABFC0020FDF7A8FCBE20FDF7A5FC0020E6
:1048E000FDF7A2FCC420FDF79FFC0020FDF79CFC17
:1048F000CD20FDF799FC0020FDF796FCD320FDF7B5
:1049000093FC0020FDF790FCDD20FDF78DFC0020DE
:10491000FDF78AFCF320FDF787FC0020FDF784FCFF
:10492000E520FDF773FC0020FDF77EFC0020FDF77D
:104930007BFC0020FDF778FC0020FDF775FC0220D1
:10494000FDF772FC0020FDF76FFC2920FDF76CFCE1
:104950000020FDF769FC3C20FDF766FC0020FDF718
:1049600063FC4B20FDF760FC0020FDF75DFC5D2043
:10497000FDF75AFC0020FDF757FC7420FDF754FCAE
:104980000020FDF751FC8420FDF74EFC0020FDF7D0
:104990004BFC9320FDF748FC0020FDF745FCA220CE
:1049A000FDF742FC0020FDF73FFCB320FDF73CFC87
:1049B0000020FDF739FCBE20FDF736FC0020FDF796
:1049C00033FCC420FDF730FC0020FDF72DFCCD208A
:1049D000FDF72AFC0020FDF727FCD320FDF724FC7F
:1049E0000020FDF721FCDC20FDF71EFC0020FDF778
:1049F0001BFCF320FDF718FC0020FDF715FCE6205A
:104A0000FDF704FC1120FDF70FFC0020FDF70CFC66
:104A10003420FDF709FC0020FDF706FC5620FDF7C9
:104A200003FC0020FDF700FC7620FDF7FDFB0020D5
:104A3000FDF7FAFB7720FDF7F7FB0020FDF7F4FB0D
:104A40006620FDF7F1FB0020FDF7EEFB8820FDF767
:104A5000EBFB0020FDF7E8FB9920FDF7E5FB0020CC
:104A6000FDF7E2FBBB20FDF7DFFB0020FDF7DCFBE1
:104A70009920FDF7D9FB0020FDF7D6FB6620FDF756
:104A8000D3FB0020FDF7D0FB5520FDF7CDFB002028
:104A9000FDF7CAFB5520FDF7C7FB0020FDF7C4FB5F
:104AA0004520FDF7C1FB0020FDF7BEFB4320FDF7CD
:104AB000BBFB0020FDF7B8FB4420FDF7B5FB002051
:104AC000FDF7B2FBE720FDF7A1FB3220FDF7ACFBC1
:104AD0000020FDF7A9FB5520FDF7A6FB0020FDF700
:104AE000A3FB7620FDF7A0FB0020FDF79DFB6620D1
:104AF000FDF79AFB0020FDF797FB6720FDF794FB7D
:104B00000020FDF791FB6720FDF78EFB0020FDF7ED
:104B10008BFB8720FDF788FB0020FDF785FB9920A4
:104B2000FDF782FB0020FDF77FFBBB20FDF77CFB40
:104B30000020FDF779FB9920FDF776FB0020FDF7BB
:104B400073FB7720FDF770FB0020FDF76DFB442021
:104B5000FDF76AFB0020FDF767FB5620FDF764FBBD
:104B60000020FDF761FB2320FDF75EFB0020FDF731
:104B70005BFB3320FDF758FB0020FDF755FB45207C
:104B8000FDF752FB0020FDF74FFBE820FDF73EFB51
:104B90000020FDF749FB0020FDF746FB9920FDF7BB
:104BA00043FB0020FDF740FB8720FDF73DFB002085
:104BB000FDF73AFB8820FDF737FB0020FDF734FBBB
:104BC0007720FDF731FB0020FDF72EFB6620FDF777
:104BD0002BFB0020FDF728FB8820FDF725FB00209C
:104BE000FDF722FBAA20FDF71FFB0020FDF71CFBB1
:104BF000BB20FDF719FB0020FDF716FB9920FDF700
:104C000013FB0020FDF710FB6620FDF70DFB0020D5
:104C1000FDF70AFB5520FDF707FB0020FDF704FB1D
:104C20005520FDF701FB0020FDF7FEFA4420FDF7BB
:104C3000FBFA0020FDF7F8FA4420FDF7F5FA002012
:104C4000FDF7F2FA5520FDF7EFFA0020FDF7ECFA38
:104C5000E920FDF7DBFAAA20FDF7E6FA0020FDF7D0
:104C6000E3FA0020FDF7E0FA0020FDF7DDFA00206E
:104C7000FDF7CCFAAA20FDF7D7FACF20FDF7C6FA48
:104C80000020FDF7D1FA0020FDF7CEFA0020FDF755
:104C9000CBFA0020FDF7C8FA0020FDF7C5FA002086
:104CA000FDF7C2FA0020FDF7BFFA0020FDF7BCFABD
:104CB0000020FDF7B9FA0020FDF7B6FA0020FDF755
:104CC000B3FA0020FDF7B0FA0020FDF7ADFA00209E
:104CD000FDF7AAFA0020FDF7A7FA0020FDF7A4FAD5
:104CE0000020FDF7A1FAF020FDF790FA0020FDF773
:104CF0009BFA5020FDF798FA0020FDF795FA002066
:104D0000FDF792FA0020FDF78FFAF320FDF77EFA07
:104D10000020FDF789FAF920FDF778FA0620FDF763
:104D200083FA1020FDF780FA2920FDF77DFA002094
:104D3000FDF77AFA3A20FDF769FA5520FDF774FA83
:104D40001120FDF763FA6420FDF738F92920FDF7FB
:104D50005DFA3520FDF75AFA0020FDF765FA51207B
:104D6000FDF754FAFF20FDF75FFA5320FDF74EFAE6
:104D70002C20FDF759FA5520FDF748FA8220FDF75F
:104D800053FA2C20FDF742FA02F065BBFE488088FA
:104D900045F2105188427DD155214FF47040FDF706
:104DA00082FAAA214FF20100FDF77DFA52214FF25B
:104DB0000200FDF778FA08214FF20300FDF773FABD
:104DC00001214FF20400FDF76EFA0D214FF430403F
:104DD000FDF769FA0D214BF20100FDF764FA0D2190
:104DE0004BF20200FDF75FFA34214FF43640FDF735
:104DF0005AFA34214BF20160FDF755FA34214BF297
:104E00000260FDF750FA0D214FF43140FDF74BFAE7
:104E10000D214BF20110FDF746FA0D214BF2021065
:104E2000FDF741FA34214FF43740FDF73CFA3421C5
:104E30004BF20170FDF737FA34214BF20270FDF7A7
:104E400032FA00214FF43240FDF72DFA00214BF2E7
:104E50000120FDF728FA00214BF20220FDF723FA8A
:104E600024214FF43840FDF71EFA24214BF60100AF
:104E7000FDF719FA24214BF60200FDF714FA01217F
:104E80004FF43F40FDF70FFA0F214FF43340FDF789
:104E90000AFA00E0FDE30F214BF20130FDF703FABF
:104EA0000F214BF20230FDF7FEF934214FF4394067
:104EB000FDF7F9F934214BF60110FDF7F4F934212F
:104EC0004BF60210FDF7EFF908214FF43540FDF7DE
:104ED000EAF908214BF20150FDF7E5F908214BF200
:104EE0000250FDF7E0F903214FF44240FDF7DBF9F2
:104EF00024214FF43A40FDF7D6F924214BF6012046
:104F0000FDF7D1F924214BF60220FDF7CCF9002161
:104F10004FF43C40FDF7C7F978214BF60140FDF70F
:104F2000C2F900214BF60240FDF7BDF900214FF414
:104F30003D40FDF7B8F978214BF60150FDF7B3F984
:104F400000214BF60250FDF7AEF900214FF43E4030
:104F5000FDF7A9F964214BF60160FDF7A4F90021E2
:104F60004FF45140FDF79FF933214DF20110FDF749
:104F70009AF900214DF20210FDF795F934214DF216
:104F80000310FDF790F900214DF20410FDF78BF9A5
:104F90003A214DF20510FDF786F900214DF2061079
:104FA000FDF781F94A214DF20710FDF77CF9002148
:104FB0004DF20810FDF777F95C214DF20910FDF76D
:104FC00072F900214DF20A10FDF76DF981214DF2C1
:104FD0000B10FDF768F900214DF20C10FDF763F995
:104FE000A6214DF20D10FDF75EF900214DF20E10D5
:104FF000FDF759F9E5214DF20F10FDF754F90121A4
:105000004DF21010FDF74FF913214DF21110FDF77D
:105010004AF901214DF21210FDF745F954214DF2E4
:105020001310FDF740F901214DF21410FDF73BF983
:1050300082214DF21510FDF736F901214DF21610BF
:10504000FDF731F9CA214DF21710FDF72CF90221B5
:105050004DF21810FDF727F900214DF21910FDF758
:1050600022F902214DF21A10FDF71DF901214DF22E
:105070001B10FDF718F902214DF21C10FDF713F972
:1050800034214DF21D10FDF70EF902214DF21E10D4
:10509000FDF709F967214DF21F10FDF704F9022110
:1050A0004DF22010FDF7FFF884214DF22110FDF79D
:1050B000FAF802214DF22210FDF7F5F8A4214DF285
:1050C0002310FDF7F0F802214DF22410FDF7EBF864
:1050D000B7214DF22510FDF7E6F802214DF226101A
:1050E000FDF7E1F8CF214DF22710FDF7DCF80221A2
:1050F0004DF22810FDF7D7F8DE214DF22910FDF70B
:10510000D2F802214DF22A10FDF7CDF8F2214DF22E
:105110002B10FDF7C8F802214DF22C10FDF7C3F853
:10512000FE214DF22D10FDF7BEF803214DF22E1099
:10513000FDF7B9F810214DF22F10FDF7B4F8032157
:105140004DF23010FDF7AFF833214DF23110FDF77D
:10515000AAF803214DF23210FDF7A5F86D214DF2AA
:105160003310FDF7A0F800214FF45240FDF79BF8F3
:1051700033214DF20120FDF796F800214DF2022077
:10518000FDF791F8342101E0D80000204DF2032012
:10519000FDF789F800214DF20420FDF784F83A214B
:1051A0004DF20520FDF77FF800214DF20620FDF7B6
:1051B0007AF84A214DF20720FDF775F800214DF2EB
:1051C0000820FDF770F85C214DF20920FDF76BF81F
:1051D00000214DF20A20FDF766F881214DF20B20E7
:1051E000FDF761F800214DF20C20FDF75CF8A621D7
:1051F0004DF20D20FDF757F800214DF20E20FDF77E
:1052000052F8E5214DF20F20FDF74DF801214DF246
:105210001020FDF748F813214DF21120FDF743F857
:1052200001214DF21220FDF73EF854214DF21320DA
:10523000FDF739F801214DF21420FDF734F88221F1
:105240004DF21520FDF72FF801214DF21620FDF744
:105250002AF8CA214DF21720FDF725F802214DF258
:105260001820FDF720F800214DF21920FDF71BF85A
:1052700002214DF21A20FDF716F801214DF21B20F4
:10528000FDF711F802214DF21C20FDF70CF8342136
:105290004DF21D20FDF707F802214DF21E20FDF70B
:1052A00002F867214DF21F20FCF7FDFF02214DF2AD
:1052B0002020FCF7F8FF84214DF22120FCF7F3FFBA
:1052C00002214DF22220FCF7EEFFA4214DF2232013
:1052D000FCF7E9FF02214DF22420FCF7E4FFB7219F
:1052E0004DF22520FCF7DFFF02214DF22620FCF7CE
:1052F000DAFFCF214DF22720FCF7D5FF02214DF236
:105300002820FCF7D0FFDE214DF22920FCF7CBFF4F
:1053100002214DF22A20FCF7C6FFF2214DF22B208C
:10532000FCF7C1FF02214DF22C20FCF7BCFFFE214F
:105330004DF22D20FCF7B7FF03214DF22E20FCF794
:10534000B2FF10214DF22F20FCF7ADFF03214DF2EB
:105350003020FCF7A8FF33214DF23120FCF7A3FFEA
:1053600003214DF23220FCF79EFF6D214DF23320D8
:10537000FCF799FF00214FF45340FCF794FF3321D1
:105380004DF20130FCF78FFF00214DF20230FCF7A7
:105390008AFF34214DF20330FCF785FF00214DF2E6
:1053A0000430FCF780FF3A214DF20530FCF77BFF1B
:1053B00000214DF20630FCF776FF4A214DF207300E
:1053C000FCF771FF00214DF20830FCF76CFF5C2107
:1053D0004DF20930FCF767FF00214DF20A30FCF76F
:1053E00062FF81214DF20B30FCF75DFF00214DF291
:1053F0000C30FCF758FFA6214DF20D30FCF753FF9F
:1054000000214DF20E30FCF74EFFE5214DF20F303A
:10541000FCF749FF01214DF21030FCF744FF132146
:105420004DF21130FCF73FFF01214DF21230FCF735
:105430003AFF54214DF21330FCF735FF01214DF2B4
:105440001430FCF730FF82214DF21530FCF72BFFB2
:1054500001214DF21630FCF726FFCA214DF217301C
:10546000FCF721FF02214DF21830FCF71CFF002150
:105470004DF21930FCF717FF02214DF21A30FCF7FC
:1054800012FF01214DF21B30FCF70DFF02214DF2FE
:105490001C30FCF708FF34214DF21D30FCF703FFF0
:1054A00002214DF21E30FCF7FEFE67214DF21F3047
:1054B000FCF7F9FE02214DF22030FCF7F4FE8421C6
:1054C0004DF22130FCF7EFFE02214DF22230FCF7C5
:1054D000EAFEA4214DF22330FCF7E5FE02214DF255
:1054E0002430FCF7E0FEB7214DF22530FCF7DBFE5F
:1054F00002214DF22630FCF7D6FECF214DF22730A7
:10550000FCF7D1FE02214DF22830FCF7CCFEDE2163
:105510004DF22930FCF7C7FE02214DF22A30FCF78C
:10552000C2FEF2214DF22B30FCF7BDFE02214DF2FE
:105530002C30FCF7B8FEFE214DF22D30FCF7B3FE07
:1055400003214DF22E30FCF7AEFE10214DF22F302C
:10555000FCF7A9FE03214DF23030FCF7A4FE332105
:105560004DF23130FCF79FFE03214DF23230FCF753
:105570009AFE6D214DF23330FCF795FE00214FF479
:105580005440FCF790FE33214DF20140FCF78BFEB6
:1055900000214DF20240FCF786FE34214DF203401B
:1055A000FCF781FE00214DF20440FCF77CFE3A211D
:1055B0004DF20540FCF777FE00214DF20640FCF766
:1055C00072FE4A214DF20740FCF76DFE00214DF2BC
:1055D0000840FCF768FE5C214DF20940FCF763FED1
:1055E00000214DF20A40FCF75EFE81214DF20B4096
:1055F000FCF759FE00214DF20C40FCF754FEA621A9
:105600004DF20D40FCF74FFE00214DF20E40FCF72D
:105610004AFEE5214DF20F40FCF745FE01214DF217
:105620001040FCF740FE13214DF21140FCF73BFE09
:1056300001214DF21240FCF736FE54214DF2134089
:10564000FCF731FE01214DF21440FCF72CFE8221C3
:105650004DF21540FCF727FE01214DF21640FCF7F4
:1056600022FECA214DF21740FCF71DFE02214DF229
:105670001840FCF718FE00214DF21940FCF713FE0C
:1056800002214DF21A40FCF70EFE01214DF21B40A3
:1056900000E006E3FCF707FE02214DF21C40FCF798
:1056A00002FE34214DF21D40FCF7FDFD02214DF2BA
:1056B0001E40FCF7F8FD67214DF21F40FCF7F3FD9B
:1056C00002214DF22040FCF7EEFD84214DF22140F5
:1056D000FCF7E9FD02214DF22240FCF7E4FDA42194
:1056E0004DF22340FCF7DFFD02214DF22440FCF790
:1056F000DAFDB7214DF22540FCF7D5FD02214DF230
:105700002640FCF7D0FDCF214DF22740FCF7CBFD22
:1057100002214DF22840FCF7C6FDDE214DF2294062
:10572000FCF7C1FD02214DF22A40FCF7BCFDF2213D
:105730004DF22B40FCF7B7FD02214DF22C40FCF757
:10574000B2FDFE214DF22D40FCF7ADFD03214DF2DF
:105750002E40FCF7A8FD10214DF22F40FCF7A3FDD1
:1057600003214DF23040FCF79EFD33214DF23140D4
:10577000FCF799FD03214DF23240FCF794FD6D21B9
:105780004DF23340FCF78FFD00214FF45540FCF7FC
:105790008AFD33214DF20150FCF785FD00214DF2C9
:1057A0000250FCF780FD34214DF20350FCF77BFDE5
:1057B00000214DF20450FCF776FD3A214DF20550E0
:1057C000FCF771FD00214DF20650FCF76CFD4A21FB
:1057D0004DF20750FCF767FD00214DF20850FCF731
:1057E00062FD5C214DF20950FCF75DFD00214DF298
:1057F0000A50FCF758FD81214DF20B50FCF753FD88
:1058000000214DF20C50FCF74EFDA6214DF20D503B
:10581000FCF749FD00214DF20E50FCF744FDE52157
:105820004DF20F50FCF73FFD01214DF21050FCF7F7
:105830003AFD13214DF21150FCF735FD01214DF2D7
:105840001250FCF730FD54214DF21350FCF72BFDA4
:1058500001214DF21450FCF726FD82214DF2155026
:10586000FCF721FD01214DF21650FCF71CFDCA2169
:105870004DF21750FCF717FD02214DF21850FCF7BE
:1058800012FD00214DF21950FCF70DFD02214DF2E1
:105890001A50FCF708FD01214DF21B50FCF703FDE7
:1058A00002214DF21C50FCF7FEFC34214DF21D503C
:1058B000FCF7F9FC02214DF21E50FCF7F4FC6721C5
:1058C0004DF21F50FCF7EFFC02214DF22050FCF787
:1058D000EAFC84214DF22150FCF7E5FC02214DF257
:1058E0002250FCF7E0FCA4214DF22350FCF7DBFC36
:1058F00002214DF22450FCF7D6FCB7214DF2255081
:10590000FCF7D1FC02214DF22650FCF7CCFCCF2154
:105910004DF22750FCF7C7FC02214DF22850FCF74E
:10592000C2FCDE214DF22950FCF7BDFC02214DF2F4
:105930002A50FCF7B8FCF2214DF22B50FCF7B3FCD7
:1059400002214DF22C50FCF7AEFCFE214DF22D5001
:10595000FCF7A9FC03214DF22E50FCF7A4FC10210A
:105960004DF22F50FCF79FFC03214DF23050FCF715
:105970009AFC33214DF23150FCF795FC03214DF296
:105980003250FCF790FC6D214DF23350FCF78BFC4C
:1059900000214FF45640FCF786FC33214DF20160A4
:1059A000FCF781FC00214DF20260FCF77CFC342105
:1059B0004DF20360FCF777FC00214DF20460FCF728
:1059C00072FC3A214DF20560FCF76DFC00214DF2AE
:1059D0000660FCF768FC4A214DF20760FCF763FCA7
:1059E00000214DF20860FCF75EFC5C214DF209607D
:1059F000FCF759FC00214DF20A60FCF754FC8121B0
:105A00004DF20B60FCF74FFC00214DF20C60FCF7EF
:105A10004AFCA6214DF20D60FCF745FC00214DF239
:105A20000E60FCF740FCE5214DF20F60FCF73BFCFB
:105A300001214DF21060FCF736FC13214DF211608C
:105A4000FCF731FC01214DF21260FCF72CFC5421D3
:105A50004DF21360FCF727FC01214DF21460FCF7B6
:105A600022FC82214DF21560FCF71DFC01214DF254
:105A70001660FCF718FCCA214DF21760FCF713FC06
:105A800002214DF21860FCF70EFC00214DF2196066
:105A9000FCF709FC02214DF21A60FCF704FC01211D
:105AA0004DF21B60FCF7FFFB02214DF21C60FCF77E
:105AB000FAFB34214DF21D60FCF7F5FB02214DF29B
:105AC0001E60FCF7F0FB67214DF21F60FCF7EBFB5B
:105AD00002214DF22060FCF7E6FB84214DF22160AB
