:020000040800F2
:100000004804002005010008215700086507000882
:100010001D5700088B0500080D5F00080000000058
:100020000000000000000000000000003959000836
:100030008F05000800000000415800080D5B000813
:100040001F0100081F0100081F0100081F01000810
:100050001F0100081F0100081F0100081F01000800
:100060001F0100081F0100081F0100081F010008F0
:100070001F0100081F0100081F0100081F010008E0
:100080001F0100081F0100081F0100081F010008D0
:100090001F0100081F0100081F0100081F010008C0
:1000A0001F010008715B00081F0100081F01000804
:1000B0009D5B00081F0100081F0100081F010008C8
:1000C0001F0100081F0100081F0100081F01000890
:1000D0001F0100081F0100081F0100081F01000880
:1000E0001F0100081F0100081F010008DFF810D0E1
:1000F00000F02AFA00480047AD640008AFF3008022
:10010000480400200648804706480047FEE7FEE70F
:10011000FEE7FEE7FEE7FEE7FEE7FEE7FEE7FEE7B7
:10012000115B0008ED000008F0B480EA0102D40F72
:100130004200B2EB410F02D20246084611464A0085
:1001400042D0C30DDDB2C1F3C752AD1A202D35DA4E
:10015000C1F3160141F4000204B15242C5F1200678
:1001600002FA06F12A411044B3EBD05F23D0C4B1A8
:10017000012DA0EBC35009DCF0BC4FF0004202EAB5
:10018000C352DBB200F5000000F053B9400000F1AB
:10019000807000EBC350A0F1807040EAD17049003C
:1001A00009E0490841EAC071A0EBC35000F5000026
:1001B000400800EBC350F0BC00F032B961420122AC
:1001C00002EB4101001BF6E7F0BC704781F00041F3
:1001D000AAE780F00040A7E780EA010210B502F02C
:1001E0000043400022D04A001FD0010E01EB1261F3
:1001F000C0F35600C2F3560240F4000042F400027D
:10020000A0FB022000047F39140400D0401C50EAF7
:10021000124001D44000491EC2B20C0604EBD010BB
:10022000401C4008802A02D003E0002010BD20F0CE
:100230000100002900DA0020184310BD2DE9FE4F0F
:1002400081EA030404F0004421F0004100944FF0DF
:10025000000B23F0004350EA01045ED052EA03048D
:100260005BD0C3F30A54C1F30A552C44A4F2F3340F
:100270000194A0FB0254C1F3130141F48011C3F3B4
:10028000130343F4801301FB024400FB034E840A72
:10029000970A44EA815447EA8357A4FB076802950A
:1002A0008D0A05FB07854FEA932C04FB0C542705A8
:1002B000029D4FEA065847EA1637B5EB08056EEB84
:1002C000070C870E920E47EA811742EA8312A7FBBA
:1002D0000201B6EB0B0164EB00042B0D43EA0C3377
:1002E0005E1844EB1C50DA465146E7FB0201C5F3A9
:1002F00013044FEA0B3343EA14534FEA0432019CD0
:1003000043EA0603A4F10C040294009CCDE900B476
:1003100000F0CCF803B0BDE8F08F00200146F9E70B
:1003200096230022114600F084B80EB540F2334106
:1003300002910021CDE900110A460B4600F0B6F803
:1003400003B000BD20F00040C10DC0F3160040F422
:1003500000007F2901DA00207047962903DCC1F1F3
:100360009601C8407047963988407047C1F30A52D9
:1003700010B5C1F3130140F2FF3341F480119A42EA
:1003800001DA002010BD40F233439A42A2F2334218
:1003900003DC524200F034F810BD904010BD2DE94E
:1003A000F05F0546002092469B46884606468146F9
:1003B00040241BE0284641464746224600F020F8EC
:1003C00053465A46C01A914110D311461846224648
:1003D00000F0CCF82D1A67EB01084F4622460120A9
:1003E000002100F0C3F817EB00094E41201EA4F1D4
:1003F0000104DFDC484631462A464346BDE8F09F0B
:10040000202A04DB203A21FA02F00021704721FA69
:1004100002F3D040C2F120029140084319467047D0
:100420000029A8BF7047401C490008BF20F0010008
:10043000704710B4B0FA80FC00FA0CF050EA0104E6
:1004400004BF10BC704749B1CCF1200421FA04F478
:1004500011FA0CF118BF012121430843A3EB0C0151
:10046000CB1D4FEA00614FEA102042BF002010BCB4
:10047000704700EBC35010440029A4BF10BC704764
:10048000401C490008BF20F0010010BC704710B5A7
:10049000141E73F1000408DA401C41F100019218A7
:1004A0005B411A4301D120F0010010BD2DE9F04D50
:1004B00092469B4611B1B1FA81F202E0B0FA80F2A5
:1004C0002032904600F052F804460F4640EA0A00F7
:1004D00041EA0B0153465A46084313D0114653EAEA
:1004E000010019D0C8F140025046FFF789FF0546C8
:1004F0000E4650465946424600F038F8084305D0AB
:10050000012004E020463946BDE8F08D0020054377
:1005100046EAE0762C4337430A986305E40AA0EBE9
:1005200008000022FD0A44EA47540A3002D50020A0
:100530000146E9E7010510196941DDE9084500199F
:100540006941BDE8F04DA2E7064C074D06E0E068C2
:1005500040F0010394E8070098471034AC42F6D30A
:10056000FFF7C8FDC87E0008E87E0008202A04DBEB
:10057000203A00FA02F1002070479140C2F12003B6
:1005800020FA03F319439040704700BFFEE770471D
:100590002DE9F0410246002500260020002300241A
:1005A000002791F803C00CF00F0591F803C00CF080
:1005B000100CBCF1000F03D091F802C04CEA050505
:1005C00091F800C0BCF1000F31D0146800202BE07E
:1005D0004FF0010C0CFA00F3B1F800C00CEA03066E
:1005E0009E4220D183004FF00F0C0CFA03F7BC435E
:1005F00005FA03FC4CEA040491F803C0BCF1280F8F
:1006000006D14FF0010C0CFA00FCC2F814C00AE04D
:1006100091F803C0BCF1480F05D14FF0010C0CFA62
:1006200000FCC2F810C0401C0828D1D31460B1F8F7
:1006300000C0BCF1FF0F34DD546800202EE000F153
:10064000080C4FF0010808FA0CF3B1F800C00CEAEE
:1006500003069E4221D183004FF00F0C0CFA03F7E2
:10066000BC4305FA03FC4CEA040491F803C0BCF156
:10067000280F05D100F1080C08FA0CF8C2F8148014
:1006800091F803C0BCF1480F07D100F1080C4FF0FE
:10069000010808FA0CF8C2F81080401C0828CED3D4
:1006A0005460BDE8F0810000F0B50A460023002444
:1006B0000021002500F00046B6F1004F02D11D4E8A
:1006C000F16901E01B4E7168C0F3034583B200F489
:1006D0004016B6F5401F08D121F07061154E7668BE
:1006E00026F07066134F7E6012E000F48016B6F5B7
:1006F000801F06D1032606FA05F4A14341F070617C
:1007000006E0460D360103FA06F6B14341F070618A
:1007100022B1460D360103FA06F6314300F00046D9
:10072000B6F1004F02D1034EF16101E0014E71605C
:10073000F0BD0000000001400246002093680B401D
:100740000BB1012000E00020704702460020D36872
:100750000B400BB1012000E0002070474161704761
:100760000161704700BFFEE710B54FF40041154826
:10077000FFF7E2FF78B9322005F02EFE00BF4FF4FC
:1007800000411048FFF7D8FF0028F8D0322005F0CC
:1007900023FE012010BD20210B48FFF7CDFF70B9CB
:1007A000322005F019FE00BF20210748FFF7C4FFE3
:1007B0000028F9D0322005F00FFE0220EAE70320DE
:1007C000E8E70000000801400010014008B50121E1
:1007D000142005F037F848208DF803004FF400404E
:1007E000ADF8000003208DF8020069460548FFF7C8
:1007F000CFFE2020ADF8000069460348FFF7C8FE91
:1008000008BD0000000801400010014070B504461A
:1008100000261D480588408845431B48808846F6C9
:100820000401884216D118488079012812D100208D
:10083000154988712A2048812B208881002108468B
:1008400004F06EFB0120104988712B2048812A207A
:10085000888103E00021084604F062FB04F020FFD9
:1008600000260DE04FF4807008490861400048619F
:100870000748046080204861086180000861761C98
:10088000AE42EFD370BD00003400002000100140E4
:100890000C0C014010B50446002C66D16C498871DF
:1008A000F02008804FF4A07048800846808849F204
:1008B000413188420BD06648808846F60401884260
:1008C00005D06348808845F2103188421AD12C2027
:1008D0005F4908812A2048812B208881084680882A
:1008E00046F60401884205D05948808845F2103107
:1008F000884206D14FF4A070554908804FF4F0703B
:100900004880A1E05248808845F21051884210D1B9
:100910004FF430504E4908814FF4285048814FF42D
:100920002C5088814FF4F07008804FF44870488054
:100930008AE04748808841F6631188420DD12C2017
:10094000434908812B2048812A2088814FF4F07088
:1009500008804FF44870488076E022203C490881A6
:1009600020204881212088816EE00120384988714B
:100970004FF4A0700880F02048800846808849F233
:100980004131884205D03248808845F21031884292
:1009900007D12C202E4908812A2048812B208881CC
:1009A0003FE02B48808846F60401884207D12C207E
:1009B000274908812B2048812A20888131E024485A
:1009C000808845F21051884210D14FF430502049B0
:1009D00008814FF4285048814FF42C5088814FF4FF
:1009E000487008804FF4F07048801AE018488088FA
:1009F00041F6631188420DD12C20154908812A2027
:100A000048812B2088814FF4487008804FF4F070A3
:100A1000488006E022200E490881212048812020BC
:100A200088810B48808846F60401884205D0084832
:100A3000808845F21031884206D14FF4F0700449A5
:100A400008804FF4A0704880002004F03DF810BDED
:100A50003400002070B504460D461646D348808801
:100A600049F24131884205D0D048808845F21031A2
:100A7000884240D1CD49488904F000FE4FF480708F
:100A8000CB490861400048612012CA4908608020B3
:100A9000C749486108618000086140100861400052
:100AA0004861E0B2C34908608020C14948610861DB
:100AB00080000861BD49888904F0E0FD4FF4807032
:100AC000BB490861400048612812BA49086080208B
:100AD000B749486108618000086140100861400022
:100AE0004861E8B2B34908608020B14948610861B3
:100AF000800008613DE1AD48808845F21051884290
:100B000050D1AA49488904F0B9FD4FF48070A84932
:100B10000861400048612012A64908608020A4496D
:100B20004861086180000861A0494989491C88B270
:100B300004F0A4FD4FF480709D49086140004861B5
:100B4000E0B29C49086080209949486108618000B2
:100B500008619649888904F091FD4FF480709449AA
:100B6000086140004861281292490860802090493D
:100B700048610861800008618C498989491C88B2F4
:100B800004F07CFD4FF480708949086140004861A1
:100B9000E8B2884908608020854948610861800082
:100BA0000861E6E08148808841F6631188427DD182
:100BB0007E48807920B97D480088401E001B84B2A1
:100BC0007A49488904F05AFD4FF4807078490861E9
:100BD00040004861201277490860802074494861CC
:100BE0000861800008614010086140004861E0B27F
:100BF0007049086080206E49486108618000086182
:100C0000401008614000486120126A490860802055
:100C10006749486108618000086140100861400030
:100C20004861E0B263490860802061494861086119
:100C3000800008615D49888904F020FD4FF48070D0
:100C40005B4908614000486128125A4908608020C9
:100C50005749486108618000086140100861400000
:100C60004861E8B2534908608020514948610861F1
:100C700080000861401008614000486128124D4919
:100C8000086080204A49486108618000086140107E
:100C9000086140004861E8B2464908608020444944
:100CA000486108618000086163E0FFE73F48808891
:100CB00046F60401884249D13C488079012804D194
:100CC0003A480088401E001B84B23849488904F025
:100CD000D5FC4FF48070364908614000486120120D
:100CE0003449086080203249486108618000086109
:100CF0004010086140004861E0B22E490860802041
:100D00002B4948610861800008612849888904F0FE
:100D1000B5FC4FF4807026490861400048612812F4
:100D200024490860802022494861086180000861E8
:100D30004010086140004861E8B21E490860802008
:100D40001B49486108618000086112E017488079FA
:100D5000012804D115480088401E001B84B21349A5
:100D60004889214604F0A4FC10498889294604F0EA
:100D70009FFC4FF480700E494861400048610B4869
:100D800000890C4908608020094948610861800099
:100D900008614010086140004861064806608020F4
:100DA000486108618000086170BD000034000020C7
:100DB000001001400C0C014008B50121192004F07D
:100DC00041FD0121FE48FFF76FFC4FF4F860ADF8DC
:100DD000000010208DF8030003208DF80200694602
:100DE000F848FFF7D5FB4FF4F861F648FFF7B8FC79
:100DF0004FF6FF70ADF800006946F348FFF7C8FBF7
:100E00004FF6FF71F048FFF7ABFC322005F0E4FA33
:100E10000121002004F04CFC322005F0DDFA002016
:100E200003F0E0FDE949888008468088FF280ADB56
:100E3000084680884FF6FF71884204D0E3488088D6
:100E4000B0F5134F7ED1D32004F018FC03F092FDCF
:100E500003F090FD03F08EFDDC4988800846808811
:100E60004FF6FF7101EA0020D849888003F082FD27
:100E7000D64989880843D54988800846808849F240
:100E8000413188425ED0BF2004F0F8FB03F072FDD0
:100E900003F070FD03F06EFD03F06CFDCB4988801C
:100EA000084680884FF6FF7101EA0020C749888014
:100EB00003F060FDC54989880843C4498880084615
:100EC000808846F60401884274D0D42004F0D6FB12
:100ED00003F050FD03F04EFD03F04CFDBB4988804C
:100EE000084680884FF6FF7101EA0020B7498880E4
:100EF00003F040FDB54989880843B4498880084615
:100F0000808845F21031884254D04FF45A4004F0A2
:100F1000B5FB03F02FFD4FF45B4004F0AFFB03F093
:100F200029FDAA498880084680884FF6FF7101EAAA
:100F30000020A64988804FF45C4004F09FFB03F03A
:100F400019FD00E036E0A149898808439F4988805F
:100F500008468088B0F5004F02D145F210508880D5
:100F60009A48808845F21051884223D0A12004F08D
:100F700085FB03F0FFFC9549888003F0FBFC934957
:100F80008880084680884FF6FF7101EA00208F496B
:100F9000888003F0EFFC8D49898808438B4988805D
:100FA0000846808845F26171884203D141F663109A
:100FB000864988808548818885A004F0A9FF8348F8
:100FC000808849F2413188427ED1CF2004F056FB1F
:100FD000002004F041FBC12004F03EFB302004F06F
:100FE0003BFBED2004F04AFB642004F035FB0320BA
:100FF00004F032FB122004F02FFB812004F02CFBC4
:10100000E82004F03BFB852004F026FB102004F0D0
:1010100023FB7A2004F020FBCB2004F02FFB3920A7
:1010200004F01AFB2C2004F017FB002004F014FB42
:10103000342004F011FB022004F00EFBF72004F032
:101040001DFB202004F008FBEA2004F017FB002021
:1010500004F002FB002004F0FFFAC02004F00EFBB5
:101060001B2004F0F9FAC12004F008FB012004F071
:10107000F3FAC52004F002FB302004F0EDFA302032
:1010800004F0EAFAC72004F0F9FAB72004F0E4FA11
:10109000362004F0F3FA482004F0DEFA3A2004F097
:1010A000EDFA552004F0D8FAB12004F0E7FA002058
:1010B00004F0D2FA1A2004F0CFFAB62004F0DEFAD7
:1010C0000A2004F0C9FA00E0A9E0A22004F0C4FA62
:1010D000F22004F0D3FA002004F0BEFA262004F037
:1010E000CDFA012004F0B8FAE02004F0C7FA0F208E
:1010F00004F0B2FA2A2004F0AFFA282004F0ACFA87
:10110000082004F0A9FA0E2004F0A6FA082004F042
:10111000A3FA542004F0A0FAA92004F09DFA432079
:1011200004F09AFA0A2004F097FA0F2004F094FAD7
:10113000002004F091FA002004F08EFA002004F060
:101140008BFA002004F088FAE12004F097FA0020DE
:1011500004F082FA152004F07FFA172004F07CFADC
:10116000072004F079FA112004F076FA062004F042
:1011700073FA2B2004F070FA562004F06DFA3C202C
:1011800004F06AFA052004F067FA102004F064FA0B
:101190000F2004F061FA3F2004F05EFA3F2004F0D3
:1011A0005BFA0F2004F058FA2B2004F067FA0020B5
:1011B00004F052FA002004F04FFA012010E0000081
:1011C0000002300000100140000C014034000020FB
:1011D000204C43442049443A25780D0A0000000081
:1011E00004F03AFA3F2004F037FA2A2004F046FAD5
:1011F000002004F031FA002004F02EFA002004F060
:101200002BFAEF2004F028FA112004F037FA7820A6
:1012100005F0E2F8292004F031FA03F09ABBFE4809
:10122000808846F6040188427ED1112004F026FA17
:10123000142005F0D1F8D02004F020FA072004F0A3
:101240000BFA422004F008FA1D2004F005FAD12020
:1012500004F014FA002004F0FFF91A2004F0FCF95D
:10126000092004F0F9F9D22004F008FA012004F072
:10127000F3F9222004F0F0F9C02004F0FFF9102067
:1012800004F0EAF93B2004F0E7F9002004F0E4F967
:10129000022004F0E1F9112004F0DEF9C52004F089
:1012A000EDF9032004F0D8F9C82004F0E7F9002094
:1012B00004F0D2F9252004F0CFF9212004F0CCF974
:1012C000052004F0C9F9002004F0C6F90A2004F052
:1012D000C3F9652004F0C0F9252004F0BDF977209A
:1012E00004F0BAF9502004F0B7F90F2004F0B4F973
:1012F000002004F0B1F9F82004F0C0F9012004F056
:10130000ABF9FE2004F0BAF9002004F0A5F90220A0
:1013100004F0A2F9202004F0B1F9362004F0AEF96F
:10132000082004F099F900E02AE03A2004F0A6F938
:10133000552004F091F92B2004F0A0F9002004F0CE
:101340008BF9002004F088F9012004F085F93F2092
:1013500004F082F92A2004F091F9002004F07CF9CD
:10136000002004F079F9012004F076F9DF2004F080
:1013700073F9782005F030F8292004F07FF94CE764
:10138000A548808845F21031884240F07C87ED20E6
:1013900004F074F9012004F05FF9FE2004F05CF918
:1013A000EE2004F06BF9DE2004F056F9212004F061
:1013B00053F9F12004F062F9012004F04DF9DF2027
:1013C00004F05CF9102004F047F9C42004F056F949
:1013D0008F2004F041F9C62004F050F9002004F0F9
:1013E0003BF9E22004F038F9E22004F035F9E2207C
:1013F00004F032F9BF2004F041F9AA2004F02CF9DE
:10140000B02004F03BF90D2004F026F9002004F090
:1014100023F90D2004F020F9002004F01DF911201B
:1014200004F01AF9002004F017F9192004F014F957
:10143000002004F011F9212004F00EF9002004F03E
:101440000BF92D2004F008F9002004F005F93D20E7
:1014500004F002F9002004F0FFF85D2004F0FCF82D
:10146000002004F0F9F85D2004F0F6F8002004F004
:10147000F3F8B12004F002F9802004F0EDF8002028
:1014800004F0EAF88B2004F0E7F8002004F0E4F818
:10149000962004F0E1F8002004F0DEF8B22004F019
:1014A000EDF8002004F0D8F8002004F0D5F8022070
:1014B00004F0D2F8002004F0CFF8032004F0CCF8B8
:1014C000002004F0C9F8B32004F0D8F8002004F09C
:1014D000C3F8002004F0C0F8002004F0BDF800209C
:1014E00004F0BAF8002004F0B7F8002004F0B4F8D3
:1014F000002004F0B1F8002004F0AEF8002004F061
:10150000ABF8002004F0A8F8002004F0A5F80020B3
:1015100004F0A2F8002004F09FF8002004F09CF8EA
:10152000002004F099F8002004F096F8002004F060
:1015300093F8002004F090F8002004F08DF80020CB
:1015400004F08AF8002004F087F8002004F084F802
:10155000002004F081F8002004F07EF8B42004F0AC
:101560008DF88B2004F078F8002004F075F89620B0
:1015700004F072F8002004F06FF8A12004F06CF879
:10158000002004F069F8B52004F078F8022004F097
:1015900063F8002004F060F8032004F05DF80020F8
:1015A00004F05AF8042004F057F8002004F054F82E
:1015B000B62004F063F8002004F04EF8002004F098
:1015C0004BF8B72004F05AF8002004F045F800204A
:1015D00004F042F83F2004F03FF8002004F03CF80B
:1015E0005E2004F039F8002004F036F8642004F09E
:1015F00033F8002004F030F88C2004F02DF800209F
:1016000004F02AF8AC2004F027F8002004F024F8B5
:10161000DC2004F021F801E034000020002004F078
:101620001BF8702004F018F8002004F015F8902042
:1016300004F012F8002004F00FF8EB2004F00CF88E
:10164000002004F009F8DC2004F006F8002004F083
:1016500003F8B82004F012F8002003F0FDFF00208A
:1016600003F0FAFF002003F0F7FF002003F0F4FF7F
:10167000002003F0F1FF002003F0EEFF002003F054
:10168000EBFF002003F0E8FFBA2003F0F7FF24206F
:1016900003F0E2FF002003F0DFFF002003F0DCFF97
:1016A000002003F0D9FFC12003F0E8FF202003F061
:1016B000D3FF002003F0D0FF542003F0CDFF002023
:1016C00003F0CAFFFF2003F0C7FF002003F0C4FFB0
:1016D000C22003F0D3FF0A2003F0BEFF002003F076
:1016E000BBFF042003F0B8FF002003F0B5FFC320C8
:1016F00003F0C4FF3C2003F0AFFF002003F0ACFF79
:101700003A2003F0A9FF002003F0A6FF392003F0E0
:10171000A3FF002003F0A0FF372003F09DFF00206F
:1017200003F09AFF3C2003F097FF002003F094FFA2
:10173000362003F091FF002003F08EFF322003F0EB
:101740008BFF002003F088FF2F2003F085FF00208F
:1017500003F082FF2C2003F07FFF002003F07CFFCA
:10176000292003F079FF002003F076FF262003F004
:1017700073FF002003F070FF242003F06DFF0020B2
:1017800003F06AFF242003F067FF002003F064FFEA
:10179000232003F061FF002003F05EFF3C2003F0F4
:1017A0005BFF002003F058FF362003F055FF0020B8
:1017B00003F052FF322003F04FFF002003F04CFFF4
:1017C0002F2003F049FF002003F046FF2C2003F0F8
:1017D00043FF002003F040FF292003F03DFF0020DD
:1017E00003F03AFF262003F037FF002003F034FF18
:1017F000242003F031FF002003F02EFF242003F00B
:101800002BFF002003F028FF232003F025FF0020FA
:1018100003F022FFC42003F031FF622003F01CFF1D
:10182000002003F019FF052003F016FF002003F04D
:1018300013FF842003F010FF002003F00DFFF020C1
:1018400003F00AFF002003F007FF182003F004FF55
:10185000002003F001FFA42003F0FEFE002003F0AF
:10186000FBFE182003F0F8FE002003F0F5FE5020E8
:1018700003F0F2FE002003F0EFFE0C2003F0ECFE7C
:10188000002003F0E9FE172003F0E6FE002003F03D
:10189000E3FE952003F0E0FE002003F0DDFEF320E0
:1018A00003F0DAFE002003F0D7FEE62003F0D4FEBA
:1018B000002003F0D1FEC52003F0E0FE322003F04B
:1018C000CBFE002003F0C8FE442003F0C5FE00203C
:1018D00003F0C2FE652003F0BFFE002003F0BCFE53
:1018E000762003F0B9FE002003F0B6FE882003F056
:1018F000B3FE002003F0B0FEC62003F0BFFE2020A0
:1019000003F0AAFE002003F0A7FE172003F0A4FEB8
:10191000002003F0A1FE012003F09EFE002003F052
:101920009BFEC72003F0AAFE002003F095FE0020D6
:1019300003F092FE002003F08FFE002003F08CFEE7
:10194000C82003F09BFE002003F086FE002003F079
:1019500083FE002003F080FE002003F07DFEC920FE
:1019600003F08CFE002003F077FE002003F074FEED
:10197000002003F071FE002003F06EFE002003F053
:101980006BFE002003F068FE002003F065FE0020DF
:1019900003F062FE002003F05FFE002003F05CFE17
:1019A000002003F059FE002003F056FE002003F053
:1019B00053FE002003F050FE002003F04DFE0020F7
:1019C00003F04AFEE02003F059FE162003F044FE27
:1019D000002003F041FE1C2003F03EFE002003F037
:1019E0003BFE212003F038FE002003F035FE3620B8
:1019F00003F032FE002003F02FFE462003F02CFE01
:101A0000002003F029FE522003F026FE002003F000
:101A100023FE642003F020FE002003F01DFE7A2048
:101A200003F01AFE002003F017FE8B2003F014FED3
:101A3000002003F011FE992003F00EFE002003F0B9
:101A40000BFEA82003F008FE002003F005FEB920DD
:101A500003F002FE002003F0FFFDC42003F0FCFDB4
:101A6000002003F0F9FDCA2003F0F6FD002003F08A
:101A7000F3FDD22003F0F0FD002003F0EDFDD920AE
:101A800003F0EAFD002003F0E7FDE02003F0E4FDB1
:101A9000002003F0E1FDF32003F0DEFD002003F061
:101AA000DBFDE12003F0EAFD162003F0D5FD002068
:101AB00003F0D2FD1C2003F0CFFD002003F0CCFD8D
:101AC000222003F0C9FD002003F0C6FD362003F0FC
:101AD000C3FD002003F0C0FD452003F0BDFD002044
:101AE00003F0BAFD522003F0B7FD002003F0B4FD6F
:101AF000642003F0B1FD002003F0AEFD7A2003F076
:101B0000ABFD002003F0A8FD8B2003F0A5FD002015
:101B100003F0A2FD992003F09FFD002003F09CFD3F
:101B2000A82003F099FD002003F096FDB92003F0F2
:101B300093FD002003F090FDC42003F08DFD0020F4
:101B400003F08AFDCA2003F087FD002003F084FD26
:101B5000D22003F081FD002003F07EFDD82003F0A9
:101B60007BFD002003F078FDE02003F075FD0020F0
:101B700003F072FDF32003F06FFD002003F06CFD15
:101B8000E22003F07BFD052003F066FD002003F05A
:101B900063FD0B2003F060FD002003F05DFD1B20C2
:101BA00003F05AFD002003F057FD342003F054FDEC
:101BB000002003F051FD442003F04EFD002003F00F
:101BC0004BFD4F2003F048FD002003F045FD612050
:101BD00003F042FD002003F03FFD792003F03CFDBF
:101BE000002003F039FD882003F036FD002003F0CB
:101BF00033FD972003F030FD002003F02DFDA620DB
:101C000003F02AFD002003F027FDB72003F024FD98
:101C1000002003F021FDC22003F01EFD002003F090
:101C20001BFDC72003F018FD002003F015FDD12097
:101C300003F012FD002003F00FFDD62003F00CFD91
:101C4000002003F009FDDD2003F006FD002003F075
:101C500003FDF32003F000FD002003F0FDFCE32072
:101C600003F00CFD052003F0F7FC002003F0F4FC6A
:101C70000A2003F0F1FC002003F0EEFC1C2003F02E
:101C8000EBFC002003F0E8FC332003F0E5FC00202F
:101C900003F0E2FC442003F0DFFC002003F0DCFC56
:101CA000502003F0D9FC002003F0D6FC622003F0A2
:101CB000D3FC002003F0D0FC782003F0CDFC002002
:101CC00003F0CAFC882003F0C7FC002003F0C4FC2A
:101CD000972003F0C1FC002003F0BEFCA62003F017
:101CE000BBFC002003F0B8FCB72003F0B5FC0020DB
:101CF00003F0B2FCC22003F0AFFC002003F0ACFC08
:101D0000C72003F0A9FC002003F0A6FCD12003F0BB
:101D1000A3FC002003F0A0FCD52003F09DFC0020D4
:101D200003F09AFCDD2003F097FC002003F094FC04
:101D3000F32003F091FC002003F08EFCE42003F07C
:101D40009DFC012003F088FC002003F085FC0120AD
:101D500003F082FC002003F07FFC022003F07CFCF7
:101D6000002003F079FC2A2003F076FC002003F029
:101D700073FC3C2003F070FC002003F06DFC4B2052
:101D800003F06AFC002003F067FC5D2003F064FCB4
:101D9000002003F061FC742003F05EFC002003F0DF
:101DA0005BFC842003F058FC002003F055FC9320DA
:101DB00003F052FC002003F04FFCA22003F04CFC87
:101DC000002003F049FCB32003F046FC002003F0A0
:101DD00043FCBE2003F040FC002003F03DFCC42087
:101DE00003F03AFC002003F037FCCD2003F034FC74
:101DF000002003F031FCD32003F02EFC002003F080
:101E00002BFCDD2003F028FC002003F025FCF32050
:101E100003F022FC002003F01FFCE52003F02EFC61
:101E2000002003F019FC002003F016FC002003F052
:101E300013FC002003F010FC022003F00DFC002036
:101E400003F00AFC292003F007FC002003F004FC47
:101E50003C2003F001FC002003F0FEFB4B2003F0CC
:101E6000FBFB002003F0F8FB5D2003F0F5FB0020F6
:101E700003F0F2FB742003F0EFFB002003F0ECFB17
:101E8000842003F0E9FB002003F0E6FB932003F03D
:101E9000E3FB002003F0E0FBA22003F0DDFB0020C9
:101EA00003F0DAFBB32003F0D7FB002003F0D4FBF0
:101EB000BE2003F0D1FB002003F0CEFBC42003F0D2
:101EC000CBFB002003F0C8FBCD2003F0C5FB0020B6
:101ED00003F0C2FBD32003F0BFFB002003F0BCFBE8
:101EE000DC2003F0B9FB002003F0B6FBF32003F085
:101EF000B3FB002003F0B0FBE62003F0BFFB112092
:101F000003F0AAFB002003F0A7FB342003F0A4FB9E
:101F1000002003F0A1FB562003F09EFB002003F0FD
:101F20009BFB762003F098FB002003F095FB7720C5
:101F300003F092FB002003F08FFB662003F08CFB84
:101F4000002003F089FB882003F086FB002003F0CB
:101F500083FB992003F080FB002003F07DFBBB2076
:101F600003F07AFB002003F077FB992003F074FB69
:101F7000002003F071FB662003F06EFB002003F0ED
:101F80006BFB552003F068FB002003F065FB552038
:101F900003F062FB002003F05FFB452003F05CFBD5
:101FA000002003F059FB432003F056FB002003F010
:101FB00053FB442003F050FB002003F04DFBE720CF
:101FC00003F05CFB322003F047FB002003F044FBEE
:101FD000552003F041FB002003F03EFB762003F088
:101FE0003BFB002003F038FB662003F035FB0020AC
:101FF00003F032FB672003F02FFB002003F02CFBE3
:10200000672003F029FB002003F026FB872003F064
:1020100023FB002003F020FB992003F01DFB002090
:1020200003F01AFBBB2003F017FB002003F014FBA6
:10203000992003F011FB002003F00EFB772003F042
:102040000BFB002003F008FB442003F005FB0020FD
:1020500003F002FB562003F0FFFA002003F0FCFA25
:10206000232003F0F9FA002003F0F6FA332003F0FE
:10207000F3FA002003F0F0FA452003F0EDFA002017
:1020800003F0EAFAE82003F0F9FA002003F0E4FA9A
:10209000002003F0E1FA992003F0DEFA002003F0BB
:1020A000DBFA872003F0D8FA002003F0D5FA882065
:1020B00003F0D2FA002003F0CFFA772003F0CCFA35
:1020C000002003F0C9FA662003F0C6FA002003F0EE
:1020D000C3FA882003F0C0FA002003F0BDFAAA205A
:1020E00003F0BAFA002003F0B7FABB2003F0B4FA09
:1020F000002003F0B1FA992003F0AEFA002003F0BB
:10210000ABFA662003F0A8FA002003F0A5FA5520E8
:1021100003F0A2FA002003F09FFA552003F09CFA86
:10212000002003F099FA442003F096FA002003F00F
:1021300093FA442003F090FA002003F08DFA552022
:1021400003F08AFA002003F087FAE92003F096FAF8
:10215000AA2003F081FA002003F07EFA002003F0A9
:102160007BFA002003F078FA002003F087FAAA2017
:1021700003F072FACF2003F081FA002003F06CFA2A
:10218000002003F069FA002003F066FA002003F053
:1021900063FA002003F060FA002003F05DFA0020EB
:1021A00003F05AFA002003F057FA002003F054FA23
:1021B000002003F051FA002003F04EFA002003F053
:1021C0004BFA002003F048FA002003F045FA002003
:1021D00003F042FA002003F03FFA002003F03CFA3B
:1021E000F02003F04BFA002003F036FA502003F001
:1021F00033FA002003F030FA002003F02DFA00201B
:1022000003F02AFAF32003F039FA002003F024FA4D
:10221000F92003F033FA062003F01EFA102003F031
:102220001BFA292003F018FA002003F015FA3A20CF
:1022300003F024FA552003F00FFA112003F01EFAE0
:10224000642004F0C9F8292003F018FA352003F0BF
:1022500015FA002003F000FA512003F00FFAFF20D6
:1022600003F0FAF9532003F009FA2C2003F0F4F9F3
:10227000552003F003FA822003F0EEF92C2003F03E
:10228000FDF902F066BBFE48808845F21051884295
:102290007ED155214FF4704003F00AFAAA214FF283
:1022A000010003F005FA52214FF2020003F000FA98
:1022B00008214FF2030003F0FBF901214FF2040063
:1022C00003F0F6F90D214FF4304003F0F1F90D2140
:1022D0004BF2010003F0ECF90D214BF2020003F088
:1022E000E7F934214FF4364003F0E2F934214BF2A0
:1022F000016003F0DDF934214BF2026003F0D8F9FC
:102300000D214FF4314003F0D3F90D214BF20110B0
:1023100003F0CEF90D214BF2021003F0C9F934217C
:102320004FF4374003F0C4F934214BF2017003F04D
:10233000BFF934214BF2027003F0BAF900214FF4D7
:10234000324003F0B5F900214BF2012003F0B0F95F
:1023500000214BF2022003F0ABF924214FF4384066
:1023600003F0A6F924214BF6010003F0A1F9242182
:102370004BF6020003F09CF901214FF43F4003F0BB
:1023800097F90F214FF4334003F092F90F2100E049
:10239000FEE34BF2013003F08BF90F214BF20230D8
:1023A00003F086F934214FF4394003F081F93421E8
:1023B0004BF6011003F07CF934214BF6021003F0C8
:1023C00077F908214FF4354003F072F908214BF2F8
:1023D000015003F06DF908214BF2025003F068F947
:1023E00003214FF4424003F063F924214FF43A40B3
:1023F00003F05EF924214BF6012003F059F9242162
:102400004BF6022003F054F900214FF43C4003F056
:102410004FF978214BF6014003F04AF900214BF6C1
:10242000024003F045F900214FF43D4003F040F92C
:1024300078214BF6015003F03BF900214BF6025096
:1024400003F036F900214FF43E4003F031F96421E6
:102450004BF6016003F02CF900214FF4514003F0DA
:1024600027F933214DF2011003F022F900214DF23A
:10247000021003F01DF934214DF2031003F018F996
:1024800000214DF2041003F013F93A214DF205102A
:1024900003F00EF900214DF2061003F009F94A216C
:1024A0004DF2071003F004F900214DF2081003F07B
:1024B000FFF85C214DF2091003F0FAF800214DF20B
:1024C0000A1003F0F5F881214DF20B1003F0F0F83B
:1024D00000214DF20C1003F0EBF8A6214DF20D1087
:1024E00003F0E6F800214DF20E1003F0E1F8E521CB
:1024F0004DF20F1003F0DCF801214DF2101003F043
:10250000D7F813214DF2111003F0D2F801214DF24A
:10251000121003F0CDF854214DF2131003F0C8F857
:1025200001214DF2141003F0C3F882214DF2151071
:1025300003F0BEF801214DF2161003F0B9F8CA21DC
:102540004DF2171003F0B4F802214DF2181003F009
:10255000AFF800214DF2191003F0AAF802214DF254
:102560001A1003F0A5F801214DF21B1003F0A0F89A
:1025700002214DF21C1003F09BF834214DF21D1086
:1025800003F096F802214DF21E1003F091F8672136
:102590004DF21F1003F08CF802214DF2201003F0D1
:1025A00087F884214DF2211003F082F802214DF2C8
:1025B000221003F07DF8A4214DF2231003F078F8E7
:1025C00002214DF2241003F073F8B7214DF22510CB
:1025D00003F06EF802214DF2261003F069F8CF21C6
:1025E0004DF2271003F064F802214DF2281003F099
:1025F0005FF8DE214DF2291003F05AF802214DF266
:102600002A1003F055F8F2214DF22B1003F050F888
:1026100002214DF22C1003F04BF8FE214DF22D104B
:1026200003F046F803214DF22E1003F041F810217B
:102630004DF22F1003F03CF803214DF2301003F05F
:1026400037F833214DF2311003F032F803214DF207
:10265000321003F02DF86D214DF2331003F028F8FD
:1026600000214FF4524003F023F833214DF20120B2
:1026700003F01EF800214DF2022003F019F801E0EA
:102680003400002034214DF2032003F011F8002122
:102690004DF2042003F00CF83A214DF2052003F02E
:1026A00007F800214DF2062003F002F84A214DF20E
:1026B000072002F0FDFF00214DF2082002F0F8FF94
:1026C0005C214DF2092002F0F3FF00214DF20A20B7
:1026D00002F0EEFF81214DF20B2002F0E9FF002114
:1026E0004DF20C2002F0E4FFA6214DF20D2002F085
:1026F000DFFF00214DF20E2002F0DAFFE5214DF25E
:102700000F2002F0D5FF01214DF2102002F0D0FF82
:1027100013214DF2112002F0CBFF01214DF21220C6
:1027200002F0C6FF54214DF2132002F0C1FF012137
:102730004DF2142002F0BCFF82214DF2152002F070
:10274000B7FF01214DF2162002F0B2FFCA214DF26F
:10275000172002F0ADFF02214DF2182002F0A8FF71
:1027600000214DF2192002F0A3FF02214DF21A20A0
:1027700002F09EFF01214DF21B2002F099FF022181
:102780004DF21C2002F094FF34214DF21D2002F086
:102790008FFF02214DF21E2002F08AFF67214DF2C9
:1027A0001F2002F085FF02214DF2202002F080FF61
:1027B00084214DF2212002F07BFF02214DF22220E4
:1027C00002F076FFA4214DF2232002F071FF0221D6
:1027D0004DF2242002F06CFFB7214DF2252002F0CB
:1027E00067FF02214DF2262002F062FFCF214DF259
:1027F000272002F05DFF02214DF2282002F058FF51
:10280000DE214DF2292002F053FF02214DF22A2051
:1028100002F04EFFF2214DF22B2002F049FF02217F
:102820004DF22C2002F044FFFE214DF22D2002F04B
:102830003FFF03214DF22E2002F03AFF10214DF20E
:102840002F2002F035FF03214DF2302002F030FF3F
:1028500033214DF2312002F02BFF03214DF23220C3
:1028600002F026FF6D214DF2332002F021FF0021FE
:102870004FF4534002F01CFF33214DF2013002F0BF
:1028800017FF00214DF2023002F012FF34214DF209
:10289000033002F00DFF00214DF2043002F008FF7A
:1028A0003A214DF2053002F003FF00214DF20630CF
:1028B00002F0FEFE4A214DF2073002F0F9FE00213F
:1028C0004DF2083002F0F4FE5C214DF2093002F0C6
:1028D000EFFE00214DF20A3002F0EAFE81214DF2B6
:1028E0000B3002F0E5FE00214DF20C3002F0E0FE6C
:1028F000A6214DF20D3002F0DBFE00214DF20E302C
:1029000002F0D6FEE5214DF20F3002F0D1FE01219A
:102910004DF2103002F0CCFE13214DF2113002F0D6
:10292000C7FE01214DF2123002F0C2FE54214DF2D9
:10293000133002F0BDFE01214DF2143002F0B8FE5A
:1029400082214DF2153002F0B3FE01214DF2163016
:1029500002F0AEFECA214DF2173002F0A9FE0221AC
:102960004DF2183002F0A4FE00214DF2193002F0B1
:102970009FFE02214DF21A3002F09AFE01214DF223
:102980001B3002F095FE02214DF21C3002F090FE49
:1029900034214DF21D3002F08BFE02214DF21E302B
:1029A00002F086FE67214DF21F3002F081FE022107
:1029B0004DF2203002F07CFE84214DF2213002F0F5
:1029C00077FE02214DF2223002F072FEA4214DF278
:1029D000233002F06DFE02214DF2243002F068FE39
:1029E000B7214DF2253002F063FE02214DF2263070
:1029F00002F05EFECF214DF2273002F059FE022197
:102A00004DF2283002F054FEDE214DF2293002F062
:102A10004FFE02214DF22A3002F04AFEF2214DF221
:102A20002B3002F045FE02214DF22C3002F040FE28
:102A3000FE214DF22D3002F03BFE03214DF22E30EF
:102A400002F036FE10214DF22F3002F031FE03214C
:102A50004DF2303002F02CFE33214DF2313002F0D5
:102A600027FE03214DF2323002F022FE6D214DF29D
:102A7000333002F01DFE00214FF4544002F018FEE6
:102A800033214DF2014002F013FE00214DF20240CD
:102A900002F00EFE34214DF2034002F009FE002147
:102AA0004DF2044002F004FE3A214DF2054002F0DE
:102AB000FFFD00214DF2064002F0FAFD4A214DF2E1
:102AC000074002F0F5FD00214DF2084002F0F0FD54
:102AD0005C214DF2094002F0EBFD00214DF20A406D
:102AE00002F0E6FD81214DF20B4002F0E1FD0021F4
:102AF0004DF20C4002F0DCFDA6214DF20D4002F03B
:102B0000D7FD00214DF20E4002F0D2FDE5214DF23D
:102B10000F4002F0CDFD01214DF2104002F0C8FD42
:102B200013214DF2114002F0C3FD01214DF212407C
:102B300002F0BEFD54214DF2134002F0B9FD012117
:102B40004DF2144002F0B4FD82214DF2154002F026
:102B5000AFFD01214DF2164002F0AAFDCA214DF24F
:102B6000174002F0A5FD02214DF2184002F0A0FD31
:102B700000214DF2194002F09BFD02214DF21A4056
:102B800002F096FD01214DF21B4002F091FD00E0A4
:102B900004E302214DF21C4002F08AFD34214DF283
:102BA0001D4002F085FD02214DF21E4002F080FD25
:102BB00067214DF21F4002F07BFD02214DF22040C3
:102BC00002F076FD84214DF2214002F071FD0221D8
:102BD0004DF2224002F06CFDA4214DF2234002F0A0
:102BE00067FD02214DF2244002F062FDB7214DF253
:102BF000254002F05DFD02214DF2264002F058FD15
:102C0000CF214DF2274002F053FD02214DF2284022
:102C100002F04EFDDE214DF2294002F049FD022175
:102C20004DF22A4002F044FDF2214DF22B4002F019
:102C30003FFD02214DF22C4002F03AFDFE214DF203
:102C40002D4002F035FD03214DF22E4002F030FD03
:102C500010214DF22F4002F02BFD03214DF23040A8
:102C600002F026FD33214DF2314002F021FD032117
:102C70004DF2324002F01CFD6D214DF2334002F066
:102C800017FD00214FF4554002F012FD33214DF2A3
:102C9000015002F00DFD00214DF2025002F008FD3E
:102CA00034214DF2035002F003FD00214DF2045097
:102CB00002F0FEFC3A214DF2055002F0F9FC002131
:102CC0004DF2065002F0F4FC4A214DF2075002F09A
:102CD000EFFC00214DF2085002F0EAFC5C214DF2BD
:102CE000095002F0E5FC00214DF20A5002F0E0FC30
:102CF00081214DF20B5002F0DBFC00214DF20C5013
:102D000002F0D6FCA6214DF20D5002F0D1FC0021BC
:102D10004DF20E5002F0CCFCE5214DF20F5002F0C6
:102D2000C7FC01214DF2105002F0C2FC13214DF2FC
:102D3000115002F0BDFC01214DF2125002F0B8FC1E
:102D400054214DF2135002F0B3FC01214DF2145006
:102D500002F0AEFC82214DF2155002F0A9FC0121D7
:102D60004DF2165002F0A4FCCA214DF2175002F0A9
:102D70009FFC02214DF2185002F09AFC00214DF206
:102D8000195002F095FC02214DF21A5002F090FC0D
:102D900001214DF21B5002F08BFC02214DF21C5020
:102DA00002F086FC34214DF21D5002F081FC02211C
:102DB0004DF21E5002F07CFC67214DF21F5002F0D4
:102DC00077FC02214DF2205002F072FC84214DF27A
:102DD000215002F06DFC02214DF2225002F068FCFD
:102DE000A4214DF2235002F063FC02214DF2245045
:102DF00002F05EFCB7214DF2255002F059FC022191
:102E00004DF2265002F054FCCF214DF2275002F033
:102E10004FFC02214DF2285002F04AFCDE214DF217
:102E2000295002F045FC02214DF22A5002F040FCEC
:102E3000F2214DF22B5002F03BFC02214DF22C50BE
:102E400002F036FCFE214DF22D5002F031FC032140
:102E50004DF22E5002F02CFC10214DF22F5002F0BA
:102E600027FC03214DF2305002F022FC33214DF2B9
:102E7000315002F01DFC03214DF2325002F018FCDB
:102E80006D214DF2335002F013FC00214FF45640F7
:102E900002F00EFC33214DF2016002F009FC00212A
:102EA0004DF2026002F004FC34214DF2036002F0A6
:102EB000FFFB00214DF2046002F0FAFB3A214DF2D3
:102EC000056002F0F5FB00214DF2066002F0F0FB18
:102ED0004A214DF2076002F0EBFB00214DF2086041
:102EE00002F0E6FB5C214DF2096002F0E1FB0021FB
:102EF0004DF20A6002F0DCFB81214DF20B6002F022
:102F0000D7FB00214DF20C6002F0D2FBA6214DF25E
:102F10000D6002F0CDFB00214DF20E6002F0C8FB07
:102F2000E5214DF20F6002F0C3FB01214DF210606C
:102F300002F0BEFB13214DF2116002F0B9FB01213A
:102F40004DF2126002F0B4FB54214DF2136002F016
:102F5000AFFB01214DF2146002F0AAFB82214DF279
:102F6000156002F0A5FB01214DF2166002F0A0FBF6
:102F7000CA214DF2176002F09BFB02214DF218604E
:102F800002F096FB00214DF2196002F091FB022144
:102F90004DF21A6002F08CFB01214DF21B6002F031
:102FA00087FB02214DF21C6002F082FB34214DF2BE
:102FB0001D6002F07DFB02214DF21E6002F078FBE5
:102FC00067214DF21F6002F073FB02214DF2206079
:102FD00002F06EFB84214DF2216002F069FB0221B8
:102FE0004DF2226002F064FBA4214DF2236002F056
:102FF0005FFB02214DF2246002F05AFBB7214DF233
:10300000256002F055FB02214DF2266002F050FBD4
:10301000CF214DF2276002F04BFB02214DF22860D8
:1030200002F046FBDE214DF2296002F041FB022155
:103030004DF22A6002F03CFBF2214DF22B6002F0CF
:1030400037FB02214DF22C6002F032FBFE214DF2E3
:103050002D6002F02DFB03214DF22E6002F028FBC3
:1030600010214DF22F6002F023FB03214DF230605E
:1030700002F01EFB33214DF2316002F019FB0321F7
:103080004DF2326002F014FB6D214DF2336002F01C
:103090000FFB55214FF4704002F00AFBAA214FF2BA
:1030A000010002F005FB52214FF2020002F000FB8A
:1030B00008214FF2030002F0FBFA00214FF2040056
:1030C00002F0F6FACC214FF4314002F0F1FA00217F
:1030D0004BF2011002F0ECFA05214FF4364002F0F9
:1030E000E7FA70214FF4374002F0E2FA70214BF218
:1030F000017002F0DDFA01214FF4384002F0D8FAF5
:1031000003214BF6010002F0D3FA03214BF6020033
:1031100002F0CEFA03214BF6030002F0C9FA0221B5
:103120004FF43C4002F0C4FA00214BF6014002F09B
:10313000BFFA00214BF6024002F0BAFAD0214FF458
:10314000494002F0B5FA02214CF6011002F0B0FA43
:1031500050214CF6021002F0ABFA50214CF603104D
:1031600002F0A6FA50214CF6041002F0A1FA002158
:103170004FF4545002F09CFA55214FF4685002F07D
:1031800097FA4FF4885002F079FA782003F030F97A
:103190004FF4245002F072FA01F0DBBBFE48808845
:1031A00049F2253188427DD147F6F001E52002F051
:1031B0007FFA4FF48071012002F07AFA4FF4E06157
:1031C000022002F075FA41F23001032002F070FA99
:1031D0000021042002F06CFA40F20221082002F0E3
:1031E00067FA0021092002F063FA00210A2002F0A8
:1031F0005FFA00210C2002F05BFA00210D2002F0A2
:1032000057FA00210F2002F053FA0021102002F09B
:103210004FFA0721112002F04BFA0021122002F090
:1032200047FA0021132002F043FA0021072002F0A0
:103230003FFA41F29061102002F03AFA40F2272161
:10324000112002F035FA9D21122002F031FA4FF4DC
:10325000C851132002F02CFA2521292002F028FA67
:103260000D212B2002F024FA0721302002F020FA51
:1032700040F20331312002F01BFA0321322002F028
:1032800017FA40F20621352002F012FA0821362002
:1032900002F00EFA40F20641372002F009FA4FF42C
:1032A000417100E058E0382002F002FA072139208D
:1032B00002F0FEF940F202613C2002F0F9F9082127
:1032C0003D2002F0F5F90021502002F0F1F9EF2144
:1032D000512002F0EDF90021522002F0E9F940F20C
:1032E0003F11532002F0E4F94FF42741602002F02F
:1032F000DFF90121612002F0DBF900216A2002F0F0
:10330000D7F90021802002F0D3F90021812002F0BA
:10331000CFF90021822002F0CBF90021832002F0B6
:10332000C7F90021842002F0C3F90021852002F0B2
:10333000BFF91021902002F0BBF94FF4C061922038
:1033400002F0B6F940F23311072002F0B1F9222160
:10335000002002F0ADF91FE78F48808849F228313C
:1033600088427DD141F28F01EC2002F0A1F941F2B7
:103370003421EF2002F09CF94FF48071012002F01B
:1033800097F94FF4E061022002F092F941F2300126
:10339000032002F08DF90021042002F089F940F2A7
:1033A0000221082002F084F90021092002F080F9AE
:1033B00000210A2002F07CF901210C2002F078F9AA
:1033C00000210D2002F074F900210F2002F070F9A5
:1033D0000021102002F06CF90721112002F068F999
:1033E0000021122002F064F90021132002F060F99C
:1033F0000121072002F05CF9322002F0EDFF41F2DA
:103400009041102002F054F940F22721112002F0DF
:103410004FF9322002F0E0FF8A21122002F048F931
:10342000322002F0D9FF4FF4D051132002F040F9BE
:103430000621292002F03CF90D212B2002F038F959
:10344000322002F0C9FF0021202002F031F90021D2
:10345000212002F02DF9322002F0BEFF002100E011
:1034600075E0302002F024F940F20461312002F0CE
:103470001FF940F20531322002F01AF900213520FF
:1034800002F016F940F60941362002F011F94FF426
:103490000171372002F00CF940F20131382002F0BE
:1034A00007F940F20771392002F002F900213C20AF
:1034B00002F0FEF840F60A213D2002F0F9F8322031
:1034C00002F08AFF0021502002F0F2F8EF21512093
:1034D00002F0EEF80021522002F0EAF840F23F112B
:1034E000532002F0E5F84FF42741602002F0E0F8A5
:1034F0000121612002F0DCF800216A2002F0D8F8F6
:103500000021802002F0D4F80021812002F0D0F8C0
:103510000021822002F0CCF80021832002F0C8F8BC
:103520000021842002F0C4F80021852002F0C0F8B8
:103530001021902002F0BCF84FF4C061922002F0FC
:10354000B7F840F23311072002F0B2F824E612482F
:10355000808849F2203188427ED10021084602F05D
:10356000A7F84FF48071012002F0A2F84FF4E06157
:10357000022002F09DF841F23001032002F098F899
:103580000021042002F094F840F20221082002F009
:103590008FF80021092001E03400002002F088F8B3
:1035A00000210A2002F084F801210C2002F080F8AA
:1035B00000210D2002F07CF800210F2002F078F8A5
:1035C000322002F009FF40F20111072002F070F8EA
:1035D000322002F001FF4FF48651102002F068F80B
:1035E0000721112002F064F84FF48871122002F0D4
:1035F0005FF84FF43061132002F05AF800212920BF
:1036000002F056F844F210012B2002F051F800218C
:10361000502002F04DF8EF21512002F049F800212E
:10362000522002F045F840F23F11532002F040F8DA
:103630004FF41C51602002F03BF80121612002F0A0
:1036400037F800216A2002F033F80021802002F0D0
:103650002FF80021812000E030E002F029F800215D
:10366000822002F025F80021832002F021F80021B9
:10367000842002F01DF80021852002F019F81021A5
:10368000902002F015F80021922002F011F801219B
:10369000932002F00DF84FF48871952002F008F89D
:1036A0000021972002F004F80021982002F000F891
:1036B00040F27311072001F0FBFF6DE5FE488088A2
:1036C00049F2313188427DD141F21401E72001F005
:1036D000EFFF4FF48071012001F0EAFF4FF4007119
:1036E000022001F0E5FF41F23801032001F0E0FF84
:1036F00040F20221082001F0DBFF0021092001F047
:10370000D7FF00210A2001F0D3FF00210C2001F097
:10371000CFFF00210D2001F0CBFF00210F2001F091
:10372000C7FF0021102001F0C3FF0721112001F085
:10373000BFFF0021122001F0BBFF0021132001F088
:10374000B7FFC82002F048FE41F29061102001F05E
:10375000AFFF40F22721112001F0AAFF322002F032
:103760003BFE0C21122001F0A3FF322002F034FEB8
:103770004FF40061132001F09BFF1121292001F07B
:1037800097FF0B212B2001F093FF322002F024FE43
:103790000021202001F08CFF40F23F11212001F098
:1037A00087FF0021302001F083FF4FF48371312027
:1037B00001F07EFF0021322001F07AFF4FF4017109
:1037C000352000E064E001F073FF41F20A61362029
:1037D00001F06EFF40F20771372001F069FF4FF4EE
:1037E0008371382001F064FF40F20771392001F045
:1037F0005FFF40F202413C2001F05AFF40F60F41CA
:103800003D2001F055FF0021502001F051FFEF2134
:10381000512001F04DFF0021522001F049FF40F2FC
:103820003F11532001F044FF4FF41C51602001F080
:103830003FFF0121612001F03BFF00216A2001F0E0
:1038400037FF0021802001F033FF0021812001F0AB
:103850002FFF0021822001F02BFF0021832001F0A7
:1038600027FF0021842001F023FF0021852001F0A3
:103870001FFF1021902001F01BFF4FF4C061922028
:1038800001F016FF40F23311072001F011FF83E42D
:103890008948808845F2084188427DD14FF4807183
:1038A000012001F005FF4FF4E061022001F000FF6C
:1038B00041F23001032001F0FBFE0021042001F061
:1038C000F7FE40F20721082001F0F2FE0021092056
:1038D00001F0EEFE00210A2001F0EAFE00210C209A
:1038E00001F0E6FE00210D2001F0E2FE00210F2094
:1038F00001F0DEFE142002F06FFD41F2B0611020F5
:1039000001F0D6FE0121112001F0D2FE0121172085
:1039100001F0CEFE4FF49C71122001F0C9FE4FF46D
:103920000061132001F0C4FE0921292001F0C0FE2E
:1039300009212A2001F0BCFE0021A42001F0B8FEDC
:103940000021502001F0B4FEEF21512001F0B0FE23
:103950000021522001F0ACFE40F23F11532001F053
:10396000A7FE4FF41C51602001F0A2FE012161204E
:1039700001F09EFE00216A2001F09AFE00218020C5
:1039800001F096FE0021812001F092FE00218220AC
:1039900001F08EFE002100E024E0832001F088FE8B
:1039A0000021842001F084FE0021852001F080FEAA
:1039B0001321902001F07CFE0021922001F078FE7E
:1039C0000321932001F074FE4FF48871952001F0DB
:1039D0006FFE40F27311072001F06AFE322002F000
:1039E000FBFCB8E43448808841F2055188427DD11F
:1039F0000021072001F05CFE322002F0EDFC4FF4C4
:103A00008E71122001F054FE0121A42001F050FE1D
:103A10000F21082001F04CFE08210A2001F048FE89
:103A200008210D2001F044FE40F20771302001F022
:103A30003FFE0721312001F03BFE40F203613220BE
:103A400001F036FE4FF4E061332001F031FE40F228
:103A50000221342001F02CFE0221352001F028FE45
:103A600041F60F71362001F023FE40F20771372036
:103A700001F01EFE0021382001F01AFE002139203D
:103A800001F016FE40F207713A2001F011FE00210C
:103A90003B2001F00DFE07213C2001F009FE002132
:103AA0003D2001F005FE322002F096FC01210720A6
:103AB00001F0FEFD012101E034000020172001F09B
:103AC000F7FD322002F088FC4FF4BD51102001F0C8
:103AD000EFFD40F21721112001F0EAFD4FF48F7144
:103AE000122001F0E5FD4FF4706100E098E0132032
:103AF00001F0DEFD00212A2001F0DAFD0A21292053
:103B000001F0D6FD4FF49F71122001F0D1FD00218C
:103B1000502001F0CDFDEF21512001F0C9FD002121
:103B2000522001F0C5FD40F23F11532001F0C0FDCD
:103B30004FF41C51602001F0BBFD0121612001F018
:103B4000B7FD00216A2001F0B3FD0021802001F0C3
:103B5000AFFD0021812001F0ABFD0021822001F0AA
:103B6000A7FD0021832001F0A3FD0021842001F0A6
:103B70009FFD0021852001F09BFD1321902001F085
:103B800097FD4FF44071922001F092FD05219320A2
:103B900001F08EFD0021952001F08AFD0021972083
:103BA00001F086FD0021982001F082FD4FF4807124
:103BB000012001F07DFD4FF4E061022001F078FD6D
:103BC00041F23801032001F073FD0021042001F0CF
:103BD0006FFD00210C2001F06BFD00210F2001F092
:103BE00067FD0021202001F063FD0021212001F06C
:103BF0005FFD2121072001F05BFD142002F0ECFBAA
:103C00006121072001F054FD142002F0E5FB40F291
:103C10007311072001F04CFD142002F0DDFB95E448
:103C2000FE4880884BF2055188427CD1002108462D
:103C300001F03EFD0021084601F03AFD0021084652
:103C400001F036FD0021084601F032FD0121A420DB
:103C500001F02EFD142002F0BFFB4FF41C51602038
:103C600001F026FD40F20221082001F021FD4FF471
:103C70000571302001F01CFD43F21571312001F077
:103C800017FD40F20461322001F012FD40F616618A
:103C9000332001F00DFD42F21121342001F008FD26
:103CA0004FF4A851352001F003FD48F207513620AA
:103CB00001F0FEFC41F20741372001F0F9FC41F22E
:103CC0000341382001F0F4FC2021392001F0F0FC00
:103CD0001A21902001F0ECFC0021102001F0E8FCFA
:103CE0000721112001F0E4FC0021122001F0E0FC8A
:103CF0000021132001F0DCFC142002F06DFB4FF4D6
:103D0000E661102001F0D4FC40F23711112001F0DF
:103D1000CFFC142002F060FB4FF4DC71122001F0A4
:103D2000C7FC142000E085E002F056FB4FF4706100
:103D3000132001F0BDFC80212A2001F0B9FC4821AC
:103D4000292001F0B5FC142002F046FB4FF48071ED
:103D5000012001F0ADFC4FF4E061022001F0A8FC6D
:103D600041F23801032001F0A3FC40F202210820B7
:103D700001F09EFC00210A2001F09AFC00210C2099
:103D800001F096FC00210D2001F092FC30210E2064
:103D900001F08EFC0021502001F08AFCEF2151201F
:103DA00001F086FC0021522001F082FC40F23F111C
:103DB000532001F07DFC4FF41C51602001F078FC91
:103DC0000121612001F074FC00216A2001F070FCE7
:103DD0001121902001F06CFC4FF4C061922001F0A1
:103DE00067FC40F20241932001F062FC0221942022
:103DF00001F05EFC142002F0EFFA0121072001F02F
:103E000057FC142002F0E8FA6121072001F050FC71
:103E100040F27311072001F04BFC0021202001F03B
:103E200047FC0021212001F043FC2221002001F069
:103E30003FFC42E4794880884CF2055188427CD1AD
:103E40000021084601F034FC0021084601F030FC56
:103E5000142002F0C1FA0021084601F029FC0021DB
:103E6000084601F025FC0021084601F021FC002154
:103E7000084601F01DFC0121A42001F019FC1420CA
:103E800002F0AAFA4FF41C51602001F011FC40F638
:103E90000601082001F00CFC40F20371302001F013
:103EA00007FC0121312001F003FC0421322001F044
:103EB000FFFB4FF48171332001F0FAFB4FF44071A6
:103EC000342001F0F5FB40F20311352001F0F0FB46
:103ED0001F21362001F0ECFB40F20371372001F086
:103EE000E7FB0121382001F0E3FB0421392001F038
:103EF000DFFB1521902001F0DBFB4FF482611020E5
:103F000001F0D6FB40F24721112001F0D1FB4FF424
:103F1000DE71122001F0CCFB4FF46061132001F040
:103F2000C7FB782002F058FA4FF48071012001F0AD
:103F3000BFFB4FF40071022000E052E001F0B8FB3B
:103F400041F23001032001F0B3FB08210A2001F007
:103F5000AFFB00210C2001F0ABFB20210E2001F073
:103F6000A7FB00210F2001F0A3FB0021202001F07E
:103F70009FFB0021212001F09BFB3D212A2001F025
:103F800097FB142002F028FA2D21292001F090FB44
:103F90000021502001F08CFB4DF2EF01512001F087
:103FA00087FB0021522001F083FB40F23F11532098
:103FB00001F07EFB0021612001F07AFB00216A20E4
:103FC00001F076FB4FF44071922001F071FB052166
:103FD000932001F06DFB4FF48071072001F068FB26
:103FE00055E40E48808848F6891188427ED1012127
:103FF000002001F05DFB4AF6A401032001F058FB0C
:1040000000210C2001F054FB40F60C010D2001F0C2
:104010004FFB4FF42C510E2002E000003400002032
:1040200001F046FBB0211E2001F042FB42F63F3179
:10403000012001F03DFB4FF4C061022001F038FB8C
:104040000021102001F034FB46F27801112001F02C
:104050002FFB0021052001F02BFB0021062001F0A1
:1040600027FB4EF61C71162001F022FB03211720BE
:1040700001F01EFB40F23321072001F019FB002163
:104080000B2001F015FB00210F2001F011FB002196
:10409000412001F00DFB0021422001F009FB00212D
:1040A000482001F005FB40F23F11492001F000FBE0
:1040B00000214A2001F0FCFA00214B2001F0F8FA1F
:1040C0004FF46F41442001F0F3FA0021452001F044
:1040D000EFFA40F23F11462001F0EAFA40F2077190
:1040E000302001F0E5FA4FF4017100E040E03120AA
:1040F00001F0DEFA4FF40171322001F0D9FA40F2FA
:104100000251332001F0D4FA40F20751342001F07B
:10411000CFFA4FF40171352001F0CAFA4FF4017162
:10412000362001F0C5FA40F20251372001F0C0FA02
:1041300040F202313A2001F0BBFA40F202313B205A
:1041400001F0B6FA0021232001F0B2FA0021242068
:1041500001F0AEFA4FF40041252001F0A9FA002148
:104160004F2001F0A5FA00214E2001F0A1FAF0E362
:10417000FE48808844F2315188427DD101210020DF
:1041800001F096FA0A2002F027F941F22861102086
:1041900001F08EFA0E21122001F08AFA40F6392140
:1041A000132001F085FA0A2002F016F940211120AF
:1041B00001F07EFA5021152001F07AFA0A2002F06F
:1041C0000BF91E21122001F073FA0A2002F004F903
:1041D0004FF4B151102001F06BFA42F6392113204F
:1041E00001F066FA0A2002F0F7F84FF4807101201E
:1041F00001F05EFA4FF44071022001F059FA41F2E9
:104200003801032001F054FA40F20221082001F0A5
:104210004FFA08210A2001F04BFA0021302001F06A
:1042200047FA40F20241312001F042FA4FF4837123
:10423000322001F03DFA40F20351332001F038FA08
:104240004FF48271342001F033FA40F2013135200D
:1042500001F02EFA40F20771362001F029FA40F2FF
:104260000531372001F024FA4FF40271382001F0B3
:104270001FFA40F60B7100E03CE0392001F018FA1B
:104280000221412001F014FA4FF41C51602001F08A
:104290000FFA0121612001F00BFA4FF40471902014
:1042A00001F006FA4FF48571922001F001FA042121
:1042B000932001F0FDF94FF48071A02001F0F8F98E
:1042C0000121072001F0F4F92121072001F0F0F984
:1042D0002321072001F0ECF93321072001F0E8F950
:1042E00040F23311072001F0E3F90021A02001F092
:1042F000DFF92EE39D48808844F2355188427CD115
:104300003021152001F0D4F910219A2001F0D0F9C4
:104310002021112001F0CCF943F22841102001F0B6
:10432000C7F90221122001F0C3F941F2380113202C
:1043300001F0BEF9282002F04FF81221084601F0E2
:10434000B7F9282002F048F843F22041102001F08C
:10435000AFF943F23801132001F0AAF9462002F028
:104360003BF80021302001F0A3F940F20241312056
:1043700001F09EF940F20731322001F099F94FF433
:104380004171332001F094F90421342001F090F9B7
:1043900040F20141352001F08BF940F207713620DF
:1043A00001F086F940F20531372001F081F94FF430
:1043B000C261382001F07CF94FF4C261392001F06C
:1043C00077F94FF48071012001F072F94FF44071D8
:1043D000022001F06DF941F23001032001F068F98B
:1043E00040F60801082001F063F908210A2001F0D5
:1043F0005FF94FF41C51602000E033E001F058F900
:104400000121612001F054F94FF49F71902001F0D7
:104410004FF94FF48071922001F04AF94FF4807106
:10442000932001F045F94FF44051A02001F040F9EC
:104430001021A32001F03CF90121072001F038F9F7
:104440002121072001F034F92321072001F030F960
:104450003321072001F02CF940F23311072001F03D
:1044600027F976E24148808841F663118842F8D105
:10447000E22001F003F94FF480703D4908614000EB
:1044800048611D203B490860802039494861086126
:1044900080000861401008614000486102203549F1
:1044A000086080203249486108618000086140103E
:1044B00008614000486104202E49086080202C4992
:1044C0004861086180000861642001F091FFE020EC
:1044D00001F0D4F84FF4807025490861400048612C
:1044E000012024490860802021494861086180003A
:1044F00008610A2001F070FFE02001F0BFF84FF4DE
:1045000080701B4908614000486103201949086018
:104510008020174948610861800008610C2001F083
:104520005BFF012001F0AAF80A2001F055FFE62008
:1045300001F0A4F84FF480700D4908614000486113
:104540002F200C49086080200949486108618000DB
:1045500008614010086140004861FF20054908607B
:104560008020034948610861800005E03400002094
:10457000001001400C0C014008614010086140002F
:104580004861FF20F84908608020F84948610861C7
:1045900080000861B02001F071F84FF48070F34999
:1045A0000861400048612020EF4908608020EF4901
:1045B000486108618000086140100861400048615E
:1045C0000020E94908608020E849486108618000CE
:1045D000086140100861400048610320E24908601A
:1045E0008020E2494861086180000861401008614C
:1045F0004000486140F21F30DB4908608020DB4901
:10460000486108618000086140100861400048610D
:104610000120D54908608020D449486108618000A4
:104620000861401008614000486140F2DF10CE4947
:1046300008608020CD494861086180000861401011
:104640000861400048610020C74908608020C749D0
:104650004861086180000861B42001F00FF84FF450
:104660008070C2490861400048610420BE4908606A
:104670008020BE49486108618000086140100861DF
:104680004000486140F21F40B74908608020B749A8
:10469000486108618000086140100861400048617D
:1046A0000020B14908608020B0494861086180005D
:1046B000086140100861400048612E20AA49086046
:1046C0008020AA49486108618000086140100861A3
:1046D000400048610020A44908608020A349486147
:1046E00008618000086140100861400048610020B6
:1046F0009D49086080209D494861086180000861EB
:1047000040100861400048610020974908608020FF
:1047100096494861086180000861401008614000C6
:1047200048610020904908608020904948610861F4
:1047300080000861B62000F0A1FF4FF480708B4923
:10474000086140004861022087490860802087494D
:1047500048610861800008614010086140004861BC
:104760004FF40370804908608020804948610861E7
:1047700080000861401008614000486100207A49CB
:104780000860802079494861086180000861401014
:104790000861400048611720734908608020734910
:1047A000486108618000086140100861400048616C
:1047B00015206D49086080206C49486108618000BF
:1047C00008614010086140004861002066490860A7
:1047D00080206649486108618000086140100861D6
:1047E0004000486100206049086080205F494861BE
:1047F000086180000861F02000F040FF4FF48070F5
:104800005A490861400048610320574908608020E8
:1048100056494861086180000861292000F02EFF98
:10482000D02000F02BFF4FF4807050490861400009
:10483000486100204C49086080204C49486108616B
:1048400080000861BE2000F019FF4FF480704749D6
:1048500008614000486105204349086080204349C1
:1048600048610861800008614010086140004861AB
:10487000FE203D49086080203C4948610861800075
:104880000861401008614000486101203649086015
:104890008020364948610861800008614010086145
:1048A0004000486100203049086080202F4948615D
:1048B00008618000086140100861400048610020E4
:1048C0002949086080202949486108618000086101
:1048D00040100861400048610020234908608020A2
:1048E00022494861086180000861B82000F0C6FED6
:1048F0004FF480701D4908614000486103201A4947
:1049000008608020194948610861800008614010F2
:104910000861400048610120134908608020134964
:104920004861086180000861BA2000F0A7FE4FF4DA
:1049300080700E4908614000486101200A49086002
:1049400080200A494861086180000861642000F005
:1049500051F80020FBF79EFF0120054908604FF643
:10496000FF70FBF753FF08BD0C0C01400010014025
:10497000A801224210B54FF0883017490860091D80
:104980000860002014490C3108608815134908613B
:1049900040004861402048611148808848F68911EC
:1049A000884202D1022001F023FD0B480830006844
:1049B00084B2402009490861C00008614FF03330DB
:1049C00005490860091D08604FF6FF7002490C3167
:1049D0000860204610BD0000000C0140001001409E
:1049E0003400002010B50446204600F047FEFFF7D3
:1049F000C1FF10BD2DE9F0410446BE2000F03EFE8F
:104A00004FF480702D4908614000486105202C4911
:104A100008608020294948610861800008614010D1
:104A20000861400048612046FBF77FFC05464FF0D7
:104A30006632244BFBF702FC0746FBF797FC204944
:104A4000086080201D4948610861800008614010AD
:104A50000861400048610120194908608020174919
:104A600048610861800008614010086140004861A9
:104A7000FF201349086080201049486108618000C8
:104A80000861401008614000486100200C4908603E
:104A900080200A494861086180000861401008616F
:104AA00040004861002006490860802003494861B1
:104AB000086180000861BDE8F0810000001001403D
:104AC0000C0C014066660440F0B505460024002742
:104AD000FC48807901280BD1FA48808846F6040109
:104AE000884205D0F748808841F66311884208D192
:104AF000F4488079F0B9F348808841F66311884220
:104B000018D1082D15D2DFE805F00406080A0C0EAE
:104B1000101206250DE007250BE0042509E0052508
:104B200007E0012505E0002503E0032501E002255B
:104B300000BF00BFE348808849F24131884217D066
:104B4000E048808846F60401884211D0DD4880881C
:104B500045F2103188420BD0DA48808845F2105176
:104B6000884205D0D748808841F6631188427DD1BC
:104B7000082D1CD2DFE805F00406090C0F121518E9
:104B800000BF14E044F0800411E044F040040EE063
:104B900044F0C0040BE044F0200408E044F060045A
:104BA00005E044F0A00402E044F0E00400BF00BFD0
:104BB000C448808845F21051884202D14FF45857BA
:104BC00000E03627BF48808845F2103188420DD07A
:104BD000BC48808845F21051884207D0B948808887
:104BE00041F66311884201D044F00804B54880883A
:104BF00046F60401884201D144F0020421463846B9
:104C000000F056FDAF48808841F6631188421DD000
:104C100004F0200068B1AB480088AA49498888425E
:104C200014DAA84806884088A649088008464680C5
:104C30000CE0A4480088A3494988884206DDA148C1
:104C4000068840889F490880084646809D4880889D
:104C500045F2105188427DD19A49488900F00EFDF5
:104C60004FF4807098490861400000E030E14861ED
:104C700000209649086080209349486108618000BF
:104C8000086190494989491C88B200F0F7FC4FF44B
:104C900080708D4908614000486100208B490860A0
:104CA00080208949486108618000086185494989F7
:104CB000891C88B200F0E2FC4FF4807082490861E0
:104CC000400048617F480088401E00127F4908600C
:104CD00080207D49486108618000086179494989DF
:104CE000C91C88B200F0CAFC4FF480707649086194
:104CF0004000486173480078401EC0B273490860A4
:104D00008020714948610861800008616D49888987
:104D100000F0B4FC4FF480706B49086140004861BA
:104D200000206A4908608020674948610861800066
:104D3000086164498989491C88B200F09FFC4FF4DE
:104D40008070614908614000486100205F49086047
:104D5000802000E035E05C4948610861800008611E
:104D600058498989891C88B200F088FC4FF480700A
:104D7000554908614000486152484088401E001271
:104D800052490860802050494861086180000861EC
:104D90004C498989C91C88B200F070FC4FF48070BE
:104DA000494908614000486146488078401EC0B2C9
:104DB00046490860802044494861086180000861D4
:104DC000ADE04049488900F059FC4FF480703E49FD
:104DD00008614000486100203C49086080203A4951
:104DE0004861086180000861401008614000486126
:104DF00000203649086080203349486108618000FE
:104E0000086140100861400048612E480088401E3B
:104E100000122E49086080202B49486108618000FB
:104E20000861401008614000486126480078401E33
:104E3000C0B226490860802023494861086180008B
:104E400008612049888900F019FC4FF480701E49E0
:104E500008614000486100201C49086080201A4910
:104E600048610861800008614010086140004861A5
:104E700000201649086080201349486108618000BD
:104E8000086140100861400048610E484088401E9B
:104E900000120E49086080200B49486108618000BB
:104EA0000861401008614000486106488078401E53
:104EB000C0B206490860802003494861086180004B
:104EC00008612CE034000020001001400C0C01406F
:104ED000082D1CD2DFE805F004070A0D0F12151883
:104EE00044F0300413E044F0100410E044F02004D7
:104EF0000DE000BF0BE044F0380408E044F0280463
:104F000005E044F0180402E044F0080400BF00BFCC
:104F1000032744F480542146384600F0C9FBF0BD15
:104F200030B504460D46EA48808849F2413188424E
:104F300005D0E748808845F21031884240D1E449E5
:104F4000488900F09BFB4FF48070E2490861400003
:104F500048612012E04908608020DE49486108610C
:104F6000800008614010086140004861E0B2DA4901
:104F700008608020D7494861086180000861D449F1
:104F8000888900F07BFB4FF48070D24908614000B3
:104F900048612812D04908608020CE4948610861E4
:104FA000800008614010086140004861E8B2CA49C9
:104FB00008608020C749486108618000086186E177
:104FC000C348808846F60401884249D1C0488079A8
:104FD000012804D1BE480088401E001B84B2BC4991
:104FE000488900F04BFB4FF48070BA4908614000DB
:104FF00048612012B84908608020B64948610861BC
:10500000800008614010086140004861E0B2B24988
:1050100008608020AF494861086180000861AC49A0
:10502000888900F02BFB4FF48070AA49086140008A
:1050300048612812A84908608020A6494861086193
:10504000800008614010086140004861E8B2A24950
:10505000086080209F49486108618000086136E14E
:105060009B48808841F6631188427DD198488079B9
:1050700000283FD196480088401E001B84B2944906
:10508000488900F0FBFA4FF48070924908614000B3
:10509000486100209049086080208E49486108617D
:1050A00080000861401008614000486100208A4982
:1050B00008608020874948610861800008614010CD
:1050C00008614000486120128349086080208149BE
:1050D0004861086180000861401008614000486133
:1050E000E0B27D49086080207A494861086180000B
:1050F000086141E07649488900F0C0FA4FF48070B9
:10510000744908614000486120127349086080209A
:1051100070494861086180000861401008614000E2
:105120004861E0B26C49086080206A4948610861C2
:1051300080000861401008614000486164480088B0
:10514000401E00126449086080206249486108617D
:105150008000086140100861400048615C480078A8
:10516000401EC0B25C4900E047E008608020594919
:1051700048610861800008615549888900F07EFA1D
:105180004FF4807053490861400048612812524929
:10519000086080204F494861086180000861401024
:1051A000086140004861E8B24B49086080204949E5
:1051B0004861086180000861401008614000486152
:1051C00043484088401E00124349086080204149FE
:1051D0004861086180000861401008614000486132
:1051E0003B488078401EC0B23B4908608020394966
:1051F000486108618000086169E03548808845F2AF
:105200001051884250D13249488900F037FA4FF4A2
:105210008070304908614000486120122E490860C2
:1052200080202C494861086180000861284949892B
:10523000491C88B200F022FA4FF4807025490861B9
:1052400040004861E0B2244908608020214948615B
:105250000861800008611E49888900F00FFA4FF448
:1052600080701C4908614000486128121A49086092
:1052700080201849486108618000086114498989C3
:10528000491C88B200F0FAF94FF4807011490861A6
:1052900040004861E8B21049086080200D4948612B
:1052A00008618000086112E009488079012804D172
:1052B00007480088401E001B84B2054948892146E2
:1052C00000F0F6F902498889294600F0F1F930BD6D
:1052D00034000020001001400C0C01402DE9F84F73
:1052E00080460E4617461C46B3462046E31704EB9D
:1052F0005373DB1021464FEAE47C04EB5C7C4FEAFD
:10530000EC0CA4EBCC0CBCF1000F02D04FF0010C64
:1053100001E04FF0000C6344224604EBD27C4FEADC
:105320006C0C03FB0CF3DBB20093A7F12000C7B2B7
:10533000002556E00C2C07D107EB47002B4901EB69
:10534000800010F8059013E0102C05D1284800EBE0
:10535000071010F805900BE0182C07D107EBC700D9
:10536000244901EB800010F8059001E0BDE8F88FBA
:105370004FF0000A2FE009F0800030B11E4802888B
:1053800031464046FBF766FB07E00A9828B91B4800
:10539000028831464046FBF75DFB4FEA49604FEA21
:1053A0001069701C86B216484088B04200DCDDE708
:1053B000A6EB0B00A0420AD15E4608F101001FFADD
:1053C00080F80F480088404500DCCFE706E00AF18E
:1053D000010000F0FF0ABAF1080FCCDB00BF681C27
:1053E000C5B200988542A5DB00BFBFE7086700088B
:1053F0007C6B00086C7100082C0000202E0000203F
:1054000034000020F8B506460F4614461D4624E039
:10541000207880280FDA0020009022782B46394629
:105420003046FFF75BFF284605EBD07106EB6101C4
:105430008EB2641C11E02B4622463946304600F0FD
:1054400011F80C2D03D106F10C0086B204E0182DE2
:1054500002D106F1180086B2A41C20780028D7D10A
:10546000F8BD00002DE9FF4F0D4691469A46AB4628
:10547000BAF10C0F02D0BAF1180F58D1BAF10C0FD3
:1054800056D1002451E004EB840000EBC4005449E1
:1054900011F8100099F80010884244D104EB840000
:1054A00000EBC4004E4901EB4000407899F8011030
:1054B000884238D14FF0000832E004EB840000EB62
:1054C000C400474901EB4000801C10F80860002729
:1054D0001FE006F0800030B142480288294600985B
:1054E000FBF7B8FA05E04048028829460098FBF728
:1054F000B1FA7006060E681C85B2A5EB0B000C28ED
:1055000005D15D460098401C80B2009003E0781CF5
:10551000C7B2082FDDDB00BF08F1010000F0FF0873
:10552000B8F1180FC9DB601CC4B2022CABD355E034
:10553000002451E004EB840000EB44102B4911F8E7
:10554000100099F80010884244D104EB840000EB6D
:105550004410264901EB4000407899F80110884238
:1055600038D14FF0000832E004EB840000EB441027
:105570001E4901EB4000801C10F8086000271FE066
:1055800006F0800030B11748028829460098FBF7E2
:1055900061FA05E01448028829460098FBF75AFA98
:1055A0007006060E681C85B2A5EB0B00182805D105
:1055B0005D460098401C80B2009003E0781CC7B2A2
:1055C000082FDDDB00BF08F1010000F0FF08B8F193
:1055D000480FC9DB601CC4B2022CABD3BDE8FF8FFF
:1055E000406600082C0000202E0000207466000891
:1055F0002DE9F84704460D4690469946DDE90967CE
:1056000004F0FF0A08EB04001FFA80F809EB05001C
:105610001FFA80F916E0444502DB5446A81985B20A
:105620004D4500DB14E0002000903A7833462946CF
:105630002046FFF753FE304606EBD07104EB6101C4
:105640008CB27F1C38787E2802DC38782028E2DA99
:1056500000BFBDE8F88700004FF48071054A116172
:10566000490051610449086080215161116189003C
:1056700011617047001001400C0C01404FF4807123
:10568000054A516149005161044908608021516116
:105690001161890011617047001001400C0C01403C
:1056A00000B502490889FFF7E9FF00BD340000207A
:1056B00010B504460B462046FFF7E0FF4FF480701C
:1056C0000549086140004861044803608020486142
:1056D00008618000086110BD001001400C0C014001
:1056E00008B50121242000F0ADF810208DF803004A
:1056F0000001ADF8000003208DF80200694605485E
:10570000FAF746FF0420ADF8000069460248FAF7B0
:105710003FFF08BD000801400014014000BFFEE744
:105720007047000070B5002100230F22C47804B335
:10573000154C246804F4E064C4F5E064210AC1F166
:105740000403CA40447804FA03F1847814402143E6
:1057500009010E4C0678A155047804F01F050124B8
:10576000AC4005786D11AD0005F1E025C5F80041AC
:1057700009E0047804F01F050124AC40044D0678CC
:10578000761145F8264070BD0CED00E000E400E025
:1057900080E100E000B589B00121C80200F052F8B4
:1057A0000121042000F04EF818208DF823004FF45A
:1057B0008070ADF8200003208DF8220008A91E4853
:1057C000FAF7E6FE1D4800F038FA0020ADF81A009E
:1057D000ADF8160040F28330ADF818000020ADF8A7
:1057E00014008DF81C0005A9144800F08FFA01A8D8
:1057F00000F07FFA7020ADF804000020ADF80C0036
:105800000120ADF806000020ADF80A0001A90B4800
:1058100000F01AFA0121094800F0EFF908210748C1
:1058200000F05EFA0121054800F0CCF9012103489F
:1058300000F0D7F909B000BD00080140002C01407C
:105840007047000029B1064A92690243044B9A61ED
:1058500004E0034A92698243014B9A617047000059
:105860000010024030B500210022002400232D4DFD
:105870006D6805F00C0121B1042905D0082923D158
:1058800005E0294D056022E0274D05601FE0254D0C
:105890006D6805F47012234D6D6805F4803402259F
:1058A00005EB92421CB9214D554305600BE01D4D9F
:1058B0006D6805F400351DB11C4D5543056002E0CF
:1058C000194D5543056002E0174D056000BF00BF4C
:1058D000144D6D6805F0F0010909154D6B5C056804
:1058E000DD4045600F4D6D6805F4E061090A104D1B
:1058F0006B5C4568DD4085600A4D6D6805F460515C
:10590000C90A0B4D6B5C4568DD40C560054D6D688F
:1059100005F44041890B074D6B5CC568B5FBF3F599
:10592000056130BD0010024000127A0000093D0000
:1059300000000020100000207047000000B587B074
:10594000012144F20400FFF77DFF4FF40070ADF831
:10595000180003208DF81A0018208DF81B0006A9E6
:105960001D48FAF715FE4FF48060ADF818000420CA
:105970008DF81B0006A91848FAF70AFE25208DF8B5
:10598000040003208DF805008DF8060001208DF835
:10599000070001A8FFF7C6FE4FF416500290002042
:1059A000ADF80C00ADF80E00ADF81000ADF8140025
:1059B0000C20ADF8120002A9084800F037FA0122C5
:1059C00040F22551054800F00CFA0121034800F08F
:1059D000EFF907B000BD00000008014000380140A9
:1059E00010B504462146074800F08CFA00BF80211C
:1059F000044800F0E9F90128F9D0012000F0ECFC9E
:105A000010BD00000038014070B50446002504E0D8
:105A1000605DFFF7E5FF681CC5B2605D0028F7D147
:105A200070BD10B500F002F810BD00000CB50020EC
:105A3000019000903348006840F48030314908609C
:105A400000BF3048006800F4003000900198401C0E
:105A50000190009818B90198B0F5A06FF1D12948CC
:105A6000006800F4003010B10120009001E0002037
:105A700000900098012843D12348006840F01000AE
:105A8000214908600846006820F0070008600846C1
:105A9000006840F0020008601A48406819494860F0
:105AA0000846406848600846406840F480604860A6
:105AB0000846406820F47C1048600846406840F47E
:105AC000E81048600846006840F08070086000BF39
:105AD0000C48006800F000700028F9D009484068C0
